{
	"FortuneCookie.sol": {
		"FortuneCookie": {
			"abi": [
				{
					"inputs": [],
					"stateMutability": "nonpayable",
					"type": "constructor"
				},
				{
					"anonymous": false,
					"inputs": [
						{
							"indexed": false,
							"internalType": "address",
							"name": "user",
							"type": "address"
						},
						{
							"indexed": false,
							"internalType": "string",
							"name": "fortune",
							"type": "string"
						},
						{
							"indexed": false,
							"internalType": "uint256",
							"name": "timestamp",
							"type": "uint256"
						}
					],
					"name": "FortuneOpened",
					"type": "event"
				},
				{
					"inputs": [
						{
							"internalType": "string",
							"name": "newFortune",
							"type": "string"
						}
					],
					"name": "addFortune",
					"outputs": [],
					"stateMutability": "nonpayable",
					"type": "function"
				},
				{
					"inputs": [],
					"name": "getFortuneCount",
					"outputs": [
						{
							"internalType": "uint256",
							"name": "",
							"type": "uint256"
						}
					],
					"stateMutability": "view",
					"type": "function"
				},
				{
					"inputs": [],
					"name": "getRandomFortune",
					"outputs": [
						{
							"internalType": "string",
							"name": "",
							"type": "string"
						}
					],
					"stateMutability": "nonpayable",
					"type": "function"
				},
				{
					"inputs": [],
					"name": "owner",
					"outputs": [
						{
							"internalType": "address",
							"name": "",
							"type": "address"
						}
					],
					"stateMutability": "view",
					"type": "function"
				}
			],
			"devdoc": {
				"kind": "dev",
				"methods": {},
				"version": 1
			},
			"evm": {
				"assembly": "    /* \"FortuneCookie.sol\":60:5203  contract FortuneCookie {... */\n  mstore(0x40, 0x80)\n    /* \"FortuneCookie.sol\":236:4280  constructor() {... */\n  callvalue\n  dup1\n  iszero\n  tag_1\n  jumpi\n  0x00\n  dup1\n  revert\ntag_1:\n  pop\n    /* \"FortuneCookie.sol\":269:279  msg.sender */\n  caller\n    /* \"FortuneCookie.sol\":261:266  owner */\n  0x01\n  0x00\n    /* \"FortuneCookie.sol\":261:279  owner = msg.sender */\n  0x0100\n  exp\n  dup2\n  sload\n  dup2\n  0xffffffffffffffffffffffffffffffffffffffff\n  mul\n  not\n  and\n  swap1\n  dup4\n  0xffffffffffffffffffffffffffffffffffffffff\n  and\n  mul\n  or\n  swap1\n  sstore\n  pop\n    /* \"FortuneCookie.sol\":357:365  fortunes */\n  0x00\n    /* \"FortuneCookie.sol\":357:442  fortunes.push(\"A beautiful, smart, and loving person will be coming into your life.\") */\n  dup1\n  0x01\n  dup2\n  sload\n  add\n  dup1\n  dup3\n  sstore\n  dup1\n  swap2\n  pop\n  pop\n  0x01\n  swap1\n  sub\n  swap1\n  0x00\n  mstore\n  keccak256(0x00, 0x20)\n  add\n  0x00\n  mload(0x40)\n  dup1\n  0x80\n  add\n  0x40\n  mstore\n  dup1\n  0x44\n  dup2\n  mstore\n  0x20\n  add\n  data_43c73b6476dd5dc94dbaa42ecdd97d295347d9eab5716d4b889123a8fc13d189\n  0x44\n  swap2\n  codecopy\n  swap1\n  swap2\n  swap1\n  swap2\n  pop\n  swap1\n  dup2\n  tag_5\n  swap2\n  swap1\n  tag_6\n  jump\t// in\ntag_5:\n  pop\n    /* \"FortuneCookie.sol\":453:461  fortunes */\n  0x00\n    /* \"FortuneCookie.sol\":453:536  fortunes.push(\"Your creativity will make you successful in an unexpected venture.\") */\n  dup1\n  0x01\n  dup2\n  sload\n  add\n  dup1\n  dup3\n  sstore\n  dup1\n  swap2\n  pop\n  pop\n  0x01\n  swap1\n  sub\n  swap1\n  0x00\n  mstore\n  keccak256(0x00, 0x20)\n  add\n  0x00\n  mload(0x40)\n  dup1\n  0x80\n  add\n  0x40\n  mstore\n  dup1\n  0x42\n  dup2\n  mstore\n  0x20\n  add\n  data_d25fbbcc831eb5aa8762e63b0d5ab78ae79c48787121f37d61e0c4009c64be00\n  0x42\n  swap2\n  codecopy\n  swap1\n  swap2\n  swap1\n  swap2\n  pop\n  swap1\n  dup2\n  tag_8\n  swap2\n  swap1\n  tag_6\n  jump\t// in\ntag_8:\n  pop\n    /* \"FortuneCookie.sol\":547:555  fortunes */\n  0x00\n    /* \"FortuneCookie.sol\":547:619  fortunes.push(\"New opportunities await you on your blockchain journey.\") */\n  dup1\n  0x01\n  dup2\n  sload\n  add\n  dup1\n  dup3\n  sstore\n  dup1\n  swap2\n  pop\n  pop\n  0x01\n  swap1\n  sub\n  swap1\n  0x00\n  mstore\n  keccak256(0x00, 0x20)\n  add\n  0x00\n  mload(0x40)\n  dup1\n  0x60\n  add\n  0x40\n  mstore\n  dup1\n  0x37\n  dup2\n  mstore\n  0x20\n  add\n  data_1df99ffe238cbd0eb036ff781f33bd2b5e06604d8b1914fe2cfb27682b8195cf\n  0x37\n  swap2\n  codecopy\n  swap1\n  swap2\n  swap1\n  swap2\n  pop\n  swap1\n  dup2\n  tag_10\n  swap2\n  swap1\n  tag_6\n  jump\t// in\ntag_10:\n  pop\n    /* \"FortuneCookie.sol\":630:638  fortunes */\n  0x00\n    /* \"FortuneCookie.sol\":630:697  fortunes.push(\"The smart contract you seek is already within you.\") */\n  dup1\n  0x01\n  dup2\n  sload\n  add\n  dup1\n  dup3\n  sstore\n  dup1\n  swap2\n  pop\n  pop\n  0x01\n  swap1\n  sub\n  swap1\n  0x00\n  mstore\n  keccak256(0x00, 0x20)\n  add\n  0x00\n  mload(0x40)\n  dup1\n  0x60\n  add\n  0x40\n  mstore\n  dup1\n  0x32\n  dup2\n  mstore\n  0x20\n  add\n  data_54549edeb05c280a6e448914b2549b49acba96d6d99be6239fce11a44d7ab5ee\n  0x32\n  swap2\n  codecopy\n  swap1\n  swap2\n  swap1\n  swap2\n  pop\n  swap1\n  dup2\n  tag_12\n  swap2\n  swap1\n  tag_6\n  jump\t// in\ntag_12:\n  pop\n    /* \"FortuneCookie.sol\":708:716  fortunes */\n  0x00\n    /* \"FortuneCookie.sol\":708:775  fortunes.push(\"Fortune favors the bold. Take that leap into DeFi.\") */\n  dup1\n  0x01\n  dup2\n  sload\n  add\n  dup1\n  dup3\n  sstore\n  dup1\n  swap2\n  pop\n  pop\n  0x01\n  swap1\n  sub\n  swap1\n  0x00\n  mstore\n  keccak256(0x00, 0x20)\n  add\n  0x00\n  mload(0x40)\n  dup1\n  0x60\n  add\n  0x40\n  mstore\n  dup1\n  0x32\n  dup2\n  mstore\n  0x20\n  add\n  data_f7731e13d02d206a4f726fdc9a0d99d30ed8bd4d31378dd6e0ce863b57f16bf9\n  0x32\n  swap2\n  codecopy\n  swap1\n  swap2\n  swap1\n  swap2\n  pop\n  swap1\n  dup2\n  tag_14\n  swap2\n  swap1\n  tag_6\n  jump\t// in\ntag_14:\n  pop\n    /* \"FortuneCookie.sol\":786:794  fortunes */\n  0x00\n    /* \"FortuneCookie.sol\":786:843  fortunes.push(\"Your next NFT will bring unexpected joy.\") */\n  dup1\n  0x01\n  dup2\n  sload\n  add\n  dup1\n  dup3\n  sstore\n  dup1\n  swap2\n  pop\n  pop\n  0x01\n  swap1\n  sub\n  swap1\n  0x00\n  mstore\n  keccak256(0x00, 0x20)\n  add\n  0x00\n  mload(0x40)\n  dup1\n  0x60\n  add\n  0x40\n  mstore\n  dup1\n  0x28\n  dup2\n  mstore\n  0x20\n  add\n  data_6c78801c6e6bf2c5e93da018e327b15133eb3e01ea842a42a11bf7d7e65bfdd9\n  0x28\n  swap2\n  codecopy\n  swap1\n  swap2\n  swap1\n  swap2\n  pop\n  swap1\n  dup2\n  tag_16\n  swap2\n  swap1\n  tag_6\n  jump\t// in\ntag_16:\n  pop\n    /* \"FortuneCookie.sol\":854:862  fortunes */\n  0x00\n    /* \"FortuneCookie.sol\":854:917  fortunes.push(\"The token you've been ignoring will soon moon.\") */\n  dup1\n  0x01\n  dup2\n  sload\n  add\n  dup1\n  dup3\n  sstore\n  dup1\n  swap2\n  pop\n  pop\n  0x01\n  swap1\n  sub\n  swap1\n  0x00\n  mstore\n  keccak256(0x00, 0x20)\n  add\n  0x00\n  mload(0x40)\n  dup1\n  0x60\n  add\n  0x40\n  mstore\n  dup1\n  0x2e\n  dup2\n  mstore\n  0x20\n  add\n  data_be83ca0fe9f33d9aa4020355a3007f6f9e4e045701abb9b8a2150965045904fc\n  0x2e\n  swap2\n  codecopy\n  swap1\n  swap2\n  swap1\n  swap2\n  pop\n  swap1\n  dup2\n  tag_18\n  swap2\n  swap1\n  tag_6\n  jump\t// in\ntag_18:\n  pop\n    /* \"FortuneCookie.sol\":928:936  fortunes */\n  0x00\n    /* \"FortuneCookie.sol\":928:1004  fortunes.push(\"A small investment today will yield great returns tomorrow.\") */\n  dup1\n  0x01\n  dup2\n  sload\n  add\n  dup1\n  dup3\n  sstore\n  dup1\n  swap2\n  pop\n  pop\n  0x01\n  swap1\n  sub\n  swap1\n  0x00\n  mstore\n  keccak256(0x00, 0x20)\n  add\n  0x00\n  mload(0x40)\n  dup1\n  0x60\n  add\n  0x40\n  mstore\n  dup1\n  0x3b\n  dup2\n  mstore\n  0x20\n  add\n  data_7468d12462f6accc131bf5384d20a98b12c72c2471a4ee0ef3d0cc562baf8ad2\n  0x3b\n  swap2\n  codecopy\n  swap1\n  swap2\n  swap1\n  swap2\n  pop\n  swap1\n  dup2\n  tag_20\n  swap2\n  swap1\n  tag_6\n  jump\t// in\ntag_20:\n  pop\n    /* \"FortuneCookie.sol\":1015:1023  fortunes */\n  0x00\n    /* \"FortuneCookie.sol\":1015:1083  fortunes.push(\"Your wallet will soon receive a surprising airdrop.\") */\n  dup1\n  0x01\n  dup2\n  sload\n  add\n  dup1\n  dup3\n  sstore\n  dup1\n  swap2\n  pop\n  pop\n  0x01\n  swap1\n  sub\n  swap1\n  0x00\n  mstore\n  keccak256(0x00, 0x20)\n  add\n  0x00\n  mload(0x40)\n  dup1\n  0x60\n  add\n  0x40\n  mstore\n  dup1\n  0x33\n  dup2\n  mstore\n  0x20\n  add\n  data_74e558d0ec7fa747a5e28628cb7ecf42fcc243391faf05e6ea1fd772b6812cc4\n  0x33\n  swap2\n  codecopy\n  swap1\n  swap2\n  swap1\n  swap2\n  pop\n  swap1\n  dup2\n  tag_22\n  swap2\n  swap1\n  tag_6\n  jump\t// in\ntag_22:\n  pop\n    /* \"FortuneCookie.sol\":1094:1102  fortunes */\n  0x00\n    /* \"FortuneCookie.sol\":1094:1146  fortunes.push(\"The bug in your code is on line 42.\") */\n  dup1\n  0x01\n  dup2\n  sload\n  add\n  dup1\n  dup3\n  sstore\n  dup1\n  swap2\n  pop\n  pop\n  0x01\n  swap1\n  sub\n  swap1\n  0x00\n  mstore\n  keccak256(0x00, 0x20)\n  add\n  0x00\n  mload(0x40)\n  dup1\n  0x60\n  add\n  0x40\n  mstore\n  dup1\n  0x23\n  dup2\n  mstore\n  0x20\n  add\n  data_d591da6de44c75bff5d9f98e9cd421b7bd1d3fe9fbcc7dfbee4c17fa6a23c993\n  0x23\n  swap2\n  codecopy\n  swap1\n  swap2\n  swap1\n  swap2\n  pop\n  swap1\n  dup2\n  tag_24\n  swap2\n  swap1\n  tag_6\n  jump\t// in\ntag_24:\n  pop\n    /* \"FortuneCookie.sol\":1157:1165  fortunes */\n  0x00\n    /* \"FortuneCookie.sol\":1157:1260  fortunes.push(\"Success is not final, failure is not fatal: it is the courage to continue that counts.\") */\n  dup1\n  0x01\n  dup2\n  sload\n  add\n  dup1\n  dup3\n  sstore\n  dup1\n  swap2\n  pop\n  pop\n  0x01\n  swap1\n  sub\n  swap1\n  0x00\n  mstore\n  keccak256(0x00, 0x20)\n  add\n  0x00\n  mload(0x40)\n  dup1\n  0x80\n  add\n  0x40\n  mstore\n  dup1\n  0x56\n  dup2\n  mstore\n  0x20\n  add\n  data_1f9ee8d7ecc715e060452ab59df8dfb1cd4bfb40b8f308c6bd8c2a91d1c116fb\n  0x56\n  swap2\n  codecopy\n  swap1\n  swap2\n  swap1\n  swap2\n  pop\n  swap1\n  dup2\n  tag_26\n  swap2\n  swap1\n  tag_6\n  jump\t// in\ntag_26:\n  pop\n    /* \"FortuneCookie.sol\":1271:1279  fortunes */\n  0x00\n    /* \"FortuneCookie.sol\":1271:1344  fortunes.push(\"Your greatest strength is your persistent determination.\") */\n  dup1\n  0x01\n  dup2\n  sload\n  add\n  dup1\n  dup3\n  sstore\n  dup1\n  swap2\n  pop\n  pop\n  0x01\n  swap1\n  sub\n  swap1\n  0x00\n  mstore\n  keccak256(0x00, 0x20)\n  add\n  0x00\n  mload(0x40)\n  dup1\n  0x60\n  add\n  0x40\n  mstore\n  dup1\n  0x38\n  dup2\n  mstore\n  0x20\n  add\n  data_fb57a1f81a2ec7e39b7edb8c10569aeb45ca10762f4e60c16b6fbee784f93228\n  0x38\n  swap2\n  codecopy\n  swap1\n  swap2\n  swap1\n  swap2\n  pop\n  swap1\n  dup2\n  tag_28\n  swap2\n  swap1\n  tag_6\n  jump\t// in\ntag_28:\n  pop\n    /* \"FortuneCookie.sol\":1355:1363  fortunes */\n  0x00\n    /* \"FortuneCookie.sol\":1355:1454  fortunes.push(\"An exciting opportunity will present itself if you remain open to new experiences.\") */\n  dup1\n  0x01\n  dup2\n  sload\n  add\n  dup1\n  dup3\n  sstore\n  dup1\n  swap2\n  pop\n  pop\n  0x01\n  swap1\n  sub\n  swap1\n  0x00\n  mstore\n  keccak256(0x00, 0x20)\n  add\n  0x00\n  mload(0x40)\n  dup1\n  0x80\n  add\n  0x40\n  mstore\n  dup1\n  0x52\n  dup2\n  mstore\n  0x20\n  add\n  data_a89d61d13913c729c0694534c58831da82085527556bf9ca3c6c7a05f91d5e66\n  0x52\n  swap2\n  codecopy\n  swap1\n  swap2\n  swap1\n  swap2\n  pop\n  swap1\n  dup2\n  tag_30\n  swap2\n  swap1\n  tag_6\n  jump\t// in\ntag_30:\n  pop\n    /* \"FortuneCookie.sol\":1465:1473  fortunes */\n  0x00\n    /* \"FortuneCookie.sol\":1465:1533  fortunes.push(\"Someone from your past will soon reenter your life.\") */\n  dup1\n  0x01\n  dup2\n  sload\n  add\n  dup1\n  dup3\n  sstore\n  dup1\n  swap2\n  pop\n  pop\n  0x01\n  swap1\n  sub\n  swap1\n  0x00\n  mstore\n  keccak256(0x00, 0x20)\n  add\n  0x00\n  mload(0x40)\n  dup1\n  0x60\n  add\n  0x40\n  mstore\n  dup1\n  0x33\n  dup2\n  mstore\n  0x20\n  add\n  data_36f663e431596ef8b2a93761481e9c0a3f818cefd7056a152c43bfa8c89671d6\n  0x33\n  swap2\n  codecopy\n  swap1\n  swap2\n  swap1\n  swap2\n  pop\n  swap1\n  dup2\n  tag_32\n  swap2\n  swap1\n  tag_6\n  jump\t// in\ntag_32:\n  pop\n    /* \"FortuneCookie.sol\":1544:1552  fortunes */\n  0x00\n    /* \"FortuneCookie.sol\":1544:1603  fortunes.push(\"The wisdom you seek is already within you.\") */\n  dup1\n  0x01\n  dup2\n  sload\n  add\n  dup1\n  dup3\n  sstore\n  dup1\n  swap2\n  pop\n  pop\n  0x01\n  swap1\n  sub\n  swap1\n  0x00\n  mstore\n  keccak256(0x00, 0x20)\n  add\n  0x00\n  mload(0x40)\n  dup1\n  0x60\n  add\n  0x40\n  mstore\n  dup1\n  0x2a\n  dup2\n  mstore\n  0x20\n  add\n  data_d3d0f80ca815e428a11cd76a4b8958b1a5c4a7664369940c87c8404fa0f0aa22\n  0x2a\n  swap2\n  codecopy\n  swap1\n  swap2\n  swap1\n  swap2\n  pop\n  swap1\n  dup2\n  tag_34\n  swap2\n  swap1\n  tag_6\n  jump\t// in\ntag_34:\n  pop\n    /* \"FortuneCookie.sol\":1614:1622  fortunes */\n  0x00\n    /* \"FortuneCookie.sol\":1614:1692  fortunes.push(\"A chance meeting will lead to important changes in your life.\") */\n  dup1\n  0x01\n  dup2\n  sload\n  add\n  dup1\n  dup3\n  sstore\n  dup1\n  swap2\n  pop\n  pop\n  0x01\n  swap1\n  sub\n  swap1\n  0x00\n  mstore\n  keccak256(0x00, 0x20)\n  add\n  0x00\n  mload(0x40)\n  dup1\n  0x60\n  add\n  0x40\n  mstore\n  dup1\n  0x3d\n  dup2\n  mstore\n  0x20\n  add\n  data_aef906a8eb36161c9c0416e1426385c60859d55ceaa34550f7a22d594f52a944\n  0x3d\n  swap2\n  codecopy\n  swap1\n  swap2\n  swap1\n  swap2\n  pop\n  swap1\n  dup2\n  tag_36\n  swap2\n  swap1\n  tag_6\n  jump\t// in\ntag_36:\n  pop\n    /* \"FortuneCookie.sol\":1703:1711  fortunes */\n  0x00\n    /* \"FortuneCookie.sol\":1703:1791  fortunes.push(\"Your hard work is about to pay off. Remember to celebrate your success.\") */\n  dup1\n  0x01\n  dup2\n  sload\n  add\n  dup1\n  dup3\n  sstore\n  dup1\n  swap2\n  pop\n  pop\n  0x01\n  swap1\n  sub\n  swap1\n  0x00\n  mstore\n  keccak256(0x00, 0x20)\n  add\n  0x00\n  mload(0x40)\n  dup1\n  0x80\n  add\n  0x40\n  mstore\n  dup1\n  0x47\n  dup2\n  mstore\n  0x20\n  add\n  data_8fe6a9352cf4a99c0dfe42ac82cea595a79cc0784b4f662aef1a9d18f42c9e15\n  0x47\n  swap2\n  codecopy\n  swap1\n  swap2\n  swap1\n  swap2\n  pop\n  swap1\n  dup2\n  tag_38\n  swap2\n  swap1\n  tag_6\n  jump\t// in\ntag_38:\n  pop\n    /* \"FortuneCookie.sol\":1802:1810  fortunes */\n  0x00\n    /* \"FortuneCookie.sol\":1802:1854  fortunes.push(\"A lifetime of happiness awaits you.\") */\n  dup1\n  0x01\n  dup2\n  sload\n  add\n  dup1\n  dup3\n  sstore\n  dup1\n  swap2\n  pop\n  pop\n  0x01\n  swap1\n  sub\n  swap1\n  0x00\n  mstore\n  keccak256(0x00, 0x20)\n  add\n  0x00\n  mload(0x40)\n  dup1\n  0x60\n  add\n  0x40\n  mstore\n  dup1\n  0x23\n  dup2\n  mstore\n  0x20\n  add\n  data_10ce2db97c7a8a3ee4772ac23363081df49732beca0b762be117fe637d660d39\n  0x23\n  swap2\n  codecopy\n  swap1\n  swap2\n  swap1\n  swap2\n  pop\n  swap1\n  dup2\n  tag_40\n  swap2\n  swap1\n  tag_6\n  jump\t// in\ntag_40:\n  pop\n    /* \"FortuneCookie.sol\":1865:1873  fortunes */\n  0x00\n    /* \"FortuneCookie.sol\":1865:1918  fortunes.push(\"The greatest risk is not taking one.\") */\n  dup1\n  0x01\n  dup2\n  sload\n  add\n  dup1\n  dup3\n  sstore\n  dup1\n  swap2\n  pop\n  pop\n  0x01\n  swap1\n  sub\n  swap1\n  0x00\n  mstore\n  keccak256(0x00, 0x20)\n  add\n  0x00\n  mload(0x40)\n  dup1\n  0x60\n  add\n  0x40\n  mstore\n  dup1\n  0x24\n  dup2\n  mstore\n  0x20\n  add\n  data_acbc19f02b10eb71c86ec9e9de943825e64c917cf059047505e96bb500687528\n  0x24\n  swap2\n  codecopy\n  swap1\n  swap2\n  swap1\n  swap2\n  pop\n  swap1\n  dup2\n  tag_42\n  swap2\n  swap1\n  tag_6\n  jump\t// in\ntag_42:\n  pop\n    /* \"FortuneCookie.sol\":1929:1937  fortunes */\n  0x00\n    /* \"FortuneCookie.sol\":1929:2007  fortunes.push(\"Your ability to adapt to challenges will bring great success.\") */\n  dup1\n  0x01\n  dup2\n  sload\n  add\n  dup1\n  dup3\n  sstore\n  dup1\n  swap2\n  pop\n  pop\n  0x01\n  swap1\n  sub\n  swap1\n  0x00\n  mstore\n  keccak256(0x00, 0x20)\n  add\n  0x00\n  mload(0x40)\n  dup1\n  0x60\n  add\n  0x40\n  mstore\n  dup1\n  0x3d\n  dup2\n  mstore\n  0x20\n  add\n  data_5096acd0547f8b61f802efc2f78afcbade99a02d100427c1bf2517c60e74715f\n  0x3d\n  swap2\n  codecopy\n  swap1\n  swap2\n  swap1\n  swap2\n  pop\n  swap1\n  dup2\n  tag_44\n  swap2\n  swap1\n  tag_6\n  jump\t// in\ntag_44:\n  pop\n    /* \"FortuneCookie.sol\":2018:2026  fortunes */\n  0x00\n    /* \"FortuneCookie.sol\":2018:2092  fortunes.push(\"A journey of a thousand miles begins with a single block.\") */\n  dup1\n  0x01\n  dup2\n  sload\n  add\n  dup1\n  dup3\n  sstore\n  dup1\n  swap2\n  pop\n  pop\n  0x01\n  swap1\n  sub\n  swap1\n  0x00\n  mstore\n  keccak256(0x00, 0x20)\n  add\n  0x00\n  mload(0x40)\n  dup1\n  0x60\n  add\n  0x40\n  mstore\n  dup1\n  0x39\n  dup2\n  mstore\n  0x20\n  add\n  data_6fbd2bc52f6d1a31c2ea423b148c4ef2cb745ed267a2f118937580ccb5bf04c7\n  0x39\n  swap2\n  codecopy\n  swap1\n  swap2\n  swap1\n  swap2\n  pop\n  swap1\n  dup2\n  tag_46\n  swap2\n  swap1\n  tag_6\n  jump\t// in\ntag_46:\n  pop\n    /* \"FortuneCookie.sol\":2103:2111  fortunes */\n  0x00\n    /* \"FortuneCookie.sol\":2103:2180  fortunes.push(\"The smart move you make today will lead to success tomorrow.\") */\n  dup1\n  0x01\n  dup2\n  sload\n  add\n  dup1\n  dup3\n  sstore\n  dup1\n  swap2\n  pop\n  pop\n  0x01\n  swap1\n  sub\n  swap1\n  0x00\n  mstore\n  keccak256(0x00, 0x20)\n  add\n  0x00\n  mload(0x40)\n  dup1\n  0x60\n  add\n  0x40\n  mstore\n  dup1\n  0x3c\n  dup2\n  mstore\n  0x20\n  add\n  data_1cf0acdcc8c1cf9110f5a26597d6f5fee07f3769a983e9854c1230fe472e8787\n  0x3c\n  swap2\n  codecopy\n  swap1\n  swap2\n  swap1\n  swap2\n  pop\n  swap1\n  dup2\n  tag_48\n  swap2\n  swap1\n  tag_6\n  jump\t// in\ntag_48:\n  pop\n    /* \"FortuneCookie.sol\":2191:2199  fortunes */\n  0x00\n    /* \"FortuneCookie.sol\":2191:2244  fortunes.push(\"Your decentralized future is bright.\") */\n  dup1\n  0x01\n  dup2\n  sload\n  add\n  dup1\n  dup3\n  sstore\n  dup1\n  swap2\n  pop\n  pop\n  0x01\n  swap1\n  sub\n  swap1\n  0x00\n  mstore\n  keccak256(0x00, 0x20)\n  add\n  0x00\n  mload(0x40)\n  dup1\n  0x60\n  add\n  0x40\n  mstore\n  dup1\n  0x24\n  dup2\n  mstore\n  0x20\n  add\n  data_74708da224d76151d055f208df9ed96e61ab41985c1cb0bbf7b0185996a9070d\n  0x24\n  swap2\n  codecopy\n  swap1\n  swap2\n  swap1\n  swap2\n  pop\n  swap1\n  dup2\n  tag_50\n  swap2\n  swap1\n  tag_6\n  jump\t// in\ntag_50:\n  pop\n    /* \"FortuneCookie.sol\":2255:2263  fortunes */\n  0x00\n    /* \"FortuneCookie.sol\":2255:2317  fortunes.push(\"Trust the immutable nature of your decisions.\") */\n  dup1\n  0x01\n  dup2\n  sload\n  add\n  dup1\n  dup3\n  sstore\n  dup1\n  swap2\n  pop\n  pop\n  0x01\n  swap1\n  sub\n  swap1\n  0x00\n  mstore\n  keccak256(0x00, 0x20)\n  add\n  0x00\n  mload(0x40)\n  dup1\n  0x60\n  add\n  0x40\n  mstore\n  dup1\n  0x2d\n  dup2\n  mstore\n  0x20\n  add\n  data_c5714f16343d258568bec5703fe2358f1a2f4025bb6793fde3be297842bb21d2\n  0x2d\n  swap2\n  codecopy\n  swap1\n  swap2\n  swap1\n  swap2\n  pop\n  swap1\n  dup2\n  tag_52\n  swap2\n  swap1\n  tag_6\n  jump\t// in\ntag_52:\n  pop\n    /* \"FortuneCookie.sol\":2328:2336  fortunes */\n  0x00\n    /* \"FortuneCookie.sol\":2328:2392  fortunes.push(\"A private key is like a secret - guard it well.\") */\n  dup1\n  0x01\n  dup2\n  sload\n  add\n  dup1\n  dup3\n  sstore\n  dup1\n  swap2\n  pop\n  pop\n  0x01\n  swap1\n  sub\n  swap1\n  0x00\n  mstore\n  keccak256(0x00, 0x20)\n  add\n  0x00\n  mload(0x40)\n  dup1\n  0x60\n  add\n  0x40\n  mstore\n  dup1\n  0x2f\n  dup2\n  mstore\n  0x20\n  add\n  data_d2fd92bb5881c3a2d7e25edef85d981484be349cc9a598d33bd2fb9cf7dd3349\n  0x2f\n  swap2\n  codecopy\n  swap1\n  swap2\n  swap1\n  swap2\n  pop\n  swap1\n  dup2\n  tag_54\n  swap2\n  swap1\n  tag_6\n  jump\t// in\ntag_54:\n  pop\n    /* \"FortuneCookie.sol\":2403:2411  fortunes */\n  0x00\n    /* \"FortuneCookie.sol\":2403:2466  fortunes.push(\"Consensus will be reached in your favor today.\") */\n  dup1\n  0x01\n  dup2\n  sload\n  add\n  dup1\n  dup3\n  sstore\n  dup1\n  swap2\n  pop\n  pop\n  0x01\n  swap1\n  sub\n  swap1\n  0x00\n  mstore\n  keccak256(0x00, 0x20)\n  add\n  0x00\n  mload(0x40)\n  dup1\n  0x60\n  add\n  0x40\n  mstore\n  dup1\n  0x2e\n  dup2\n  mstore\n  0x20\n  add\n  data_c8c4b39639c8651b95456597691b0394c21d17ba5e28edb124ecc3dee5ec35e3\n  0x2e\n  swap2\n  codecopy\n  swap1\n  swap2\n  swap1\n  swap2\n  pop\n  swap1\n  dup2\n  tag_56\n  swap2\n  swap1\n  tag_6\n  jump\t// in\ntag_56:\n  pop\n    /* \"FortuneCookie.sol\":2477:2485  fortunes */\n  0x00\n    /* \"FortuneCookie.sol\":2477:2551  fortunes.push(\"The hash of your efforts will result in valuable rewards.\") */\n  dup1\n  0x01\n  dup2\n  sload\n  add\n  dup1\n  dup3\n  sstore\n  dup1\n  swap2\n  pop\n  pop\n  0x01\n  swap1\n  sub\n  swap1\n  0x00\n  mstore\n  keccak256(0x00, 0x20)\n  add\n  0x00\n  mload(0x40)\n  dup1\n  0x60\n  add\n  0x40\n  mstore\n  dup1\n  0x39\n  dup2\n  mstore\n  0x20\n  add\n  data_7f6ab57e70a76dcb80c5f4e2c5fb5d7beefea736781406ce91e5ef640535ea4f\n  0x39\n  swap2\n  codecopy\n  swap1\n  swap2\n  swap1\n  swap2\n  pop\n  swap1\n  dup2\n  tag_58\n  swap2\n  swap1\n  tag_6\n  jump\t// in\ntag_58:\n  pop\n    /* \"FortuneCookie.sol\":2562:2570  fortunes */\n  0x00\n    /* \"FortuneCookie.sol\":2562:2628  fortunes.push(\"Your transaction will confirm in unexpected ways.\") */\n  dup1\n  0x01\n  dup2\n  sload\n  add\n  dup1\n  dup3\n  sstore\n  dup1\n  swap2\n  pop\n  pop\n  0x01\n  swap1\n  sub\n  swap1\n  0x00\n  mstore\n  keccak256(0x00, 0x20)\n  add\n  0x00\n  mload(0x40)\n  dup1\n  0x60\n  add\n  0x40\n  mstore\n  dup1\n  0x31\n  dup2\n  mstore\n  0x20\n  add\n  data_b2a2ea3ac9abb85a63b117005afb3b7960a6315269336b392d7b1ab8dd72a248\n  0x31\n  swap2\n  codecopy\n  swap1\n  swap2\n  swap1\n  swap2\n  pop\n  swap1\n  dup2\n  tag_60\n  swap2\n  swap1\n  tag_6\n  jump\t// in\ntag_60:\n  pop\n    /* \"FortuneCookie.sol\":2639:2647  fortunes */\n  0x00\n    /* \"FortuneCookie.sol\":2639:2697  fortunes.push(\"Don't wait for gas fees to drop. Act now.\") */\n  dup1\n  0x01\n  dup2\n  sload\n  add\n  dup1\n  dup3\n  sstore\n  dup1\n  swap2\n  pop\n  pop\n  0x01\n  swap1\n  sub\n  swap1\n  0x00\n  mstore\n  keccak256(0x00, 0x20)\n  add\n  0x00\n  mload(0x40)\n  dup1\n  0x60\n  add\n  0x40\n  mstore\n  dup1\n  0x29\n  dup2\n  mstore\n  0x20\n  add\n  data_d02ebc1287f4027fd6f26e175b1460a0b4a6030b4e72f8591ce3387104513ef6\n  0x29\n  swap2\n  codecopy\n  swap1\n  swap2\n  swap1\n  swap2\n  pop\n  swap1\n  dup2\n  tag_62\n  swap2\n  swap1\n  tag_6\n  jump\t// in\ntag_62:\n  pop\n    /* \"FortuneCookie.sol\":2708:2716  fortunes */\n  0x00\n    /* \"FortuneCookie.sol\":2708:2780  fortunes.push(\"Your personal blockchain is adding blocks of happiness.\") */\n  dup1\n  0x01\n  dup2\n  sload\n  add\n  dup1\n  dup3\n  sstore\n  dup1\n  swap2\n  pop\n  pop\n  0x01\n  swap1\n  sub\n  swap1\n  0x00\n  mstore\n  keccak256(0x00, 0x20)\n  add\n  0x00\n  mload(0x40)\n  dup1\n  0x60\n  add\n  0x40\n  mstore\n  dup1\n  0x37\n  dup2\n  mstore\n  0x20\n  add\n  data_74d04f75dac30539948c8fc9b9300683e921a37b392bc7366278af513ca61f04\n  0x37\n  swap2\n  codecopy\n  swap1\n  swap2\n  swap1\n  swap2\n  pop\n  swap1\n  dup2\n  tag_64\n  swap2\n  swap1\n  tag_6\n  jump\t// in\ntag_64:\n  pop\n    /* \"FortuneCookie.sol\":2791:2799  fortunes */\n  0x00\n    /* \"FortuneCookie.sol\":2791:2858  fortunes.push(\"Today's merge will resolve your conflicting paths.\") */\n  dup1\n  0x01\n  dup2\n  sload\n  add\n  dup1\n  dup3\n  sstore\n  dup1\n  swap2\n  pop\n  pop\n  0x01\n  swap1\n  sub\n  swap1\n  0x00\n  mstore\n  keccak256(0x00, 0x20)\n  add\n  0x00\n  mload(0x40)\n  dup1\n  0x60\n  add\n  0x40\n  mstore\n  dup1\n  0x32\n  dup2\n  mstore\n  0x20\n  add\n  data_ed1a825799a4868fedf6edb24711e5daed5125426eb35e38d3839bfa15ba4a24\n  0x32\n  swap2\n  codecopy\n  swap1\n  swap2\n  swap1\n  swap2\n  pop\n  swap1\n  dup2\n  tag_66\n  swap2\n  swap1\n  tag_6\n  jump\t// in\ntag_66:\n  pop\n    /* \"FortuneCookie.sol\":2869:2877  fortunes */\n  0x00\n    /* \"FortuneCookie.sol\":2869:2924  fortunes.push(\"Stake your claim in what matters most.\") */\n  dup1\n  0x01\n  dup2\n  sload\n  add\n  dup1\n  dup3\n  sstore\n  dup1\n  swap2\n  pop\n  pop\n  0x01\n  swap1\n  sub\n  swap1\n  0x00\n  mstore\n  keccak256(0x00, 0x20)\n  add\n  0x00\n  mload(0x40)\n  dup1\n  0x60\n  add\n  0x40\n  mstore\n  dup1\n  0x26\n  dup2\n  mstore\n  0x20\n  add\n  data_ae7b3e9091bf3a99048a740bb9ea2bf3c44f39e8f613a2d0dd0f8a15b7f127f4\n  0x26\n  swap2\n  codecopy\n  swap1\n  swap2\n  swap1\n  swap2\n  pop\n  swap1\n  dup2\n  tag_68\n  swap2\n  swap1\n  tag_6\n  jump\t// in\ntag_68:\n  pop\n    /* \"FortuneCookie.sol\":2935:2943  fortunes */\n  0x00\n    /* \"FortuneCookie.sol\":2935:3017  fortunes.push(\"Patience is a virtue, especially while waiting for confirmations.\") */\n  dup1\n  0x01\n  dup2\n  sload\n  add\n  dup1\n  dup3\n  sstore\n  dup1\n  swap2\n  pop\n  pop\n  0x01\n  swap1\n  sub\n  swap1\n  0x00\n  mstore\n  keccak256(0x00, 0x20)\n  add\n  0x00\n  mload(0x40)\n  dup1\n  0x80\n  add\n  0x40\n  mstore\n  dup1\n  0x41\n  dup2\n  mstore\n  0x20\n  add\n  data_5f0ee41e238bba97f6af16c440b3907aa8d15331832471891fa17d0147a3d6eb\n  0x41\n  swap2\n  codecopy\n  swap1\n  swap2\n  swap1\n  swap2\n  pop\n  swap1\n  dup2\n  tag_70\n  swap2\n  swap1\n  tag_6\n  jump\t// in\ntag_70:\n  pop\n    /* \"FortuneCookie.sol\":3028:3036  fortunes */\n  0x00\n    /* \"FortuneCookie.sol\":3028:3083  fortunes.push(\"The oracle says your future is bright.\") */\n  dup1\n  0x01\n  dup2\n  sload\n  add\n  dup1\n  dup3\n  sstore\n  dup1\n  swap2\n  pop\n  pop\n  0x01\n  swap1\n  sub\n  swap1\n  0x00\n  mstore\n  keccak256(0x00, 0x20)\n  add\n  0x00\n  mload(0x40)\n  dup1\n  0x60\n  add\n  0x40\n  mstore\n  dup1\n  0x26\n  dup2\n  mstore\n  0x20\n  add\n  data_20e786c50c6ffc613a22fdd3860fba5fc2701a302f45b81cdd9b596a08d071a2\n  0x26\n  swap2\n  codecopy\n  swap1\n  swap2\n  swap1\n  swap2\n  pop\n  swap1\n  dup2\n  tag_72\n  swap2\n  swap1\n  tag_6\n  jump\t// in\ntag_72:\n  pop\n    /* \"FortuneCookie.sol\":3094:3102  fortunes */\n  0x00\n    /* \"FortuneCookie.sol\":3094:3165  fortunes.push(\"A soft fork in your path will lead to better outcomes.\") */\n  dup1\n  0x01\n  dup2\n  sload\n  add\n  dup1\n  dup3\n  sstore\n  dup1\n  swap2\n  pop\n  pop\n  0x01\n  swap1\n  sub\n  swap1\n  0x00\n  mstore\n  keccak256(0x00, 0x20)\n  add\n  0x00\n  mload(0x40)\n  dup1\n  0x60\n  add\n  0x40\n  mstore\n  dup1\n  0x36\n  dup2\n  mstore\n  0x20\n  add\n  data_18b7ece684684ba1f6489014bcbe1e041c638b1c9f5592676737053fd2437c65\n  0x36\n  swap2\n  codecopy\n  swap1\n  swap2\n  swap1\n  swap2\n  pop\n  swap1\n  dup2\n  tag_74\n  swap2\n  swap1\n  tag_6\n  jump\t// in\ntag_74:\n  pop\n    /* \"FortuneCookie.sol\":3176:3184  fortunes */\n  0x00\n    /* \"FortuneCookie.sol\":3176:3245  fortunes.push(\"Your public address will attract positive attention.\") */\n  dup1\n  0x01\n  dup2\n  sload\n  add\n  dup1\n  dup3\n  sstore\n  dup1\n  swap2\n  pop\n  pop\n  0x01\n  swap1\n  sub\n  swap1\n  0x00\n  mstore\n  keccak256(0x00, 0x20)\n  add\n  0x00\n  mload(0x40)\n  dup1\n  0x60\n  add\n  0x40\n  mstore\n  dup1\n  0x34\n  dup2\n  mstore\n  0x20\n  add\n  data_66cd18d798509659cd1c9bf48b4735c7bac94c1f7f877c93dc229f1582854c85\n  0x34\n  swap2\n  codecopy\n  swap1\n  swap2\n  swap1\n  swap2\n  pop\n  swap1\n  dup2\n  tag_76\n  swap2\n  swap1\n  tag_6\n  jump\t// in\ntag_76:\n  pop\n    /* \"FortuneCookie.sol\":3256:3264  fortunes */\n  0x00\n    /* \"FortuneCookie.sol\":3256:3316  fortunes.push(\"The next block will bring you good fortune.\") */\n  dup1\n  0x01\n  dup2\n  sload\n  add\n  dup1\n  dup3\n  sstore\n  dup1\n  swap2\n  pop\n  pop\n  0x01\n  swap1\n  sub\n  swap1\n  0x00\n  mstore\n  keccak256(0x00, 0x20)\n  add\n  0x00\n  mload(0x40)\n  dup1\n  0x60\n  add\n  0x40\n  mstore\n  dup1\n  0x2b\n  dup2\n  mstore\n  0x20\n  add\n  data_d7b5513ea54359375a32f77c231568f1e7f8cfdceae2b5a14b7b710bfce2e383\n  0x2b\n  swap2\n  codecopy\n  swap1\n  swap2\n  swap1\n  swap2\n  pop\n  swap1\n  dup2\n  tag_78\n  swap2\n  swap1\n  tag_6\n  jump\t// in\ntag_78:\n  pop\n    /* \"FortuneCookie.sol\":3327:3335  fortunes */\n  0x00\n    /* \"FortuneCookie.sol\":3327:3400  fortunes.push(\"Your distributed efforts will yield centralized success.\") */\n  dup1\n  0x01\n  dup2\n  sload\n  add\n  dup1\n  dup3\n  sstore\n  dup1\n  swap2\n  pop\n  pop\n  0x01\n  swap1\n  sub\n  swap1\n  0x00\n  mstore\n  keccak256(0x00, 0x20)\n  add\n  0x00\n  mload(0x40)\n  dup1\n  0x60\n  add\n  0x40\n  mstore\n  dup1\n  0x38\n  dup2\n  mstore\n  0x20\n  add\n  data_8b410ba87140a847247ba5073418e0958003e49264b9ff6518f93f8500b8c652\n  0x38\n  swap2\n  codecopy\n  swap1\n  swap2\n  swap1\n  swap2\n  pop\n  swap1\n  dup2\n  tag_80\n  swap2\n  swap1\n  tag_6\n  jump\t// in\ntag_80:\n  pop\n    /* \"FortuneCookie.sol\":3411:3419  fortunes */\n  0x00\n    /* \"FortuneCookie.sol\":3411:3462  fortunes.push(\"Verify, then trust your instincts.\") */\n  dup1\n  0x01\n  dup2\n  sload\n  add\n  dup1\n  dup3\n  sstore\n  dup1\n  swap2\n  pop\n  pop\n  0x01\n  swap1\n  sub\n  swap1\n  0x00\n  mstore\n  keccak256(0x00, 0x20)\n  add\n  0x00\n  mload(0x40)\n  dup1\n  0x60\n  add\n  0x40\n  mstore\n  dup1\n  0x22\n  dup2\n  mstore\n  0x20\n  add\n  data_6e950a3bcaa5159701d759c66c640c30088410ac98a906c325faf585c022a210\n  0x22\n  swap2\n  codecopy\n  swap1\n  swap2\n  swap1\n  swap2\n  pop\n  swap1\n  dup2\n  tag_82\n  swap2\n  swap1\n  tag_6\n  jump\t// in\ntag_82:\n  pop\n    /* \"FortuneCookie.sol\":3473:3481  fortunes */\n  0x00\n    /* \"FortuneCookie.sol\":3473:3531  fortunes.push(\"Your signature is unique - use it wisely.\") */\n  dup1\n  0x01\n  dup2\n  sload\n  add\n  dup1\n  dup3\n  sstore\n  dup1\n  swap2\n  pop\n  pop\n  0x01\n  swap1\n  sub\n  swap1\n  0x00\n  mstore\n  keccak256(0x00, 0x20)\n  add\n  0x00\n  mload(0x40)\n  dup1\n  0x60\n  add\n  0x40\n  mstore\n  dup1\n  0x29\n  dup2\n  mstore\n  0x20\n  add\n  data_6fa29e3864043d24c722810ba2c5494914db8cafb1ab3ec67e348c1922daaff1\n  0x29\n  swap2\n  codecopy\n  swap1\n  swap2\n  swap1\n  swap2\n  pop\n  swap1\n  dup2\n  tag_84\n  swap2\n  swap1\n  tag_6\n  jump\t// in\ntag_84:\n  pop\n    /* \"FortuneCookie.sol\":3542:3550  fortunes */\n  0x00\n    /* \"FortuneCookie.sol\":3542:3610  fortunes.push(\"A genesis of new ideas will transform your project.\") */\n  dup1\n  0x01\n  dup2\n  sload\n  add\n  dup1\n  dup3\n  sstore\n  dup1\n  swap2\n  pop\n  pop\n  0x01\n  swap1\n  sub\n  swap1\n  0x00\n  mstore\n  keccak256(0x00, 0x20)\n  add\n  0x00\n  mload(0x40)\n  dup1\n  0x60\n  add\n  0x40\n  mstore\n  dup1\n  0x33\n  dup2\n  mstore\n  0x20\n  add\n  data_f90a486a2cf03fd0b88ebc98dfdc62ba0a0f63c2a149448aed1dfdff55ba93d2\n  0x33\n  swap2\n  codecopy\n  swap1\n  swap2\n  swap1\n  swap2\n  pop\n  swap1\n  dup2\n  tag_86\n  swap2\n  swap1\n  tag_6\n  jump\t// in\ntag_86:\n  pop\n    /* \"FortuneCookie.sol\":3621:3629  fortunes */\n  0x00\n    /* \"FortuneCookie.sol\":3621:3691  fortunes.push(\"When in doubt, commit to the main chain of your life.\") */\n  dup1\n  0x01\n  dup2\n  sload\n  add\n  dup1\n  dup3\n  sstore\n  dup1\n  swap2\n  pop\n  pop\n  0x01\n  swap1\n  sub\n  swap1\n  0x00\n  mstore\n  keccak256(0x00, 0x20)\n  add\n  0x00\n  mload(0x40)\n  dup1\n  0x60\n  add\n  0x40\n  mstore\n  dup1\n  0x35\n  dup2\n  mstore\n  0x20\n  add\n  data_a43f2c3aee6cccc0322cef8c6a038085ef6020a29b60ef55e9f3d5e2846df2b5\n  0x35\n  swap2\n  codecopy\n  swap1\n  swap2\n  swap1\n  swap2\n  pop\n  swap1\n  dup2\n  tag_88\n  swap2\n  swap1\n  tag_6\n  jump\t// in\ntag_88:\n  pop\n    /* \"FortuneCookie.sol\":3702:3710  fortunes */\n  0x00\n    /* \"FortuneCookie.sol\":3702:3769  fortunes.push(\"The proof of your work is becoming evident to all.\") */\n  dup1\n  0x01\n  dup2\n  sload\n  add\n  dup1\n  dup3\n  sstore\n  dup1\n  swap2\n  pop\n  pop\n  0x01\n  swap1\n  sub\n  swap1\n  0x00\n  mstore\n  keccak256(0x00, 0x20)\n  add\n  0x00\n  mload(0x40)\n  dup1\n  0x60\n  add\n  0x40\n  mstore\n  dup1\n  0x32\n  dup2\n  mstore\n  0x20\n  add\n  data_4704e460e2caf4576cc5ce0202005da2617e7658e92b2eb2a9e9e8748e911b16\n  0x32\n  swap2\n  codecopy\n  swap1\n  swap2\n  swap1\n  swap2\n  pop\n  swap1\n  dup2\n  tag_90\n  swap2\n  swap1\n  tag_6\n  jump\t// in\ntag_90:\n  pop\n    /* \"FortuneCookie.sol\":3780:3788  fortunes */\n  0x00\n    /* \"FortuneCookie.sol\":3780:3840  fortunes.push(\"Your ledger of good deeds will be rewarded.\") */\n  dup1\n  0x01\n  dup2\n  sload\n  add\n  dup1\n  dup3\n  sstore\n  dup1\n  swap2\n  pop\n  pop\n  0x01\n  swap1\n  sub\n  swap1\n  0x00\n  mstore\n  keccak256(0x00, 0x20)\n  add\n  0x00\n  mload(0x40)\n  dup1\n  0x60\n  add\n  0x40\n  mstore\n  dup1\n  0x2b\n  dup2\n  mstore\n  0x20\n  add\n  data_1b87947bd422863351ad64fd75e508a23785add59dcc1591c647c0d01010c125\n  0x2b\n  swap2\n  codecopy\n  swap1\n  swap2\n  swap1\n  swap2\n  pop\n  swap1\n  dup2\n  tag_92\n  swap2\n  swap1\n  tag_6\n  jump\t// in\ntag_92:\n  pop\n    /* \"FortuneCookie.sol\":3851:3859  fortunes */\n  0x00\n    /* \"FortuneCookie.sol\":3851:3919  fortunes.push(\"Sometimes the best validator is your own intuition.\") */\n  dup1\n  0x01\n  dup2\n  sload\n  add\n  dup1\n  dup3\n  sstore\n  dup1\n  swap2\n  pop\n  pop\n  0x01\n  swap1\n  sub\n  swap1\n  0x00\n  mstore\n  keccak256(0x00, 0x20)\n  add\n  0x00\n  mload(0x40)\n  dup1\n  0x60\n  add\n  0x40\n  mstore\n  dup1\n  0x33\n  dup2\n  mstore\n  0x20\n  add\n  data_c3c69c47c50a3317102e628506ad29a5114c55fd5b1e1833af6461e7d4ab2268\n  0x33\n  swap2\n  codecopy\n  swap1\n  swap2\n  swap1\n  swap2\n  pop\n  swap1\n  dup2\n  tag_94\n  swap2\n  swap1\n  tag_6\n  jump\t// in\ntag_94:\n  pop\n    /* \"FortuneCookie.sol\":3930:3938  fortunes */\n  0x00\n    /* \"FortuneCookie.sol\":3930:3994  fortunes.push(\"A consensus is building around your leadership.\") */\n  dup1\n  0x01\n  dup2\n  sload\n  add\n  dup1\n  dup3\n  sstore\n  dup1\n  swap2\n  pop\n  pop\n  0x01\n  swap1\n  sub\n  swap1\n  0x00\n  mstore\n  keccak256(0x00, 0x20)\n  add\n  0x00\n  mload(0x40)\n  dup1\n  0x60\n  add\n  0x40\n  mstore\n  dup1\n  0x2f\n  dup2\n  mstore\n  0x20\n  add\n  data_e4d6a6d214b2a33fb2a5b1ac96787545e70fe2ce1652fbfeee90b77d52fc0459\n  0x2f\n  swap2\n  codecopy\n  swap1\n  swap2\n  swap1\n  swap2\n  pop\n  swap1\n  dup2\n  tag_96\n  swap2\n  swap1\n  tag_6\n  jump\t// in\ntag_96:\n  pop\n    /* \"FortuneCookie.sol\":4005:4013  fortunes */\n  0x00\n    /* \"FortuneCookie.sol\":4005:4061  fortunes.push(\"Your tokenomics are perfectly balanced.\") */\n  dup1\n  0x01\n  dup2\n  sload\n  add\n  dup1\n  dup3\n  sstore\n  dup1\n  swap2\n  pop\n  pop\n  0x01\n  swap1\n  sub\n  swap1\n  0x00\n  mstore\n  keccak256(0x00, 0x20)\n  add\n  0x00\n  mload(0x40)\n  dup1\n  0x60\n  add\n  0x40\n  mstore\n  dup1\n  0x27\n  dup2\n  mstore\n  0x20\n  add\n  data_8307fe173bde2f69f11add6e819ea3e6ae1b654b48e8f067dc446ca9a4b655c6\n  0x27\n  swap2\n  codecopy\n  swap1\n  swap2\n  swap1\n  swap2\n  pop\n  swap1\n  dup2\n  tag_98\n  swap2\n  swap1\n  tag_6\n  jump\t// in\ntag_98:\n  pop\n    /* \"FortuneCookie.sol\":4072:4080  fortunes */\n  0x00\n    /* \"FortuneCookie.sol\":4072:4140  fortunes.push(\"The next hard fork in your life will be beneficial.\") */\n  dup1\n  0x01\n  dup2\n  sload\n  add\n  dup1\n  dup3\n  sstore\n  dup1\n  swap2\n  pop\n  pop\n  0x01\n  swap1\n  sub\n  swap1\n  0x00\n  mstore\n  keccak256(0x00, 0x20)\n  add\n  0x00\n  mload(0x40)\n  dup1\n  0x60\n  add\n  0x40\n  mstore\n  dup1\n  0x33\n  dup2\n  mstore\n  0x20\n  add\n  data_e46b67144b57fd4896a6df754129bd03be91f01821edd323e70a8f450fa74554\n  0x33\n  swap2\n  codecopy\n  swap1\n  swap2\n  swap1\n  swap2\n  pop\n  swap1\n  dup2\n  tag_100\n  swap2\n  swap1\n  tag_6\n  jump\t// in\ntag_100:\n  pop\n    /* \"FortuneCookie.sol\":4151:4159  fortunes */\n  0x00\n    /* \"FortuneCookie.sol\":4151:4204  fortunes.push(\"Good things come to those who stake.\") */\n  dup1\n  0x01\n  dup2\n  sload\n  add\n  dup1\n  dup3\n  sstore\n  dup1\n  swap2\n  pop\n  pop\n  0x01\n  swap1\n  sub\n  swap1\n  0x00\n  mstore\n  keccak256(0x00, 0x20)\n  add\n  0x00\n  mload(0x40)\n  dup1\n  0x60\n  add\n  0x40\n  mstore\n  dup1\n  0x24\n  dup2\n  mstore\n  0x20\n  add\n  data_0ad200439ae9188933fddd0844394b7d8a71d65aff97a6e29d4c665dea62613e\n  0x24\n  swap2\n  codecopy\n  swap1\n  swap2\n  swap1\n  swap2\n  pop\n  swap1\n  dup2\n  tag_102\n  swap2\n  swap1\n  tag_6\n  jump\t// in\ntag_102:\n  pop\n    /* \"FortuneCookie.sol\":4215:4223  fortunes */\n  0x00\n    /* \"FortuneCookie.sol\":4215:4272  fortunes.push(\"Your mining efforts won't go unrewarded.\") */\n  dup1\n  0x01\n  dup2\n  sload\n  add\n  dup1\n  dup3\n  sstore\n  dup1\n  swap2\n  pop\n  pop\n  0x01\n  swap1\n  sub\n  swap1\n  0x00\n  mstore\n  keccak256(0x00, 0x20)\n  add\n  0x00\n  mload(0x40)\n  dup1\n  0x60\n  add\n  0x40\n  mstore\n  dup1\n  0x28\n  dup2\n  mstore\n  0x20\n  add\n  data_40d464df8e83d7e1a215d293a3f4c1d04aa1af7889203e79652a331b3e31119d\n  0x28\n  swap2\n  codecopy\n  swap1\n  swap2\n  swap1\n  swap2\n  pop\n  swap1\n  dup2\n  tag_104\n  swap2\n  swap1\n  tag_6\n  jump\t// in\ntag_104:\n  pop\n    /* \"FortuneCookie.sol\":60:5203  contract FortuneCookie {... */\n  jump(tag_105)\n    /* \"#utility.yul\":7:106   */\ntag_106:\n    /* \"#utility.yul\":59:65   */\n  0x00\n    /* \"#utility.yul\":93:98   */\n  dup2\n    /* \"#utility.yul\":87:99   */\n  mload\n    /* \"#utility.yul\":77:99   */\n  swap1\n  pop\n    /* \"#utility.yul\":7:106   */\n  swap2\n  swap1\n  pop\n  jump\t// out\n    /* \"#utility.yul\":112:292   */\ntag_107:\n    /* \"#utility.yul\":160:237   */\n  0x4e487b7100000000000000000000000000000000000000000000000000000000\n    /* \"#utility.yul\":157:158   */\n  0x00\n    /* \"#utility.yul\":150:238   */\n  mstore\n    /* \"#utility.yul\":257:261   */\n  0x41\n    /* \"#utility.yul\":254:255   */\n  0x04\n    /* \"#utility.yul\":247:262   */\n  mstore\n    /* \"#utility.yul\":281:285   */\n  0x24\n    /* \"#utility.yul\":278:279   */\n  0x00\n    /* \"#utility.yul\":271:286   */\n  revert\n    /* \"#utility.yul\":298:478   */\ntag_108:\n    /* \"#utility.yul\":346:423   */\n  0x4e487b7100000000000000000000000000000000000000000000000000000000\n    /* \"#utility.yul\":343:344   */\n  0x00\n    /* \"#utility.yul\":336:424   */\n  mstore\n    /* \"#utility.yul\":443:447   */\n  0x22\n    /* \"#utility.yul\":440:441   */\n  0x04\n    /* \"#utility.yul\":433:448   */\n  mstore\n    /* \"#utility.yul\":467:471   */\n  0x24\n    /* \"#utility.yul\":464:465   */\n  0x00\n    /* \"#utility.yul\":457:472   */\n  revert\n    /* \"#utility.yul\":484:804   */\ntag_109:\n    /* \"#utility.yul\":528:534   */\n  0x00\n    /* \"#utility.yul\":565:566   */\n  0x02\n    /* \"#utility.yul\":559:563   */\n  dup3\n    /* \"#utility.yul\":555:567   */\n  div\n    /* \"#utility.yul\":545:567   */\n  swap1\n  pop\n    /* \"#utility.yul\":612:613   */\n  0x01\n    /* \"#utility.yul\":606:610   */\n  dup3\n    /* \"#utility.yul\":602:614   */\n  and\n    /* \"#utility.yul\":633:651   */\n  dup1\n    /* \"#utility.yul\":623:704   */\n  tag_131\n  jumpi\n    /* \"#utility.yul\":689:693   */\n  0x7f\n    /* \"#utility.yul\":681:687   */\n  dup3\n    /* \"#utility.yul\":677:694   */\n  and\n    /* \"#utility.yul\":667:694   */\n  swap2\n  pop\n    /* \"#utility.yul\":623:704   */\ntag_131:\n    /* \"#utility.yul\":751:753   */\n  0x20\n    /* \"#utility.yul\":743:749   */\n  dup3\n    /* \"#utility.yul\":740:754   */\n  lt\n    /* \"#utility.yul\":720:738   */\n  dup2\n    /* \"#utility.yul\":717:755   */\n  sub\n    /* \"#utility.yul\":714:798   */\n  tag_132\n  jumpi\n    /* \"#utility.yul\":770:788   */\n  tag_133\n  tag_108\n  jump\t// in\ntag_133:\n    /* \"#utility.yul\":714:798   */\ntag_132:\n    /* \"#utility.yul\":535:804   */\n  pop\n    /* \"#utility.yul\":484:804   */\n  swap2\n  swap1\n  pop\n  jump\t// out\n    /* \"#utility.yul\":810:951   */\ntag_110:\n    /* \"#utility.yul\":859:863   */\n  0x00\n    /* \"#utility.yul\":882:885   */\n  dup2\n    /* \"#utility.yul\":874:885   */\n  swap1\n  pop\n    /* \"#utility.yul\":905:908   */\n  dup2\n    /* \"#utility.yul\":902:903   */\n  0x00\n    /* \"#utility.yul\":895:909   */\n  mstore\n    /* \"#utility.yul\":939:943   */\n  0x20\n    /* \"#utility.yul\":936:937   */\n  0x00\n    /* \"#utility.yul\":926:944   */\n  keccak256\n    /* \"#utility.yul\":918:944   */\n  swap1\n  pop\n    /* \"#utility.yul\":810:951   */\n  swap2\n  swap1\n  pop\n  jump\t// out\n    /* \"#utility.yul\":957:1050   */\ntag_111:\n    /* \"#utility.yul\":994:1000   */\n  0x00\n    /* \"#utility.yul\":1041:1043   */\n  0x20\n    /* \"#utility.yul\":1036:1038   */\n  0x1f\n    /* \"#utility.yul\":1029:1034   */\n  dup4\n    /* \"#utility.yul\":1025:1039   */\n  add\n    /* \"#utility.yul\":1021:1044   */\n  div\n    /* \"#utility.yul\":1011:1044   */\n  swap1\n  pop\n    /* \"#utility.yul\":957:1050   */\n  swap2\n  swap1\n  pop\n  jump\t// out\n    /* \"#utility.yul\":1056:1163   */\ntag_112:\n    /* \"#utility.yul\":1100:1108   */\n  0x00\n    /* \"#utility.yul\":1150:1155   */\n  dup3\n    /* \"#utility.yul\":1144:1148   */\n  dup3\n    /* \"#utility.yul\":1140:1156   */\n  shl\n    /* \"#utility.yul\":1119:1156   */\n  swap1\n  pop\n    /* \"#utility.yul\":1056:1163   */\n  swap3\n  swap2\n  pop\n  pop\n  jump\t// out\n    /* \"#utility.yul\":1169:1562   */\ntag_113:\n    /* \"#utility.yul\":1238:1244   */\n  0x00\n    /* \"#utility.yul\":1288:1289   */\n  0x08\n    /* \"#utility.yul\":1276:1286   */\n  dup4\n    /* \"#utility.yul\":1272:1290   */\n  mul\n    /* \"#utility.yul\":1311:1408   */\n  tag_138\n    /* \"#utility.yul\":1341:1407   */\n  0xffffffffffffffffffffffffffffffffffffffffffffffffffffffffffffffff\n    /* \"#utility.yul\":1330:1339   */\n  dup3\n    /* \"#utility.yul\":1311:1408   */\n  tag_112\n  jump\t// in\ntag_138:\n    /* \"#utility.yul\":1429:1468   */\n  tag_139\n    /* \"#utility.yul\":1459:1467   */\n  dup7\n    /* \"#utility.yul\":1448:1457   */\n  dup4\n    /* \"#utility.yul\":1429:1468   */\n  tag_112\n  jump\t// in\ntag_139:\n    /* \"#utility.yul\":1417:1468   */\n  swap6\n  pop\n    /* \"#utility.yul\":1501:1505   */\n  dup1\n    /* \"#utility.yul\":1497:1506   */\n  not\n    /* \"#utility.yul\":1490:1495   */\n  dup5\n    /* \"#utility.yul\":1486:1507   */\n  and\n    /* \"#utility.yul\":1477:1507   */\n  swap4\n  pop\n    /* \"#utility.yul\":1550:1554   */\n  dup1\n    /* \"#utility.yul\":1540:1548   */\n  dup7\n    /* \"#utility.yul\":1536:1555   */\n  and\n    /* \"#utility.yul\":1529:1534   */\n  dup5\n    /* \"#utility.yul\":1526:1556   */\n  or\n    /* \"#utility.yul\":1516:1556   */\n  swap3\n  pop\n    /* \"#utility.yul\":1245:1562   */\n  pop\n  pop\n    /* \"#utility.yul\":1169:1562   */\n  swap4\n  swap3\n  pop\n  pop\n  pop\n  jump\t// out\n    /* \"#utility.yul\":1568:1645   */\ntag_114:\n    /* \"#utility.yul\":1605:1612   */\n  0x00\n    /* \"#utility.yul\":1634:1639   */\n  dup2\n    /* \"#utility.yul\":1623:1639   */\n  swap1\n  pop\n    /* \"#utility.yul\":1568:1645   */\n  swap2\n  swap1\n  pop\n  jump\t// out\n    /* \"#utility.yul\":1651:1711   */\ntag_115:\n    /* \"#utility.yul\":1679:1682   */\n  0x00\n    /* \"#utility.yul\":1700:1705   */\n  dup2\n    /* \"#utility.yul\":1693:1705   */\n  swap1\n  pop\n    /* \"#utility.yul\":1651:1711   */\n  swap2\n  swap1\n  pop\n  jump\t// out\n    /* \"#utility.yul\":1717:1859   */\ntag_116:\n    /* \"#utility.yul\":1767:1776   */\n  0x00\n    /* \"#utility.yul\":1800:1853   */\n  tag_143\n    /* \"#utility.yul\":1818:1852   */\n  tag_144\n    /* \"#utility.yul\":1827:1851   */\n  tag_145\n    /* \"#utility.yul\":1845:1850   */\n  dup5\n    /* \"#utility.yul\":1827:1851   */\n  tag_114\n  jump\t// in\ntag_145:\n    /* \"#utility.yul\":1818:1852   */\n  tag_115\n  jump\t// in\ntag_144:\n    /* \"#utility.yul\":1800:1853   */\n  tag_114\n  jump\t// in\ntag_143:\n    /* \"#utility.yul\":1787:1853   */\n  swap1\n  pop\n    /* \"#utility.yul\":1717:1859   */\n  swap2\n  swap1\n  pop\n  jump\t// out\n    /* \"#utility.yul\":1865:1940   */\ntag_117:\n    /* \"#utility.yul\":1908:1911   */\n  0x00\n    /* \"#utility.yul\":1929:1934   */\n  dup2\n    /* \"#utility.yul\":1922:1934   */\n  swap1\n  pop\n    /* \"#utility.yul\":1865:1940   */\n  swap2\n  swap1\n  pop\n  jump\t// out\n    /* \"#utility.yul\":1946:2215   */\ntag_118:\n    /* \"#utility.yul\":2056:2095   */\n  tag_148\n    /* \"#utility.yul\":2087:2094   */\n  dup4\n    /* \"#utility.yul\":2056:2095   */\n  tag_116\n  jump\t// in\ntag_148:\n    /* \"#utility.yul\":2117:2208   */\n  tag_149\n    /* \"#utility.yul\":2166:2207   */\n  tag_150\n    /* \"#utility.yul\":2190:2206   */\n  dup3\n    /* \"#utility.yul\":2166:2207   */\n  tag_117\n  jump\t// in\ntag_150:\n    /* \"#utility.yul\":2158:2164   */\n  dup5\n    /* \"#utility.yul\":2151:2155   */\n  dup5\n    /* \"#utility.yul\":2145:2156   */\n  sload\n    /* \"#utility.yul\":2117:2208   */\n  tag_113\n  jump\t// in\ntag_149:\n    /* \"#utility.yul\":2111:2115   */\n  dup3\n    /* \"#utility.yul\":2104:2209   */\n  sstore\n    /* \"#utility.yul\":2022:2215   */\n  pop\n    /* \"#utility.yul\":1946:2215   */\n  pop\n  pop\n  pop\n  jump\t// out\n    /* \"#utility.yul\":2221:2294   */\ntag_119:\n    /* \"#utility.yul\":2266:2269   */\n  0x00\n    /* \"#utility.yul\":2221:2294   */\n  swap1\n  jump\t// out\n    /* \"#utility.yul\":2300:2489   */\ntag_120:\n    /* \"#utility.yul\":2377:2409   */\n  tag_153\n  tag_119\n  jump\t// in\ntag_153:\n    /* \"#utility.yul\":2418:2483   */\n  tag_154\n    /* \"#utility.yul\":2476:2482   */\n  dup2\n    /* \"#utility.yul\":2468:2474   */\n  dup5\n    /* \"#utility.yul\":2462:2466   */\n  dup5\n    /* \"#utility.yul\":2418:2483   */\n  tag_118\n  jump\t// in\ntag_154:\n    /* \"#utility.yul\":2353:2489   */\n  pop\n    /* \"#utility.yul\":2300:2489   */\n  pop\n  pop\n  jump\t// out\n    /* \"#utility.yul\":2495:2681   */\ntag_121:\n    /* \"#utility.yul\":2555:2675   */\ntag_156:\n    /* \"#utility.yul\":2572:2575   */\n  dup2\n    /* \"#utility.yul\":2565:2570   */\n  dup2\n    /* \"#utility.yul\":2562:2576   */\n  lt\n    /* \"#utility.yul\":2555:2675   */\n  iszero\n  tag_158\n  jumpi\n    /* \"#utility.yul\":2626:2665   */\n  tag_159\n    /* \"#utility.yul\":2663:2664   */\n  0x00\n    /* \"#utility.yul\":2656:2661   */\n  dup3\n    /* \"#utility.yul\":2626:2665   */\n  tag_120\n  jump\t// in\ntag_159:\n    /* \"#utility.yul\":2599:2600   */\n  0x01\n    /* \"#utility.yul\":2592:2597   */\n  dup2\n    /* \"#utility.yul\":2588:2601   */\n  add\n    /* \"#utility.yul\":2579:2601   */\n  swap1\n  pop\n    /* \"#utility.yul\":2555:2675   */\n  jump(tag_156)\ntag_158:\n    /* \"#utility.yul\":2495:2681   */\n  pop\n  pop\n  jump\t// out\n    /* \"#utility.yul\":2687:3230   */\ntag_122:\n    /* \"#utility.yul\":2788:2790   */\n  0x1f\n    /* \"#utility.yul\":2783:2786   */\n  dup3\n    /* \"#utility.yul\":2780:2791   */\n  gt\n    /* \"#utility.yul\":2777:3223   */\n  iszero\n  tag_161\n  jumpi\n    /* \"#utility.yul\":2822:2860   */\n  tag_162\n    /* \"#utility.yul\":2854:2859   */\n  dup2\n    /* \"#utility.yul\":2822:2860   */\n  tag_110\n  jump\t// in\ntag_162:\n    /* \"#utility.yul\":2906:2935   */\n  tag_163\n    /* \"#utility.yul\":2924:2934   */\n  dup5\n    /* \"#utility.yul\":2906:2935   */\n  tag_111\n  jump\t// in\ntag_163:\n    /* \"#utility.yul\":2896:2904   */\n  dup2\n    /* \"#utility.yul\":2892:2936   */\n  add\n    /* \"#utility.yul\":3089:3091   */\n  0x20\n    /* \"#utility.yul\":3077:3087   */\n  dup6\n    /* \"#utility.yul\":3074:3092   */\n  lt\n    /* \"#utility.yul\":3071:3120   */\n  iszero\n  tag_164\n  jumpi\n    /* \"#utility.yul\":3110:3118   */\n  dup2\n    /* \"#utility.yul\":3095:3118   */\n  swap1\n  pop\n    /* \"#utility.yul\":3071:3120   */\ntag_164:\n    /* \"#utility.yul\":3133:3213   */\n  tag_165\n    /* \"#utility.yul\":3189:3211   */\n  tag_166\n    /* \"#utility.yul\":3207:3210   */\n  dup6\n    /* \"#utility.yul\":3189:3211   */\n  tag_111\n  jump\t// in\ntag_166:\n    /* \"#utility.yul\":3179:3187   */\n  dup4\n    /* \"#utility.yul\":3175:3212   */\n  add\n    /* \"#utility.yul\":3162:3173   */\n  dup3\n    /* \"#utility.yul\":3133:3213   */\n  tag_121\n  jump\t// in\ntag_165:\n    /* \"#utility.yul\":2792:3223   */\n  pop\n  pop\n    /* \"#utility.yul\":2777:3223   */\ntag_161:\n    /* \"#utility.yul\":2687:3230   */\n  pop\n  pop\n  pop\n  jump\t// out\n    /* \"#utility.yul\":3236:3353   */\ntag_123:\n    /* \"#utility.yul\":3290:3298   */\n  0x00\n    /* \"#utility.yul\":3340:3345   */\n  dup3\n    /* \"#utility.yul\":3334:3338   */\n  dup3\n    /* \"#utility.yul\":3330:3346   */\n  shr\n    /* \"#utility.yul\":3309:3346   */\n  swap1\n  pop\n    /* \"#utility.yul\":3236:3353   */\n  swap3\n  swap2\n  pop\n  pop\n  jump\t// out\n    /* \"#utility.yul\":3359:3528   */\ntag_124:\n    /* \"#utility.yul\":3403:3409   */\n  0x00\n    /* \"#utility.yul\":3436:3487   */\n  tag_169\n    /* \"#utility.yul\":3484:3485   */\n  0x00\n    /* \"#utility.yul\":3480:3486   */\n  not\n    /* \"#utility.yul\":3472:3477   */\n  dup5\n    /* \"#utility.yul\":3469:3470   */\n  0x08\n    /* \"#utility.yul\":3465:3478   */\n  mul\n    /* \"#utility.yul\":3436:3487   */\n  tag_123\n  jump\t// in\ntag_169:\n    /* \"#utility.yul\":3432:3488   */\n  not\n    /* \"#utility.yul\":3517:3521   */\n  dup1\n    /* \"#utility.yul\":3511:3515   */\n  dup4\n    /* \"#utility.yul\":3507:3522   */\n  and\n    /* \"#utility.yul\":3497:3522   */\n  swap2\n  pop\n    /* \"#utility.yul\":3410:3528   */\n  pop\n    /* \"#utility.yul\":3359:3528   */\n  swap3\n  swap2\n  pop\n  pop\n  jump\t// out\n    /* \"#utility.yul\":3533:3828   */\ntag_125:\n    /* \"#utility.yul\":3609:3613   */\n  0x00\n    /* \"#utility.yul\":3755:3784   */\n  tag_171\n    /* \"#utility.yul\":3780:3783   */\n  dup4\n    /* \"#utility.yul\":3774:3778   */\n  dup4\n    /* \"#utility.yul\":3755:3784   */\n  tag_124\n  jump\t// in\ntag_171:\n    /* \"#utility.yul\":3747:3784   */\n  swap2\n  pop\n    /* \"#utility.yul\":3817:3820   */\n  dup3\n    /* \"#utility.yul\":3814:3815   */\n  0x02\n    /* \"#utility.yul\":3810:3821   */\n  mul\n    /* \"#utility.yul\":3804:3808   */\n  dup3\n    /* \"#utility.yul\":3801:3822   */\n  or\n    /* \"#utility.yul\":3793:3822   */\n  swap1\n  pop\n    /* \"#utility.yul\":3533:3828   */\n  swap3\n  swap2\n  pop\n  pop\n  jump\t// out\n    /* \"#utility.yul\":3833:5228   */\ntag_6:\n    /* \"#utility.yul\":3950:3987   */\n  tag_173\n    /* \"#utility.yul\":3983:3986   */\n  dup3\n    /* \"#utility.yul\":3950:3987   */\n  tag_106\n  jump\t// in\ntag_173:\n    /* \"#utility.yul\":4052:4070   */\n  0xffffffffffffffff\n    /* \"#utility.yul\":4044:4050   */\n  dup2\n    /* \"#utility.yul\":4041:4071   */\n  gt\n    /* \"#utility.yul\":4038:4094   */\n  iszero\n  tag_174\n  jumpi\n    /* \"#utility.yul\":4074:4092   */\n  tag_175\n  tag_107\n  jump\t// in\ntag_175:\n    /* \"#utility.yul\":4038:4094   */\ntag_174:\n    /* \"#utility.yul\":4118:4156   */\n  tag_176\n    /* \"#utility.yul\":4150:4154   */\n  dup3\n    /* \"#utility.yul\":4144:4155   */\n  sload\n    /* \"#utility.yul\":4118:4156   */\n  tag_109\n  jump\t// in\ntag_176:\n    /* \"#utility.yul\":4203:4270   */\n  tag_177\n    /* \"#utility.yul\":4263:4269   */\n  dup3\n    /* \"#utility.yul\":4255:4261   */\n  dup3\n    /* \"#utility.yul\":4249:4253   */\n  dup6\n    /* \"#utility.yul\":4203:4270   */\n  tag_122\n  jump\t// in\ntag_177:\n    /* \"#utility.yul\":4297:4298   */\n  0x00\n    /* \"#utility.yul\":4321:4325   */\n  0x20\n    /* \"#utility.yul\":4308:4325   */\n  swap1\n  pop\n    /* \"#utility.yul\":4353:4355   */\n  0x1f\n    /* \"#utility.yul\":4345:4351   */\n  dup4\n    /* \"#utility.yul\":4342:4356   */\n  gt\n    /* \"#utility.yul\":4370:4371   */\n  0x01\n    /* \"#utility.yul\":4365:4983   */\n  dup2\n  eq\n  tag_179\n  jumpi\n    /* \"#utility.yul\":5027:5028   */\n  0x00\n    /* \"#utility.yul\":5044:5050   */\n  dup5\n    /* \"#utility.yul\":5041:5118   */\n  iszero\n  tag_180\n  jumpi\n    /* \"#utility.yul\":5093:5102   */\n  dup3\n    /* \"#utility.yul\":5088:5091   */\n  dup8\n    /* \"#utility.yul\":5084:5103   */\n  add\n    /* \"#utility.yul\":5078:5104   */\n  mload\n    /* \"#utility.yul\":5069:5104   */\n  swap1\n  pop\n    /* \"#utility.yul\":5041:5118   */\ntag_180:\n    /* \"#utility.yul\":5144:5211   */\n  tag_181\n    /* \"#utility.yul\":5204:5210   */\n  dup6\n    /* \"#utility.yul\":5197:5202   */\n  dup3\n    /* \"#utility.yul\":5144:5211   */\n  tag_125\n  jump\t// in\ntag_181:\n    /* \"#utility.yul\":5138:5142   */\n  dup7\n    /* \"#utility.yul\":5131:5212   */\n  sstore\n    /* \"#utility.yul\":5000:5222   */\n  pop\n    /* \"#utility.yul\":4335:5222   */\n  jump(tag_178)\n    /* \"#utility.yul\":4365:4983   */\ntag_179:\n    /* \"#utility.yul\":4417:4421   */\n  0x1f\n    /* \"#utility.yul\":4413:4422   */\n  not\n    /* \"#utility.yul\":4405:4411   */\n  dup5\n    /* \"#utility.yul\":4401:4423   */\n  and\n    /* \"#utility.yul\":4451:4488   */\n  tag_182\n    /* \"#utility.yul\":4483:4487   */\n  dup7\n    /* \"#utility.yul\":4451:4488   */\n  tag_110\n  jump\t// in\ntag_182:\n    /* \"#utility.yul\":4510:4511   */\n  0x00\n    /* \"#utility.yul\":4524:4732   */\ntag_183:\n    /* \"#utility.yul\":4538:4545   */\n  dup3\n    /* \"#utility.yul\":4535:4536   */\n  dup2\n    /* \"#utility.yul\":4532:4546   */\n  lt\n    /* \"#utility.yul\":4524:4732   */\n  iszero\n  tag_185\n  jumpi\n    /* \"#utility.yul\":4617:4626   */\n  dup5\n    /* \"#utility.yul\":4612:4615   */\n  dup10\n    /* \"#utility.yul\":4608:4627   */\n  add\n    /* \"#utility.yul\":4602:4628   */\n  mload\n    /* \"#utility.yul\":4594:4600   */\n  dup3\n    /* \"#utility.yul\":4587:4629   */\n  sstore\n    /* \"#utility.yul\":4668:4669   */\n  0x01\n    /* \"#utility.yul\":4660:4666   */\n  dup3\n    /* \"#utility.yul\":4656:4670   */\n  add\n    /* \"#utility.yul\":4646:4670   */\n  swap2\n  pop\n    /* \"#utility.yul\":4715:4717   */\n  0x20\n    /* \"#utility.yul\":4704:4713   */\n  dup6\n    /* \"#utility.yul\":4700:4718   */\n  add\n    /* \"#utility.yul\":4687:4718   */\n  swap5\n  pop\n    /* \"#utility.yul\":4561:4565   */\n  0x20\n    /* \"#utility.yul\":4558:4559   */\n  dup2\n    /* \"#utility.yul\":4554:4566   */\n  add\n    /* \"#utility.yul\":4549:4566   */\n  swap1\n  pop\n    /* \"#utility.yul\":4524:4732   */\n  jump(tag_183)\ntag_185:\n    /* \"#utility.yul\":4760:4766   */\n  dup7\n    /* \"#utility.yul\":4751:4758   */\n  dup4\n    /* \"#utility.yul\":4748:4767   */\n  lt\n    /* \"#utility.yul\":4745:4924   */\n  iszero\n  tag_186\n  jumpi\n    /* \"#utility.yul\":4818:4827   */\n  dup5\n    /* \"#utility.yul\":4813:4816   */\n  dup10\n    /* \"#utility.yul\":4809:4828   */\n  add\n    /* \"#utility.yul\":4803:4829   */\n  mload\n    /* \"#utility.yul\":4861:4909   */\n  tag_187\n    /* \"#utility.yul\":4903:4907   */\n  0x1f\n    /* \"#utility.yul\":4895:4901   */\n  dup10\n    /* \"#utility.yul\":4891:4908   */\n  and\n    /* \"#utility.yul\":4880:4889   */\n  dup3\n    /* \"#utility.yul\":4861:4909   */\n  tag_124\n  jump\t// in\ntag_187:\n    /* \"#utility.yul\":4853:4859   */\n  dup4\n    /* \"#utility.yul\":4846:4910   */\n  sstore\n    /* \"#utility.yul\":4768:4924   */\n  pop\n    /* \"#utility.yul\":4745:4924   */\ntag_186:\n    /* \"#utility.yul\":4970:4971   */\n  0x01\n    /* \"#utility.yul\":4966:4967   */\n  0x02\n    /* \"#utility.yul\":4958:4964   */\n  dup9\n    /* \"#utility.yul\":4954:4968   */\n  mul\n    /* \"#utility.yul\":4950:4972   */\n  add\n    /* \"#utility.yul\":4944:4948   */\n  dup9\n    /* \"#utility.yul\":4937:4973   */\n  sstore\n    /* \"#utility.yul\":4372:4983   */\n  pop\n  pop\n  pop\n    /* \"#utility.yul\":4335:5222   */\ntag_178:\n  pop\n    /* \"#utility.yul\":3925:5228   */\n  pop\n  pop\n  pop\n    /* \"#utility.yul\":3833:5228   */\n  pop\n  pop\n  jump\t// out\n    /* \"FortuneCookie.sol\":60:5203  contract FortuneCookie {... */\ntag_105:\n  dataSize(sub_0)\n  dup1\n  dataOffset(sub_0)\n  0x00\n  codecopy\n  0x00\n  return\nstop\ndata_0ad200439ae9188933fddd0844394b7d8a71d65aff97a6e29d4c665dea62613e 476f6f64207468696e677320636f6d6520746f2074686f73652077686f207374616b652e\ndata_10ce2db97c7a8a3ee4772ac23363081df49732beca0b762be117fe637d660d39 41206c69666574696d65206f662068617070696e6573732061776169747320796f752e\ndata_18b7ece684684ba1f6489014bcbe1e041c638b1c9f5592676737053fd2437c65 4120736f667420666f726b20696e20796f757220706174682077696c6c206c65616420746f20626574746572206f7574636f6d65732e\ndata_1b87947bd422863351ad64fd75e508a23785add59dcc1591c647c0d01010c125 596f7572206c6564676572206f6620676f6f642064656564732077696c6c2062652072657761726465642e\ndata_1cf0acdcc8c1cf9110f5a26597d6f5fee07f3769a983e9854c1230fe472e8787 54686520736d617274206d6f766520796f75206d616b6520746f6461792077696c6c206c65616420746f207375636365737320746f6d6f72726f772e\ndata_1df99ffe238cbd0eb036ff781f33bd2b5e06604d8b1914fe2cfb27682b8195cf 4e6577206f70706f7274756e697469657320617761697420796f75206f6e20796f757220626c6f636b636861696e206a6f75726e65792e\ndata_1f9ee8d7ecc715e060452ab59df8dfb1cd4bfb40b8f308c6bd8c2a91d1c116fb 53756363657373206973206e6f742066696e616c2c206661696c757265206973206e6f7420666174616c3a2069742069732074686520636f757261676520746f20636f6e74696e7565207468617420636f756e74732e\ndata_20e786c50c6ffc613a22fdd3860fba5fc2701a302f45b81cdd9b596a08d071a2 546865206f7261636c65207361797320796f757220667574757265206973206272696768742e\ndata_36f663e431596ef8b2a93761481e9c0a3f818cefd7056a152c43bfa8c89671d6 536f6d656f6e652066726f6d20796f757220706173742077696c6c20736f6f6e207265656e74657220796f7572206c6966652e\ndata_40d464df8e83d7e1a215d293a3f4c1d04aa1af7889203e79652a331b3e31119d 596f7572206d696e696e67206566666f72747320776f6e277420676f20756e72657761726465642e\ndata_43c73b6476dd5dc94dbaa42ecdd97d295347d9eab5716d4b889123a8fc13d189 412062656175746966756c2c20736d6172742c20616e64206c6f76696e6720706572736f6e2077696c6c20626520636f6d696e6720696e746f20796f7572206c6966652e\ndata_4704e460e2caf4576cc5ce0202005da2617e7658e92b2eb2a9e9e8748e911b16 5468652070726f6f66206f6620796f757220776f726b206973206265636f6d696e672065766964656e7420746f20616c6c2e\ndata_5096acd0547f8b61f802efc2f78afcbade99a02d100427c1bf2517c60e74715f 596f7572206162696c69747920746f20616461707420746f206368616c6c656e6765732077696c6c206272696e6720677265617420737563636573732e\ndata_54549edeb05c280a6e448914b2549b49acba96d6d99be6239fce11a44d7ab5ee 54686520736d61727420636f6e747261637420796f75207365656b20697320616c72656164792077697468696e20796f752e\ndata_5f0ee41e238bba97f6af16c440b3907aa8d15331832471891fa17d0147a3d6eb 50617469656e63652069732061207669727475652c20657370656369616c6c79207768696c652077616974696e6720666f7220636f6e6669726d6174696f6e732e\ndata_66cd18d798509659cd1c9bf48b4735c7bac94c1f7f877c93dc229f1582854c85 596f7572207075626c696320616464726573732077696c6c206174747261637420706f73697469766520617474656e74696f6e2e\ndata_6c78801c6e6bf2c5e93da018e327b15133eb3e01ea842a42a11bf7d7e65bfdd9 596f7572206e657874204e46542077696c6c206272696e6720756e6578706563746564206a6f792e\ndata_6e950a3bcaa5159701d759c66c640c30088410ac98a906c325faf585c022a210 5665726966792c207468656e20747275737420796f757220696e7374696e6374732e\ndata_6fa29e3864043d24c722810ba2c5494914db8cafb1ab3ec67e348c1922daaff1 596f7572207369676e617475726520697320756e69717565202d2075736520697420776973656c792e\ndata_6fbd2bc52f6d1a31c2ea423b148c4ef2cb745ed267a2f118937580ccb5bf04c7 41206a6f75726e6579206f6620612074686f7573616e64206d696c657320626567696e73207769746820612073696e676c6520626c6f636b2e\ndata_7468d12462f6accc131bf5384d20a98b12c72c2471a4ee0ef3d0cc562baf8ad2 4120736d616c6c20696e766573746d656e7420746f6461792077696c6c207969656c642067726561742072657475726e7320746f6d6f72726f772e\ndata_74708da224d76151d055f208df9ed96e61ab41985c1cb0bbf7b0185996a9070d 596f757220646563656e7472616c697a656420667574757265206973206272696768742e\ndata_74d04f75dac30539948c8fc9b9300683e921a37b392bc7366278af513ca61f04 596f757220706572736f6e616c20626c6f636b636861696e20697320616464696e6720626c6f636b73206f662068617070696e6573732e\ndata_74e558d0ec7fa747a5e28628cb7ecf42fcc243391faf05e6ea1fd772b6812cc4 596f75722077616c6c65742077696c6c20736f6f6e207265636569766520612073757270726973696e672061697264726f702e\ndata_7f6ab57e70a76dcb80c5f4e2c5fb5d7beefea736781406ce91e5ef640535ea4f 5468652068617368206f6620796f7572206566666f7274732077696c6c20726573756c7420696e2076616c7561626c6520726577617264732e\ndata_8307fe173bde2f69f11add6e819ea3e6ae1b654b48e8f067dc446ca9a4b655c6 596f757220746f6b656e6f6d6963732061726520706572666563746c792062616c616e6365642e\ndata_8b410ba87140a847247ba5073418e0958003e49264b9ff6518f93f8500b8c652 596f7572206469737472696275746564206566666f7274732077696c6c207969656c642063656e7472616c697a656420737563636573732e\ndata_8fe6a9352cf4a99c0dfe42ac82cea595a79cc0784b4f662aef1a9d18f42c9e15 596f7572206861726420776f726b2069732061626f757420746f20706179206f66662e2052656d656d62657220746f2063656c65627261746520796f757220737563636573732e\ndata_a43f2c3aee6cccc0322cef8c6a038085ef6020a29b60ef55e9f3d5e2846df2b5 5768656e20696e20646f7562742c20636f6d6d697420746f20746865206d61696e20636861696e206f6620796f7572206c6966652e\ndata_a89d61d13913c729c0694534c58831da82085527556bf9ca3c6c7a05f91d5e66 416e206578636974696e67206f70706f7274756e6974792077696c6c2070726573656e7420697473656c6620696620796f752072656d61696e206f70656e20746f206e657720657870657269656e6365732e\ndata_acbc19f02b10eb71c86ec9e9de943825e64c917cf059047505e96bb500687528 546865206772656174657374207269736b206973206e6f742074616b696e67206f6e652e\ndata_ae7b3e9091bf3a99048a740bb9ea2bf3c44f39e8f613a2d0dd0f8a15b7f127f4 5374616b6520796f757220636c61696d20696e2077686174206d617474657273206d6f73742e\ndata_aef906a8eb36161c9c0416e1426385c60859d55ceaa34550f7a22d594f52a944 41206368616e6365206d656574696e672077696c6c206c65616420746f20696d706f7274616e74206368616e67657320696e20796f7572206c6966652e\ndata_b2a2ea3ac9abb85a63b117005afb3b7960a6315269336b392d7b1ab8dd72a248 596f7572207472616e73616374696f6e2077696c6c20636f6e6669726d20696e20756e657870656374656420776179732e\ndata_be83ca0fe9f33d9aa4020355a3007f6f9e4e045701abb9b8a2150965045904fc 54686520746f6b656e20796f75277665206265656e2069676e6f72696e672077696c6c20736f6f6e206d6f6f6e2e\ndata_c3c69c47c50a3317102e628506ad29a5114c55fd5b1e1833af6461e7d4ab2268 536f6d6574696d65732074686520626573742076616c696461746f7220697320796f7572206f776e20696e74756974696f6e2e\ndata_c5714f16343d258568bec5703fe2358f1a2f4025bb6793fde3be297842bb21d2 54727573742074686520696d6d757461626c65206e6174757265206f6620796f7572206465636973696f6e732e\ndata_c8c4b39639c8651b95456597691b0394c21d17ba5e28edb124ecc3dee5ec35e3 436f6e73656e7375732077696c6c206265207265616368656420696e20796f7572206661766f7220746f6461792e\ndata_d02ebc1287f4027fd6f26e175b1460a0b4a6030b4e72f8591ce3387104513ef6 446f6e2774207761697420666f7220676173206665657320746f2064726f702e20416374206e6f772e\ndata_d25fbbcc831eb5aa8762e63b0d5ab78ae79c48787121f37d61e0c4009c64be00 596f757220637265617469766974792077696c6c206d616b6520796f75207375636365737366756c20696e20616e20756e65787065637465642076656e747572652e\ndata_d2fd92bb5881c3a2d7e25edef85d981484be349cc9a598d33bd2fb9cf7dd3349 412070726976617465206b6579206973206c696b65206120736563726574202d2067756172642069742077656c6c2e\ndata_d3d0f80ca815e428a11cd76a4b8958b1a5c4a7664369940c87c8404fa0f0aa22 54686520776973646f6d20796f75207365656b20697320616c72656164792077697468696e20796f752e\ndata_d591da6de44c75bff5d9f98e9cd421b7bd1d3fe9fbcc7dfbee4c17fa6a23c993 5468652062756720696e20796f757220636f6465206973206f6e206c696e652034322e\ndata_d7b5513ea54359375a32f77c231568f1e7f8cfdceae2b5a14b7b710bfce2e383 546865206e65787420626c6f636b2077696c6c206272696e6720796f7520676f6f6420666f7274756e652e\ndata_e46b67144b57fd4896a6df754129bd03be91f01821edd323e70a8f450fa74554 546865206e657874206861726420666f726b20696e20796f7572206c6966652077696c6c2062652062656e6566696369616c2e\ndata_e4d6a6d214b2a33fb2a5b1ac96787545e70fe2ce1652fbfeee90b77d52fc0459 4120636f6e73656e737573206973206275696c64696e672061726f756e6420796f7572206c6561646572736869702e\ndata_ed1a825799a4868fedf6edb24711e5daed5125426eb35e38d3839bfa15ba4a24 546f6461792773206d657267652077696c6c207265736f6c766520796f757220636f6e666c696374696e672070617468732e\ndata_f7731e13d02d206a4f726fdc9a0d99d30ed8bd4d31378dd6e0ce863b57f16bf9 466f7274756e65206661766f72732074686520626f6c642e2054616b652074686174206c65617020696e746f20446546692e\ndata_f90a486a2cf03fd0b88ebc98dfdc62ba0a0f63c2a149448aed1dfdff55ba93d2 412067656e65736973206f66206e65772069646561732077696c6c207472616e73666f726d20796f75722070726f6a6563742e\ndata_fb57a1f81a2ec7e39b7edb8c10569aeb45ca10762f4e60c16b6fbee784f93228 596f757220677265617465737420737472656e67746820697320796f75722070657273697374656e742064657465726d696e6174696f6e2e\n\nsub_0: assembly {\n        /* \"FortuneCookie.sol\":60:5203  contract FortuneCookie {... */\n      mstore(0x40, 0x80)\n      callvalue\n      dup1\n      iszero\n      tag_1\n      jumpi\n      0x00\n      dup1\n      revert\n    tag_1:\n      pop\n      jumpi(tag_2, lt(calldatasize, 0x04))\n      shr(0xe0, calldataload(0x00))\n      dup1\n      0x4cf373e6\n      eq\n      tag_3\n      jumpi\n      dup1\n      0x5b8b6582\n      eq\n      tag_4\n      jumpi\n      dup1\n      0x8da5cb5b\n      eq\n      tag_5\n      jumpi\n      dup1\n      0x93ce6c1c\n      eq\n      tag_6\n      jumpi\n    tag_2:\n      0x00\n      dup1\n      revert\n        /* \"FortuneCookie.sol\":4803:4970  function addFortune(string memory newFortune) public {... */\n    tag_3:\n      tag_7\n      0x04\n      dup1\n      calldatasize\n      sub\n      dup2\n      add\n      swap1\n      tag_8\n      swap2\n      swap1\n      tag_9\n      jump\t// in\n    tag_8:\n      tag_10\n      jump\t// in\n    tag_7:\n      stop\n        /* \"FortuneCookie.sol\":5026:5200  function getFortuneCount() public view returns (uint256) {... */\n    tag_4:\n      tag_11\n      tag_12\n      jump\t// in\n    tag_11:\n      mload(0x40)\n      tag_13\n      swap2\n      swap1\n      tag_14\n      jump\t// in\n    tag_13:\n      mload(0x40)\n      dup1\n      swap2\n      sub\n      swap1\n      return\n        /* \"FortuneCookie.sol\":122:142  address public owner */\n    tag_5:\n      tag_15\n      tag_16\n      jump\t// in\n    tag_15:\n      mload(0x40)\n      tag_17\n      swap2\n      swap1\n      tag_18\n      jump\t// in\n    tag_17:\n      mload(0x40)\n      dup1\n      swap2\n      sub\n      swap1\n      return\n        /* \"FortuneCookie.sol\":4292:4747  function getRandomFortune() public returns (string memory) {... */\n    tag_6:\n      tag_19\n      tag_20\n      jump\t// in\n    tag_19:\n      mload(0x40)\n      tag_21\n      swap2\n      swap1\n      tag_22\n      jump\t// in\n    tag_21:\n      mload(0x40)\n      dup1\n      swap2\n      sub\n      swap1\n      return\n        /* \"FortuneCookie.sol\":4803:4970  function addFortune(string memory newFortune) public {... */\n    tag_10:\n        /* \"FortuneCookie.sol\":4889:4894  owner */\n      0x01\n      0x00\n      swap1\n      sload\n      swap1\n      0x0100\n      exp\n      swap1\n      div\n      0xffffffffffffffffffffffffffffffffffffffff\n      and\n        /* \"FortuneCookie.sol\":4875:4894  msg.sender == owner */\n      0xffffffffffffffffffffffffffffffffffffffff\n      and\n        /* \"FortuneCookie.sol\":4875:4885  msg.sender */\n      caller\n        /* \"FortuneCookie.sol\":4875:4894  msg.sender == owner */\n      0xffffffffffffffffffffffffffffffffffffffff\n      and\n      eq\n        /* \"FortuneCookie.sol\":4867:4926  require(msg.sender == owner, \"Only owner can add fortunes\") */\n      tag_24\n      jumpi\n      mload(0x40)\n      0x08c379a000000000000000000000000000000000000000000000000000000000\n      dup2\n      mstore\n      0x04\n      add\n      tag_25\n      swap1\n      tag_26\n      jump\t// in\n    tag_25:\n      mload(0x40)\n      dup1\n      swap2\n      sub\n      swap1\n      revert\n    tag_24:\n        /* \"FortuneCookie.sol\":4937:4945  fortunes */\n      0x00\n        /* \"FortuneCookie.sol\":4951:4961  newFortune */\n      dup2\n        /* \"FortuneCookie.sol\":4937:4962  fortunes.push(newFortune) */\n      swap1\n      dup1\n      0x01\n      dup2\n      sload\n      add\n      dup1\n      dup3\n      sstore\n      dup1\n      swap2\n      pop\n      pop\n      0x01\n      swap1\n      sub\n      swap1\n      0x00\n      mstore\n      keccak256(0x00, 0x20)\n      add\n      0x00\n      swap1\n      swap2\n      swap1\n      swap2\n      swap1\n      swap2\n      pop\n      swap1\n      dup2\n      tag_28\n      swap2\n      swap1\n      tag_29\n      jump\t// in\n    tag_28:\n      pop\n        /* \"FortuneCookie.sol\":4803:4970  function addFortune(string memory newFortune) public {... */\n      pop\n      jump\t// out\n        /* \"FortuneCookie.sol\":5026:5200  function getFortuneCount() public view returns (uint256) {... */\n    tag_12:\n        /* \"FortuneCookie.sol\":5074:5081  uint256 */\n      0x00\n        /* \"FortuneCookie.sol\":5116:5121  owner */\n      0x01\n      0x00\n      swap1\n      sload\n      swap1\n      0x0100\n      exp\n      swap1\n      div\n      0xffffffffffffffffffffffffffffffffffffffff\n      and\n        /* \"FortuneCookie.sol\":5102:5121  msg.sender == owner */\n      0xffffffffffffffffffffffffffffffffffffffff\n      and\n        /* \"FortuneCookie.sol\":5102:5112  msg.sender */\n      caller\n        /* \"FortuneCookie.sol\":5102:5121  msg.sender == owner */\n      0xffffffffffffffffffffffffffffffffffffffff\n      and\n      eq\n        /* \"FortuneCookie.sol\":5094:5159  require(msg.sender == owner, \"Only owner can view fortune count\") */\n      tag_31\n      jumpi\n      mload(0x40)\n      0x08c379a000000000000000000000000000000000000000000000000000000000\n      dup2\n      mstore\n      0x04\n      add\n      tag_32\n      swap1\n      tag_33\n      jump\t// in\n    tag_32:\n      mload(0x40)\n      dup1\n      swap2\n      sub\n      swap1\n      revert\n    tag_31:\n        /* \"FortuneCookie.sol\":5177:5185  fortunes */\n      0x00\n        /* \"FortuneCookie.sol\":5177:5192  fortunes.length */\n      dup1\n      sload\n      swap1\n      pop\n        /* \"FortuneCookie.sol\":5170:5192  return fortunes.length */\n      swap1\n      pop\n        /* \"FortuneCookie.sol\":5026:5200  function getFortuneCount() public view returns (uint256) {... */\n      swap1\n      jump\t// out\n        /* \"FortuneCookie.sol\":122:142  address public owner */\n    tag_16:\n      0x01\n      0x00\n      swap1\n      sload\n      swap1\n      0x0100\n      exp\n      swap1\n      div\n      0xffffffffffffffffffffffffffffffffffffffff\n      and\n      dup2\n      jump\t// out\n        /* \"FortuneCookie.sol\":4292:4747  function getRandomFortune() public returns (string memory) {... */\n    tag_20:\n        /* \"FortuneCookie.sol\":4336:4349  string memory */\n      0x60\n        /* \"FortuneCookie.sol\":4412:4431  uint256 randomIndex */\n      0x00\n        /* \"FortuneCookie.sol\":4520:4528  fortunes */\n      dup1\n        /* \"FortuneCookie.sol\":4520:4535  fortunes.length */\n      dup1\n      sload\n      swap1\n      pop\n        /* \"FortuneCookie.sol\":4469:4484  block.timestamp */\n      timestamp\n        /* \"FortuneCookie.sol\":4486:4496  msg.sender */\n      caller\n        /* \"FortuneCookie.sol\":4498:4514  block.prevrandao */\n      prevrandao\n        /* \"FortuneCookie.sol\":4452:4515  abi.encodePacked(block.timestamp, msg.sender, block.prevrandao) */\n      add(0x20, mload(0x40))\n      tag_35\n      swap4\n      swap3\n      swap2\n      swap1\n      tag_36\n      jump\t// in\n    tag_35:\n      mload(0x40)\n      0x20\n      dup2\n      dup4\n      sub\n      sub\n      dup2\n      mstore\n      swap1\n      0x40\n      mstore\n        /* \"FortuneCookie.sol\":4442:4516  keccak256(abi.encodePacked(block.timestamp, msg.sender, block.prevrandao)) */\n      dup1\n      mload\n      swap1\n      0x20\n      add\n      keccak256\n        /* \"FortuneCookie.sol\":4434:4517  uint256(keccak256(abi.encodePacked(block.timestamp, msg.sender, block.prevrandao))) */\n      0x00\n      shr\n        /* \"FortuneCookie.sol\":4434:4535  uint256(keccak256(abi.encodePacked(block.timestamp, msg.sender, block.prevrandao))) % fortunes.length */\n      tag_37\n      swap2\n      swap1\n      tag_38\n      jump\t// in\n    tag_37:\n        /* \"FortuneCookie.sol\":4412:4535  uint256 randomIndex = uint256(keccak256(abi.encodePacked(block.timestamp, msg.sender, block.prevrandao))) % fortunes.length */\n      swap1\n      pop\n        /* \"FortuneCookie.sol\":4546:4567  string memory fortune */\n      0x00\n        /* \"FortuneCookie.sol\":4570:4578  fortunes */\n      dup1\n        /* \"FortuneCookie.sol\":4579:4590  randomIndex */\n      dup3\n        /* \"FortuneCookie.sol\":4570:4591  fortunes[randomIndex] */\n      dup2\n      sload\n      dup2\n      lt\n      tag_39\n      jumpi\n      tag_40\n      tag_41\n      jump\t// in\n    tag_40:\n    tag_39:\n      swap1\n      0x00\n      mstore\n      keccak256(0x00, 0x20)\n      add\n        /* \"FortuneCookie.sol\":4546:4591  string memory fortune = fortunes[randomIndex] */\n      dup1\n      sload\n      tag_43\n      swap1\n      tag_44\n      jump\t// in\n    tag_43:\n      dup1\n      0x1f\n      add\n      0x20\n      dup1\n      swap2\n      div\n      mul\n      0x20\n      add\n      mload(0x40)\n      swap1\n      dup2\n      add\n      0x40\n      mstore\n      dup1\n      swap3\n      swap2\n      swap1\n      dup2\n      dup2\n      mstore\n      0x20\n      add\n      dup3\n      dup1\n      sload\n      tag_45\n      swap1\n      tag_44\n      jump\t// in\n    tag_45:\n      dup1\n      iszero\n      tag_46\n      jumpi\n      dup1\n      0x1f\n      lt\n      tag_47\n      jumpi\n      0x0100\n      dup1\n      dup4\n      sload\n      div\n      mul\n      dup4\n      mstore\n      swap2\n      0x20\n      add\n      swap2\n      jump(tag_46)\n    tag_47:\n      dup3\n      add\n      swap2\n      swap1\n      0x00\n      mstore\n      keccak256(0x00, 0x20)\n      swap1\n    tag_48:\n      dup2\n      sload\n      dup2\n      mstore\n      swap1\n      0x01\n      add\n      swap1\n      0x20\n      add\n      dup1\n      dup4\n      gt\n      tag_48\n      jumpi\n      dup3\n      swap1\n      sub\n      0x1f\n      and\n      dup3\n      add\n      swap2\n    tag_46:\n      pop\n      pop\n      pop\n      pop\n      pop\n      swap1\n      pop\n        /* \"FortuneCookie.sol\":4653:4704  FortuneOpened(msg.sender, fortune, block.timestamp) */\n      0x066298f218a95834dd8d57814339953fabfe8c9bf89dcd37697610dec82a7f6f\n        /* \"FortuneCookie.sol\":4667:4677  msg.sender */\n      caller\n        /* \"FortuneCookie.sol\":4679:4686  fortune */\n      dup3\n        /* \"FortuneCookie.sol\":4688:4703  block.timestamp */\n      timestamp\n        /* \"FortuneCookie.sol\":4653:4704  FortuneOpened(msg.sender, fortune, block.timestamp) */\n      mload(0x40)\n      tag_49\n      swap4\n      swap3\n      swap2\n      swap1\n      tag_50\n      jump\t// in\n    tag_49:\n      mload(0x40)\n      dup1\n      swap2\n      sub\n      swap1\n      log1\n        /* \"FortuneCookie.sol\":4732:4739  fortune */\n      dup1\n        /* \"FortuneCookie.sol\":4725:4739  return fortune */\n      swap3\n      pop\n      pop\n      pop\n        /* \"FortuneCookie.sol\":4292:4747  function getRandomFortune() public returns (string memory) {... */\n      swap1\n      jump\t// out\n        /* \"#utility.yul\":7:82   */\n    tag_51:\n        /* \"#utility.yul\":40:46   */\n      0x00\n        /* \"#utility.yul\":73:75   */\n      0x40\n        /* \"#utility.yul\":67:76   */\n      mload\n        /* \"#utility.yul\":57:76   */\n      swap1\n      pop\n        /* \"#utility.yul\":7:82   */\n      swap1\n      jump\t// out\n        /* \"#utility.yul\":88:205   */\n    tag_52:\n        /* \"#utility.yul\":197:198   */\n      0x00\n        /* \"#utility.yul\":194:195   */\n      dup1\n        /* \"#utility.yul\":187:199   */\n      revert\n        /* \"#utility.yul\":211:328   */\n    tag_53:\n        /* \"#utility.yul\":320:321   */\n      0x00\n        /* \"#utility.yul\":317:318   */\n      dup1\n        /* \"#utility.yul\":310:322   */\n      revert\n        /* \"#utility.yul\":334:451   */\n    tag_54:\n        /* \"#utility.yul\":443:444   */\n      0x00\n        /* \"#utility.yul\":440:441   */\n      dup1\n        /* \"#utility.yul\":433:445   */\n      revert\n        /* \"#utility.yul\":457:574   */\n    tag_55:\n        /* \"#utility.yul\":566:567   */\n      0x00\n        /* \"#utility.yul\":563:564   */\n      dup1\n        /* \"#utility.yul\":556:568   */\n      revert\n        /* \"#utility.yul\":580:682   */\n    tag_56:\n        /* \"#utility.yul\":621:627   */\n      0x00\n        /* \"#utility.yul\":672:674   */\n      0x1f\n        /* \"#utility.yul\":668:675   */\n      not\n        /* \"#utility.yul\":663:665   */\n      0x1f\n        /* \"#utility.yul\":656:661   */\n      dup4\n        /* \"#utility.yul\":652:666   */\n      add\n        /* \"#utility.yul\":648:676   */\n      and\n        /* \"#utility.yul\":638:676   */\n      swap1\n      pop\n        /* \"#utility.yul\":580:682   */\n      swap2\n      swap1\n      pop\n      jump\t// out\n        /* \"#utility.yul\":688:868   */\n    tag_57:\n        /* \"#utility.yul\":736:813   */\n      0x4e487b7100000000000000000000000000000000000000000000000000000000\n        /* \"#utility.yul\":733:734   */\n      0x00\n        /* \"#utility.yul\":726:814   */\n      mstore\n        /* \"#utility.yul\":833:837   */\n      0x41\n        /* \"#utility.yul\":830:831   */\n      0x04\n        /* \"#utility.yul\":823:838   */\n      mstore\n        /* \"#utility.yul\":857:861   */\n      0x24\n        /* \"#utility.yul\":854:855   */\n      0x00\n        /* \"#utility.yul\":847:862   */\n      revert\n        /* \"#utility.yul\":874:1155   */\n    tag_58:\n        /* \"#utility.yul\":957:984   */\n      tag_109\n        /* \"#utility.yul\":979:983   */\n      dup3\n        /* \"#utility.yul\":957:984   */\n      tag_56\n      jump\t// in\n    tag_109:\n        /* \"#utility.yul\":949:955   */\n      dup2\n        /* \"#utility.yul\":945:985   */\n      add\n        /* \"#utility.yul\":1087:1093   */\n      dup2\n        /* \"#utility.yul\":1075:1085   */\n      dup2\n        /* \"#utility.yul\":1072:1094   */\n      lt\n        /* \"#utility.yul\":1051:1069   */\n      0xffffffffffffffff\n        /* \"#utility.yul\":1039:1049   */\n      dup3\n        /* \"#utility.yul\":1036:1070   */\n      gt\n        /* \"#utility.yul\":1033:1095   */\n      or\n        /* \"#utility.yul\":1030:1118   */\n      iszero\n      tag_110\n      jumpi\n        /* \"#utility.yul\":1098:1116   */\n      tag_111\n      tag_57\n      jump\t// in\n    tag_111:\n        /* \"#utility.yul\":1030:1118   */\n    tag_110:\n        /* \"#utility.yul\":1138:1148   */\n      dup1\n        /* \"#utility.yul\":1134:1136   */\n      0x40\n        /* \"#utility.yul\":1127:1149   */\n      mstore\n        /* \"#utility.yul\":917:1155   */\n      pop\n        /* \"#utility.yul\":874:1155   */\n      pop\n      pop\n      jump\t// out\n        /* \"#utility.yul\":1161:1290   */\n    tag_59:\n        /* \"#utility.yul\":1195:1201   */\n      0x00\n        /* \"#utility.yul\":1222:1242   */\n      tag_113\n      tag_51\n      jump\t// in\n    tag_113:\n        /* \"#utility.yul\":1212:1242   */\n      swap1\n      pop\n        /* \"#utility.yul\":1251:1284   */\n      tag_114\n        /* \"#utility.yul\":1279:1283   */\n      dup3\n        /* \"#utility.yul\":1271:1277   */\n      dup3\n        /* \"#utility.yul\":1251:1284   */\n      tag_58\n      jump\t// in\n    tag_114:\n        /* \"#utility.yul\":1161:1290   */\n      swap2\n      swap1\n      pop\n      jump\t// out\n        /* \"#utility.yul\":1296:1604   */\n    tag_60:\n        /* \"#utility.yul\":1358:1362   */\n      0x00\n        /* \"#utility.yul\":1448:1466   */\n      0xffffffffffffffff\n        /* \"#utility.yul\":1440:1446   */\n      dup3\n        /* \"#utility.yul\":1437:1467   */\n      gt\n        /* \"#utility.yul\":1434:1490   */\n      iszero\n      tag_116\n      jumpi\n        /* \"#utility.yul\":1470:1488   */\n      tag_117\n      tag_57\n      jump\t// in\n    tag_117:\n        /* \"#utility.yul\":1434:1490   */\n    tag_116:\n        /* \"#utility.yul\":1508:1537   */\n      tag_118\n        /* \"#utility.yul\":1530:1536   */\n      dup3\n        /* \"#utility.yul\":1508:1537   */\n      tag_56\n      jump\t// in\n    tag_118:\n        /* \"#utility.yul\":1500:1537   */\n      swap1\n      pop\n        /* \"#utility.yul\":1592:1596   */\n      0x20\n        /* \"#utility.yul\":1586:1590   */\n      dup2\n        /* \"#utility.yul\":1582:1597   */\n      add\n        /* \"#utility.yul\":1574:1597   */\n      swap1\n      pop\n        /* \"#utility.yul\":1296:1604   */\n      swap2\n      swap1\n      pop\n      jump\t// out\n        /* \"#utility.yul\":1610:1758   */\n    tag_61:\n        /* \"#utility.yul\":1708:1714   */\n      dup3\n        /* \"#utility.yul\":1703:1706   */\n      dup2\n        /* \"#utility.yul\":1698:1701   */\n      dup4\n        /* \"#utility.yul\":1685:1715   */\n      calldatacopy\n        /* \"#utility.yul\":1749:1750   */\n      0x00\n        /* \"#utility.yul\":1740:1746   */\n      dup4\n        /* \"#utility.yul\":1735:1738   */\n      dup4\n        /* \"#utility.yul\":1731:1747   */\n      add\n        /* \"#utility.yul\":1724:1751   */\n      mstore\n        /* \"#utility.yul\":1610:1758   */\n      pop\n      pop\n      pop\n      jump\t// out\n        /* \"#utility.yul\":1764:2189   */\n    tag_62:\n        /* \"#utility.yul\":1842:1847   */\n      0x00\n        /* \"#utility.yul\":1867:1933   */\n      tag_121\n        /* \"#utility.yul\":1883:1932   */\n      tag_122\n        /* \"#utility.yul\":1925:1931   */\n      dup5\n        /* \"#utility.yul\":1883:1932   */\n      tag_60\n      jump\t// in\n    tag_122:\n        /* \"#utility.yul\":1867:1933   */\n      tag_59\n      jump\t// in\n    tag_121:\n        /* \"#utility.yul\":1858:1933   */\n      swap1\n      pop\n        /* \"#utility.yul\":1956:1962   */\n      dup3\n        /* \"#utility.yul\":1949:1954   */\n      dup2\n        /* \"#utility.yul\":1942:1963   */\n      mstore\n        /* \"#utility.yul\":1994:1998   */\n      0x20\n        /* \"#utility.yul\":1987:1992   */\n      dup2\n        /* \"#utility.yul\":1983:1999   */\n      add\n        /* \"#utility.yul\":2032:2035   */\n      dup5\n        /* \"#utility.yul\":2023:2029   */\n      dup5\n        /* \"#utility.yul\":2018:2021   */\n      dup5\n        /* \"#utility.yul\":2014:2030   */\n      add\n        /* \"#utility.yul\":2011:2036   */\n      gt\n        /* \"#utility.yul\":2008:2120   */\n      iszero\n      tag_123\n      jumpi\n        /* \"#utility.yul\":2039:2118   */\n      tag_124\n      tag_55\n      jump\t// in\n    tag_124:\n        /* \"#utility.yul\":2008:2120   */\n    tag_123:\n        /* \"#utility.yul\":2129:2183   */\n      tag_125\n        /* \"#utility.yul\":2176:2182   */\n      dup5\n        /* \"#utility.yul\":2171:2174   */\n      dup3\n        /* \"#utility.yul\":2166:2169   */\n      dup6\n        /* \"#utility.yul\":2129:2183   */\n      tag_61\n      jump\t// in\n    tag_125:\n        /* \"#utility.yul\":1848:2189   */\n      pop\n        /* \"#utility.yul\":1764:2189   */\n      swap4\n      swap3\n      pop\n      pop\n      pop\n      jump\t// out\n        /* \"#utility.yul\":2209:2549   */\n    tag_63:\n        /* \"#utility.yul\":2265:2270   */\n      0x00\n        /* \"#utility.yul\":2314:2317   */\n      dup3\n        /* \"#utility.yul\":2307:2311   */\n      0x1f\n        /* \"#utility.yul\":2299:2305   */\n      dup4\n        /* \"#utility.yul\":2295:2312   */\n      add\n        /* \"#utility.yul\":2291:2318   */\n      slt\n        /* \"#utility.yul\":2281:2403   */\n      tag_127\n      jumpi\n        /* \"#utility.yul\":2322:2401   */\n      tag_128\n      tag_54\n      jump\t// in\n    tag_128:\n        /* \"#utility.yul\":2281:2403   */\n    tag_127:\n        /* \"#utility.yul\":2439:2445   */\n      dup2\n        /* \"#utility.yul\":2426:2446   */\n      calldataload\n        /* \"#utility.yul\":2464:2543   */\n      tag_129\n        /* \"#utility.yul\":2539:2542   */\n      dup5\n        /* \"#utility.yul\":2531:2537   */\n      dup3\n        /* \"#utility.yul\":2524:2528   */\n      0x20\n        /* \"#utility.yul\":2516:2522   */\n      dup7\n        /* \"#utility.yul\":2512:2529   */\n      add\n        /* \"#utility.yul\":2464:2543   */\n      tag_62\n      jump\t// in\n    tag_129:\n        /* \"#utility.yul\":2455:2543   */\n      swap2\n      pop\n        /* \"#utility.yul\":2271:2549   */\n      pop\n        /* \"#utility.yul\":2209:2549   */\n      swap3\n      swap2\n      pop\n      pop\n      jump\t// out\n        /* \"#utility.yul\":2555:3064   */\n    tag_9:\n        /* \"#utility.yul\":2624:2630   */\n      0x00\n        /* \"#utility.yul\":2673:2675   */\n      0x20\n        /* \"#utility.yul\":2661:2670   */\n      dup3\n        /* \"#utility.yul\":2652:2659   */\n      dup5\n        /* \"#utility.yul\":2648:2671   */\n      sub\n        /* \"#utility.yul\":2644:2676   */\n      slt\n        /* \"#utility.yul\":2641:2760   */\n      iszero\n      tag_131\n      jumpi\n        /* \"#utility.yul\":2679:2758   */\n      tag_132\n      tag_52\n      jump\t// in\n    tag_132:\n        /* \"#utility.yul\":2641:2760   */\n    tag_131:\n        /* \"#utility.yul\":2827:2828   */\n      0x00\n        /* \"#utility.yul\":2816:2825   */\n      dup3\n        /* \"#utility.yul\":2812:2829   */\n      add\n        /* \"#utility.yul\":2799:2830   */\n      calldataload\n        /* \"#utility.yul\":2857:2875   */\n      0xffffffffffffffff\n        /* \"#utility.yul\":2849:2855   */\n      dup2\n        /* \"#utility.yul\":2846:2876   */\n      gt\n        /* \"#utility.yul\":2843:2960   */\n      iszero\n      tag_133\n      jumpi\n        /* \"#utility.yul\":2879:2958   */\n      tag_134\n      tag_53\n      jump\t// in\n    tag_134:\n        /* \"#utility.yul\":2843:2960   */\n    tag_133:\n        /* \"#utility.yul\":2984:3047   */\n      tag_135\n        /* \"#utility.yul\":3039:3046   */\n      dup5\n        /* \"#utility.yul\":3030:3036   */\n      dup3\n        /* \"#utility.yul\":3019:3028   */\n      dup6\n        /* \"#utility.yul\":3015:3037   */\n      add\n        /* \"#utility.yul\":2984:3047   */\n      tag_63\n      jump\t// in\n    tag_135:\n        /* \"#utility.yul\":2974:3047   */\n      swap2\n      pop\n        /* \"#utility.yul\":2770:3057   */\n      pop\n        /* \"#utility.yul\":2555:3064   */\n      swap3\n      swap2\n      pop\n      pop\n      jump\t// out\n        /* \"#utility.yul\":3070:3147   */\n    tag_64:\n        /* \"#utility.yul\":3107:3114   */\n      0x00\n        /* \"#utility.yul\":3136:3141   */\n      dup2\n        /* \"#utility.yul\":3125:3141   */\n      swap1\n      pop\n        /* \"#utility.yul\":3070:3147   */\n      swap2\n      swap1\n      pop\n      jump\t// out\n        /* \"#utility.yul\":3153:3271   */\n    tag_65:\n        /* \"#utility.yul\":3240:3264   */\n      tag_138\n        /* \"#utility.yul\":3258:3263   */\n      dup2\n        /* \"#utility.yul\":3240:3264   */\n      tag_64\n      jump\t// in\n    tag_138:\n        /* \"#utility.yul\":3235:3238   */\n      dup3\n        /* \"#utility.yul\":3228:3265   */\n      mstore\n        /* \"#utility.yul\":3153:3271   */\n      pop\n      pop\n      jump\t// out\n        /* \"#utility.yul\":3277:3499   */\n    tag_14:\n        /* \"#utility.yul\":3370:3374   */\n      0x00\n        /* \"#utility.yul\":3408:3410   */\n      0x20\n        /* \"#utility.yul\":3397:3406   */\n      dup3\n        /* \"#utility.yul\":3393:3411   */\n      add\n        /* \"#utility.yul\":3385:3411   */\n      swap1\n      pop\n        /* \"#utility.yul\":3421:3492   */\n      tag_140\n        /* \"#utility.yul\":3489:3490   */\n      0x00\n        /* \"#utility.yul\":3478:3487   */\n      dup4\n        /* \"#utility.yul\":3474:3491   */\n      add\n        /* \"#utility.yul\":3465:3471   */\n      dup5\n        /* \"#utility.yul\":3421:3492   */\n      tag_65\n      jump\t// in\n    tag_140:\n        /* \"#utility.yul\":3277:3499   */\n      swap3\n      swap2\n      pop\n      pop\n      jump\t// out\n        /* \"#utility.yul\":3505:3631   */\n    tag_66:\n        /* \"#utility.yul\":3542:3549   */\n      0x00\n        /* \"#utility.yul\":3582:3624   */\n      0xffffffffffffffffffffffffffffffffffffffff\n        /* \"#utility.yul\":3575:3580   */\n      dup3\n        /* \"#utility.yul\":3571:3625   */\n      and\n        /* \"#utility.yul\":3560:3625   */\n      swap1\n      pop\n        /* \"#utility.yul\":3505:3631   */\n      swap2\n      swap1\n      pop\n      jump\t// out\n        /* \"#utility.yul\":3637:3733   */\n    tag_67:\n        /* \"#utility.yul\":3674:3681   */\n      0x00\n        /* \"#utility.yul\":3703:3727   */\n      tag_143\n        /* \"#utility.yul\":3721:3726   */\n      dup3\n        /* \"#utility.yul\":3703:3727   */\n      tag_66\n      jump\t// in\n    tag_143:\n        /* \"#utility.yul\":3692:3727   */\n      swap1\n      pop\n        /* \"#utility.yul\":3637:3733   */\n      swap2\n      swap1\n      pop\n      jump\t// out\n        /* \"#utility.yul\":3739:3857   */\n    tag_68:\n        /* \"#utility.yul\":3826:3850   */\n      tag_145\n        /* \"#utility.yul\":3844:3849   */\n      dup2\n        /* \"#utility.yul\":3826:3850   */\n      tag_67\n      jump\t// in\n    tag_145:\n        /* \"#utility.yul\":3821:3824   */\n      dup3\n        /* \"#utility.yul\":3814:3851   */\n      mstore\n        /* \"#utility.yul\":3739:3857   */\n      pop\n      pop\n      jump\t// out\n        /* \"#utility.yul\":3863:4085   */\n    tag_18:\n        /* \"#utility.yul\":3956:3960   */\n      0x00\n        /* \"#utility.yul\":3994:3996   */\n      0x20\n        /* \"#utility.yul\":3983:3992   */\n      dup3\n        /* \"#utility.yul\":3979:3997   */\n      add\n        /* \"#utility.yul\":3971:3997   */\n      swap1\n      pop\n        /* \"#utility.yul\":4007:4078   */\n      tag_147\n        /* \"#utility.yul\":4075:4076   */\n      0x00\n        /* \"#utility.yul\":4064:4073   */\n      dup4\n        /* \"#utility.yul\":4060:4077   */\n      add\n        /* \"#utility.yul\":4051:4057   */\n      dup5\n        /* \"#utility.yul\":4007:4078   */\n      tag_68\n      jump\t// in\n    tag_147:\n        /* \"#utility.yul\":3863:4085   */\n      swap3\n      swap2\n      pop\n      pop\n      jump\t// out\n        /* \"#utility.yul\":4091:4190   */\n    tag_69:\n        /* \"#utility.yul\":4143:4149   */\n      0x00\n        /* \"#utility.yul\":4177:4182   */\n      dup2\n        /* \"#utility.yul\":4171:4183   */\n      mload\n        /* \"#utility.yul\":4161:4183   */\n      swap1\n      pop\n        /* \"#utility.yul\":4091:4190   */\n      swap2\n      swap1\n      pop\n      jump\t// out\n        /* \"#utility.yul\":4196:4365   */\n    tag_70:\n        /* \"#utility.yul\":4280:4291   */\n      0x00\n        /* \"#utility.yul\":4314:4320   */\n      dup3\n        /* \"#utility.yul\":4309:4312   */\n      dup3\n        /* \"#utility.yul\":4302:4321   */\n      mstore\n        /* \"#utility.yul\":4354:4358   */\n      0x20\n        /* \"#utility.yul\":4349:4352   */\n      dup3\n        /* \"#utility.yul\":4345:4359   */\n      add\n        /* \"#utility.yul\":4330:4359   */\n      swap1\n      pop\n        /* \"#utility.yul\":4196:4365   */\n      swap3\n      swap2\n      pop\n      pop\n      jump\t// out\n        /* \"#utility.yul\":4371:4510   */\n    tag_71:\n        /* \"#utility.yul\":4460:4466   */\n      dup3\n        /* \"#utility.yul\":4455:4458   */\n      dup2\n        /* \"#utility.yul\":4450:4453   */\n      dup4\n        /* \"#utility.yul\":4444:4467   */\n      mcopy\n        /* \"#utility.yul\":4501:4502   */\n      0x00\n        /* \"#utility.yul\":4492:4498   */\n      dup4\n        /* \"#utility.yul\":4487:4490   */\n      dup4\n        /* \"#utility.yul\":4483:4499   */\n      add\n        /* \"#utility.yul\":4476:4503   */\n      mstore\n        /* \"#utility.yul\":4371:4510   */\n      pop\n      pop\n      pop\n      jump\t// out\n        /* \"#utility.yul\":4516:4893   */\n    tag_72:\n        /* \"#utility.yul\":4604:4607   */\n      0x00\n        /* \"#utility.yul\":4632:4671   */\n      tag_152\n        /* \"#utility.yul\":4665:4670   */\n      dup3\n        /* \"#utility.yul\":4632:4671   */\n      tag_69\n      jump\t// in\n    tag_152:\n        /* \"#utility.yul\":4687:4758   */\n      tag_153\n        /* \"#utility.yul\":4751:4757   */\n      dup2\n        /* \"#utility.yul\":4746:4749   */\n      dup6\n        /* \"#utility.yul\":4687:4758   */\n      tag_70\n      jump\t// in\n    tag_153:\n        /* \"#utility.yul\":4680:4758   */\n      swap4\n      pop\n        /* \"#utility.yul\":4767:4832   */\n      tag_154\n        /* \"#utility.yul\":4825:4831   */\n      dup2\n        /* \"#utility.yul\":4820:4823   */\n      dup6\n        /* \"#utility.yul\":4813:4817   */\n      0x20\n        /* \"#utility.yul\":4806:4811   */\n      dup7\n        /* \"#utility.yul\":4802:4818   */\n      add\n        /* \"#utility.yul\":4767:4832   */\n      tag_71\n      jump\t// in\n    tag_154:\n        /* \"#utility.yul\":4857:4886   */\n      tag_155\n        /* \"#utility.yul\":4879:4885   */\n      dup2\n        /* \"#utility.yul\":4857:4886   */\n      tag_56\n      jump\t// in\n    tag_155:\n        /* \"#utility.yul\":4852:4855   */\n      dup5\n        /* \"#utility.yul\":4848:4887   */\n      add\n        /* \"#utility.yul\":4841:4887   */\n      swap2\n      pop\n        /* \"#utility.yul\":4608:4893   */\n      pop\n        /* \"#utility.yul\":4516:4893   */\n      swap3\n      swap2\n      pop\n      pop\n      jump\t// out\n        /* \"#utility.yul\":4899:5212   */\n    tag_22:\n        /* \"#utility.yul\":5012:5016   */\n      0x00\n        /* \"#utility.yul\":5050:5052   */\n      0x20\n        /* \"#utility.yul\":5039:5048   */\n      dup3\n        /* \"#utility.yul\":5035:5053   */\n      add\n        /* \"#utility.yul\":5027:5053   */\n      swap1\n      pop\n        /* \"#utility.yul\":5099:5108   */\n      dup2\n        /* \"#utility.yul\":5093:5097   */\n      dup2\n        /* \"#utility.yul\":5089:5109   */\n      sub\n        /* \"#utility.yul\":5085:5086   */\n      0x00\n        /* \"#utility.yul\":5074:5083   */\n      dup4\n        /* \"#utility.yul\":5070:5087   */\n      add\n        /* \"#utility.yul\":5063:5110   */\n      mstore\n        /* \"#utility.yul\":5127:5205   */\n      tag_157\n        /* \"#utility.yul\":5200:5204   */\n      dup2\n        /* \"#utility.yul\":5191:5197   */\n      dup5\n        /* \"#utility.yul\":5127:5205   */\n      tag_72\n      jump\t// in\n    tag_157:\n        /* \"#utility.yul\":5119:5205   */\n      swap1\n      pop\n        /* \"#utility.yul\":4899:5212   */\n      swap3\n      swap2\n      pop\n      pop\n      jump\t// out\n        /* \"#utility.yul\":5218:5395   */\n    tag_73:\n        /* \"#utility.yul\":5358:5387   */\n      0x4f6e6c79206f776e65722063616e2061646420666f7274756e65730000000000\n        /* \"#utility.yul\":5354:5355   */\n      0x00\n        /* \"#utility.yul\":5346:5352   */\n      dup3\n        /* \"#utility.yul\":5342:5356   */\n      add\n        /* \"#utility.yul\":5335:5388   */\n      mstore\n        /* \"#utility.yul\":5218:5395   */\n      pop\n      jump\t// out\n        /* \"#utility.yul\":5401:5767   */\n    tag_74:\n        /* \"#utility.yul\":5543:5546   */\n      0x00\n        /* \"#utility.yul\":5564:5631   */\n      tag_160\n        /* \"#utility.yul\":5628:5630   */\n      0x1b\n        /* \"#utility.yul\":5623:5626   */\n      dup4\n        /* \"#utility.yul\":5564:5631   */\n      tag_70\n      jump\t// in\n    tag_160:\n        /* \"#utility.yul\":5557:5631   */\n      swap2\n      pop\n        /* \"#utility.yul\":5640:5733   */\n      tag_161\n        /* \"#utility.yul\":5729:5732   */\n      dup3\n        /* \"#utility.yul\":5640:5733   */\n      tag_73\n      jump\t// in\n    tag_161:\n        /* \"#utility.yul\":5758:5760   */\n      0x20\n        /* \"#utility.yul\":5753:5756   */\n      dup3\n        /* \"#utility.yul\":5749:5761   */\n      add\n        /* \"#utility.yul\":5742:5761   */\n      swap1\n      pop\n        /* \"#utility.yul\":5401:5767   */\n      swap2\n      swap1\n      pop\n      jump\t// out\n        /* \"#utility.yul\":5773:6192   */\n    tag_26:\n        /* \"#utility.yul\":5939:5943   */\n      0x00\n        /* \"#utility.yul\":5977:5979   */\n      0x20\n        /* \"#utility.yul\":5966:5975   */\n      dup3\n        /* \"#utility.yul\":5962:5980   */\n      add\n        /* \"#utility.yul\":5954:5980   */\n      swap1\n      pop\n        /* \"#utility.yul\":6026:6035   */\n      dup2\n        /* \"#utility.yul\":6020:6024   */\n      dup2\n        /* \"#utility.yul\":6016:6036   */\n      sub\n        /* \"#utility.yul\":6012:6013   */\n      0x00\n        /* \"#utility.yul\":6001:6010   */\n      dup4\n        /* \"#utility.yul\":5997:6014   */\n      add\n        /* \"#utility.yul\":5990:6037   */\n      mstore\n        /* \"#utility.yul\":6054:6185   */\n      tag_163\n        /* \"#utility.yul\":6180:6184   */\n      dup2\n        /* \"#utility.yul\":6054:6185   */\n      tag_74\n      jump\t// in\n    tag_163:\n        /* \"#utility.yul\":6046:6185   */\n      swap1\n      pop\n        /* \"#utility.yul\":5773:6192   */\n      swap2\n      swap1\n      pop\n      jump\t// out\n        /* \"#utility.yul\":6198:6378   */\n    tag_75:\n        /* \"#utility.yul\":6246:6323   */\n      0x4e487b7100000000000000000000000000000000000000000000000000000000\n        /* \"#utility.yul\":6243:6244   */\n      0x00\n        /* \"#utility.yul\":6236:6324   */\n      mstore\n        /* \"#utility.yul\":6343:6347   */\n      0x22\n        /* \"#utility.yul\":6340:6341   */\n      0x04\n        /* \"#utility.yul\":6333:6348   */\n      mstore\n        /* \"#utility.yul\":6367:6371   */\n      0x24\n        /* \"#utility.yul\":6364:6365   */\n      0x00\n        /* \"#utility.yul\":6357:6372   */\n      revert\n        /* \"#utility.yul\":6384:6704   */\n    tag_44:\n        /* \"#utility.yul\":6428:6434   */\n      0x00\n        /* \"#utility.yul\":6465:6466   */\n      0x02\n        /* \"#utility.yul\":6459:6463   */\n      dup3\n        /* \"#utility.yul\":6455:6467   */\n      div\n        /* \"#utility.yul\":6445:6467   */\n      swap1\n      pop\n        /* \"#utility.yul\":6512:6513   */\n      0x01\n        /* \"#utility.yul\":6506:6510   */\n      dup3\n        /* \"#utility.yul\":6502:6514   */\n      and\n        /* \"#utility.yul\":6533:6551   */\n      dup1\n        /* \"#utility.yul\":6523:6604   */\n      tag_166\n      jumpi\n        /* \"#utility.yul\":6589:6593   */\n      0x7f\n        /* \"#utility.yul\":6581:6587   */\n      dup3\n        /* \"#utility.yul\":6577:6594   */\n      and\n        /* \"#utility.yul\":6567:6594   */\n      swap2\n      pop\n        /* \"#utility.yul\":6523:6604   */\n    tag_166:\n        /* \"#utility.yul\":6651:6653   */\n      0x20\n        /* \"#utility.yul\":6643:6649   */\n      dup3\n        /* \"#utility.yul\":6640:6654   */\n      lt\n        /* \"#utility.yul\":6620:6638   */\n      dup2\n        /* \"#utility.yul\":6617:6655   */\n      sub\n        /* \"#utility.yul\":6614:6698   */\n      tag_167\n      jumpi\n        /* \"#utility.yul\":6670:6688   */\n      tag_168\n      tag_75\n      jump\t// in\n    tag_168:\n        /* \"#utility.yul\":6614:6698   */\n    tag_167:\n        /* \"#utility.yul\":6435:6704   */\n      pop\n        /* \"#utility.yul\":6384:6704   */\n      swap2\n      swap1\n      pop\n      jump\t// out\n        /* \"#utility.yul\":6710:6851   */\n    tag_76:\n        /* \"#utility.yul\":6759:6763   */\n      0x00\n        /* \"#utility.yul\":6782:6785   */\n      dup2\n        /* \"#utility.yul\":6774:6785   */\n      swap1\n      pop\n        /* \"#utility.yul\":6805:6808   */\n      dup2\n        /* \"#utility.yul\":6802:6803   */\n      0x00\n        /* \"#utility.yul\":6795:6809   */\n      mstore\n        /* \"#utility.yul\":6839:6843   */\n      0x20\n        /* \"#utility.yul\":6836:6837   */\n      0x00\n        /* \"#utility.yul\":6826:6844   */\n      keccak256\n        /* \"#utility.yul\":6818:6844   */\n      swap1\n      pop\n        /* \"#utility.yul\":6710:6851   */\n      swap2\n      swap1\n      pop\n      jump\t// out\n        /* \"#utility.yul\":6857:6950   */\n    tag_77:\n        /* \"#utility.yul\":6894:6900   */\n      0x00\n        /* \"#utility.yul\":6941:6943   */\n      0x20\n        /* \"#utility.yul\":6936:6938   */\n      0x1f\n        /* \"#utility.yul\":6929:6934   */\n      dup4\n        /* \"#utility.yul\":6925:6939   */\n      add\n        /* \"#utility.yul\":6921:6944   */\n      div\n        /* \"#utility.yul\":6911:6944   */\n      swap1\n      pop\n        /* \"#utility.yul\":6857:6950   */\n      swap2\n      swap1\n      pop\n      jump\t// out\n        /* \"#utility.yul\":6956:7063   */\n    tag_78:\n        /* \"#utility.yul\":7000:7008   */\n      0x00\n        /* \"#utility.yul\":7050:7055   */\n      dup3\n        /* \"#utility.yul\":7044:7048   */\n      dup3\n        /* \"#utility.yul\":7040:7056   */\n      shl\n        /* \"#utility.yul\":7019:7056   */\n      swap1\n      pop\n        /* \"#utility.yul\":6956:7063   */\n      swap3\n      swap2\n      pop\n      pop\n      jump\t// out\n        /* \"#utility.yul\":7069:7462   */\n    tag_79:\n        /* \"#utility.yul\":7138:7144   */\n      0x00\n        /* \"#utility.yul\":7188:7189   */\n      0x08\n        /* \"#utility.yul\":7176:7186   */\n      dup4\n        /* \"#utility.yul\":7172:7190   */\n      mul\n        /* \"#utility.yul\":7211:7308   */\n      tag_173\n        /* \"#utility.yul\":7241:7307   */\n      0xffffffffffffffffffffffffffffffffffffffffffffffffffffffffffffffff\n        /* \"#utility.yul\":7230:7239   */\n      dup3\n        /* \"#utility.yul\":7211:7308   */\n      tag_78\n      jump\t// in\n    tag_173:\n        /* \"#utility.yul\":7329:7368   */\n      tag_174\n        /* \"#utility.yul\":7359:7367   */\n      dup7\n        /* \"#utility.yul\":7348:7357   */\n      dup4\n        /* \"#utility.yul\":7329:7368   */\n      tag_78\n      jump\t// in\n    tag_174:\n        /* \"#utility.yul\":7317:7368   */\n      swap6\n      pop\n        /* \"#utility.yul\":7401:7405   */\n      dup1\n        /* \"#utility.yul\":7397:7406   */\n      not\n        /* \"#utility.yul\":7390:7395   */\n      dup5\n        /* \"#utility.yul\":7386:7407   */\n      and\n        /* \"#utility.yul\":7377:7407   */\n      swap4\n      pop\n        /* \"#utility.yul\":7450:7454   */\n      dup1\n        /* \"#utility.yul\":7440:7448   */\n      dup7\n        /* \"#utility.yul\":7436:7455   */\n      and\n        /* \"#utility.yul\":7429:7434   */\n      dup5\n        /* \"#utility.yul\":7426:7456   */\n      or\n        /* \"#utility.yul\":7416:7456   */\n      swap3\n      pop\n        /* \"#utility.yul\":7145:7462   */\n      pop\n      pop\n        /* \"#utility.yul\":7069:7462   */\n      swap4\n      swap3\n      pop\n      pop\n      pop\n      jump\t// out\n        /* \"#utility.yul\":7468:7528   */\n    tag_80:\n        /* \"#utility.yul\":7496:7499   */\n      0x00\n        /* \"#utility.yul\":7517:7522   */\n      dup2\n        /* \"#utility.yul\":7510:7522   */\n      swap1\n      pop\n        /* \"#utility.yul\":7468:7528   */\n      swap2\n      swap1\n      pop\n      jump\t// out\n        /* \"#utility.yul\":7534:7676   */\n    tag_81:\n        /* \"#utility.yul\":7584:7593   */\n      0x00\n        /* \"#utility.yul\":7617:7670   */\n      tag_177\n        /* \"#utility.yul\":7635:7669   */\n      tag_178\n        /* \"#utility.yul\":7644:7668   */\n      tag_179\n        /* \"#utility.yul\":7662:7667   */\n      dup5\n        /* \"#utility.yul\":7644:7668   */\n      tag_64\n      jump\t// in\n    tag_179:\n        /* \"#utility.yul\":7635:7669   */\n      tag_80\n      jump\t// in\n    tag_178:\n        /* \"#utility.yul\":7617:7670   */\n      tag_64\n      jump\t// in\n    tag_177:\n        /* \"#utility.yul\":7604:7670   */\n      swap1\n      pop\n        /* \"#utility.yul\":7534:7676   */\n      swap2\n      swap1\n      pop\n      jump\t// out\n        /* \"#utility.yul\":7682:7757   */\n    tag_82:\n        /* \"#utility.yul\":7725:7728   */\n      0x00\n        /* \"#utility.yul\":7746:7751   */\n      dup2\n        /* \"#utility.yul\":7739:7751   */\n      swap1\n      pop\n        /* \"#utility.yul\":7682:7757   */\n      swap2\n      swap1\n      pop\n      jump\t// out\n        /* \"#utility.yul\":7763:8032   */\n    tag_83:\n        /* \"#utility.yul\":7873:7912   */\n      tag_182\n        /* \"#utility.yul\":7904:7911   */\n      dup4\n        /* \"#utility.yul\":7873:7912   */\n      tag_81\n      jump\t// in\n    tag_182:\n        /* \"#utility.yul\":7934:8025   */\n      tag_183\n        /* \"#utility.yul\":7983:8024   */\n      tag_184\n        /* \"#utility.yul\":8007:8023   */\n      dup3\n        /* \"#utility.yul\":7983:8024   */\n      tag_82\n      jump\t// in\n    tag_184:\n        /* \"#utility.yul\":7975:7981   */\n      dup5\n        /* \"#utility.yul\":7968:7972   */\n      dup5\n        /* \"#utility.yul\":7962:7973   */\n      sload\n        /* \"#utility.yul\":7934:8025   */\n      tag_79\n      jump\t// in\n    tag_183:\n        /* \"#utility.yul\":7928:7932   */\n      dup3\n        /* \"#utility.yul\":7921:8026   */\n      sstore\n        /* \"#utility.yul\":7839:8032   */\n      pop\n        /* \"#utility.yul\":7763:8032   */\n      pop\n      pop\n      pop\n      jump\t// out\n        /* \"#utility.yul\":8038:8111   */\n    tag_84:\n        /* \"#utility.yul\":8083:8086   */\n      0x00\n        /* \"#utility.yul\":8038:8111   */\n      swap1\n      jump\t// out\n        /* \"#utility.yul\":8117:8306   */\n    tag_85:\n        /* \"#utility.yul\":8194:8226   */\n      tag_187\n      tag_84\n      jump\t// in\n    tag_187:\n        /* \"#utility.yul\":8235:8300   */\n      tag_188\n        /* \"#utility.yul\":8293:8299   */\n      dup2\n        /* \"#utility.yul\":8285:8291   */\n      dup5\n        /* \"#utility.yul\":8279:8283   */\n      dup5\n        /* \"#utility.yul\":8235:8300   */\n      tag_83\n      jump\t// in\n    tag_188:\n        /* \"#utility.yul\":8170:8306   */\n      pop\n        /* \"#utility.yul\":8117:8306   */\n      pop\n      pop\n      jump\t// out\n        /* \"#utility.yul\":8312:8498   */\n    tag_86:\n        /* \"#utility.yul\":8372:8492   */\n    tag_190:\n        /* \"#utility.yul\":8389:8392   */\n      dup2\n        /* \"#utility.yul\":8382:8387   */\n      dup2\n        /* \"#utility.yul\":8379:8393   */\n      lt\n        /* \"#utility.yul\":8372:8492   */\n      iszero\n      tag_192\n      jumpi\n        /* \"#utility.yul\":8443:8482   */\n      tag_193\n        /* \"#utility.yul\":8480:8481   */\n      0x00\n        /* \"#utility.yul\":8473:8478   */\n      dup3\n        /* \"#utility.yul\":8443:8482   */\n      tag_85\n      jump\t// in\n    tag_193:\n        /* \"#utility.yul\":8416:8417   */\n      0x01\n        /* \"#utility.yul\":8409:8414   */\n      dup2\n        /* \"#utility.yul\":8405:8418   */\n      add\n        /* \"#utility.yul\":8396:8418   */\n      swap1\n      pop\n        /* \"#utility.yul\":8372:8492   */\n      jump(tag_190)\n    tag_192:\n        /* \"#utility.yul\":8312:8498   */\n      pop\n      pop\n      jump\t// out\n        /* \"#utility.yul\":8504:9047   */\n    tag_87:\n        /* \"#utility.yul\":8605:8607   */\n      0x1f\n        /* \"#utility.yul\":8600:8603   */\n      dup3\n        /* \"#utility.yul\":8597:8608   */\n      gt\n        /* \"#utility.yul\":8594:9040   */\n      iszero\n      tag_195\n      jumpi\n        /* \"#utility.yul\":8639:8677   */\n      tag_196\n        /* \"#utility.yul\":8671:8676   */\n      dup2\n        /* \"#utility.yul\":8639:8677   */\n      tag_76\n      jump\t// in\n    tag_196:\n        /* \"#utility.yul\":8723:8752   */\n      tag_197\n        /* \"#utility.yul\":8741:8751   */\n      dup5\n        /* \"#utility.yul\":8723:8752   */\n      tag_77\n      jump\t// in\n    tag_197:\n        /* \"#utility.yul\":8713:8721   */\n      dup2\n        /* \"#utility.yul\":8709:8753   */\n      add\n        /* \"#utility.yul\":8906:8908   */\n      0x20\n        /* \"#utility.yul\":8894:8904   */\n      dup6\n        /* \"#utility.yul\":8891:8909   */\n      lt\n        /* \"#utility.yul\":8888:8937   */\n      iszero\n      tag_198\n      jumpi\n        /* \"#utility.yul\":8927:8935   */\n      dup2\n        /* \"#utility.yul\":8912:8935   */\n      swap1\n      pop\n        /* \"#utility.yul\":8888:8937   */\n    tag_198:\n        /* \"#utility.yul\":8950:9030   */\n      tag_199\n        /* \"#utility.yul\":9006:9028   */\n      tag_200\n        /* \"#utility.yul\":9024:9027   */\n      dup6\n        /* \"#utility.yul\":9006:9028   */\n      tag_77\n      jump\t// in\n    tag_200:\n        /* \"#utility.yul\":8996:9004   */\n      dup4\n        /* \"#utility.yul\":8992:9029   */\n      add\n        /* \"#utility.yul\":8979:8990   */\n      dup3\n        /* \"#utility.yul\":8950:9030   */\n      tag_86\n      jump\t// in\n    tag_199:\n        /* \"#utility.yul\":8609:9040   */\n      pop\n      pop\n        /* \"#utility.yul\":8594:9040   */\n    tag_195:\n        /* \"#utility.yul\":8504:9047   */\n      pop\n      pop\n      pop\n      jump\t// out\n        /* \"#utility.yul\":9053:9170   */\n    tag_88:\n        /* \"#utility.yul\":9107:9115   */\n      0x00\n        /* \"#utility.yul\":9157:9162   */\n      dup3\n        /* \"#utility.yul\":9151:9155   */\n      dup3\n        /* \"#utility.yul\":9147:9163   */\n      shr\n        /* \"#utility.yul\":9126:9163   */\n      swap1\n      pop\n        /* \"#utility.yul\":9053:9170   */\n      swap3\n      swap2\n      pop\n      pop\n      jump\t// out\n        /* \"#utility.yul\":9176:9345   */\n    tag_89:\n        /* \"#utility.yul\":9220:9226   */\n      0x00\n        /* \"#utility.yul\":9253:9304   */\n      tag_203\n        /* \"#utility.yul\":9301:9302   */\n      0x00\n        /* \"#utility.yul\":9297:9303   */\n      not\n        /* \"#utility.yul\":9289:9294   */\n      dup5\n        /* \"#utility.yul\":9286:9287   */\n      0x08\n        /* \"#utility.yul\":9282:9295   */\n      mul\n        /* \"#utility.yul\":9253:9304   */\n      tag_88\n      jump\t// in\n    tag_203:\n        /* \"#utility.yul\":9249:9305   */\n      not\n        /* \"#utility.yul\":9334:9338   */\n      dup1\n        /* \"#utility.yul\":9328:9332   */\n      dup4\n        /* \"#utility.yul\":9324:9339   */\n      and\n        /* \"#utility.yul\":9314:9339   */\n      swap2\n      pop\n        /* \"#utility.yul\":9227:9345   */\n      pop\n        /* \"#utility.yul\":9176:9345   */\n      swap3\n      swap2\n      pop\n      pop\n      jump\t// out\n        /* \"#utility.yul\":9350:9645   */\n    tag_90:\n        /* \"#utility.yul\":9426:9430   */\n      0x00\n        /* \"#utility.yul\":9572:9601   */\n      tag_205\n        /* \"#utility.yul\":9597:9600   */\n      dup4\n        /* \"#utility.yul\":9591:9595   */\n      dup4\n        /* \"#utility.yul\":9572:9601   */\n      tag_89\n      jump\t// in\n    tag_205:\n        /* \"#utility.yul\":9564:9601   */\n      swap2\n      pop\n        /* \"#utility.yul\":9634:9637   */\n      dup3\n        /* \"#utility.yul\":9631:9632   */\n      0x02\n        /* \"#utility.yul\":9627:9638   */\n      mul\n        /* \"#utility.yul\":9621:9625   */\n      dup3\n        /* \"#utility.yul\":9618:9639   */\n      or\n        /* \"#utility.yul\":9610:9639   */\n      swap1\n      pop\n        /* \"#utility.yul\":9350:9645   */\n      swap3\n      swap2\n      pop\n      pop\n      jump\t// out\n        /* \"#utility.yul\":9650:11045   */\n    tag_29:\n        /* \"#utility.yul\":9767:9804   */\n      tag_207\n        /* \"#utility.yul\":9800:9803   */\n      dup3\n        /* \"#utility.yul\":9767:9804   */\n      tag_69\n      jump\t// in\n    tag_207:\n        /* \"#utility.yul\":9869:9887   */\n      0xffffffffffffffff\n        /* \"#utility.yul\":9861:9867   */\n      dup2\n        /* \"#utility.yul\":9858:9888   */\n      gt\n        /* \"#utility.yul\":9855:9911   */\n      iszero\n      tag_208\n      jumpi\n        /* \"#utility.yul\":9891:9909   */\n      tag_209\n      tag_57\n      jump\t// in\n    tag_209:\n        /* \"#utility.yul\":9855:9911   */\n    tag_208:\n        /* \"#utility.yul\":9935:9973   */\n      tag_210\n        /* \"#utility.yul\":9967:9971   */\n      dup3\n        /* \"#utility.yul\":9961:9972   */\n      sload\n        /* \"#utility.yul\":9935:9973   */\n      tag_44\n      jump\t// in\n    tag_210:\n        /* \"#utility.yul\":10020:10087   */\n      tag_211\n        /* \"#utility.yul\":10080:10086   */\n      dup3\n        /* \"#utility.yul\":10072:10078   */\n      dup3\n        /* \"#utility.yul\":10066:10070   */\n      dup6\n        /* \"#utility.yul\":10020:10087   */\n      tag_87\n      jump\t// in\n    tag_211:\n        /* \"#utility.yul\":10114:10115   */\n      0x00\n        /* \"#utility.yul\":10138:10142   */\n      0x20\n        /* \"#utility.yul\":10125:10142   */\n      swap1\n      pop\n        /* \"#utility.yul\":10170:10172   */\n      0x1f\n        /* \"#utility.yul\":10162:10168   */\n      dup4\n        /* \"#utility.yul\":10159:10173   */\n      gt\n        /* \"#utility.yul\":10187:10188   */\n      0x01\n        /* \"#utility.yul\":10182:10800   */\n      dup2\n      eq\n      tag_213\n      jumpi\n        /* \"#utility.yul\":10844:10845   */\n      0x00\n        /* \"#utility.yul\":10861:10867   */\n      dup5\n        /* \"#utility.yul\":10858:10935   */\n      iszero\n      tag_214\n      jumpi\n        /* \"#utility.yul\":10910:10919   */\n      dup3\n        /* \"#utility.yul\":10905:10908   */\n      dup8\n        /* \"#utility.yul\":10901:10920   */\n      add\n        /* \"#utility.yul\":10895:10921   */\n      mload\n        /* \"#utility.yul\":10886:10921   */\n      swap1\n      pop\n        /* \"#utility.yul\":10858:10935   */\n    tag_214:\n        /* \"#utility.yul\":10961:11028   */\n      tag_215\n        /* \"#utility.yul\":11021:11027   */\n      dup6\n        /* \"#utility.yul\":11014:11019   */\n      dup3\n        /* \"#utility.yul\":10961:11028   */\n      tag_90\n      jump\t// in\n    tag_215:\n        /* \"#utility.yul\":10955:10959   */\n      dup7\n        /* \"#utility.yul\":10948:11029   */\n      sstore\n        /* \"#utility.yul\":10817:11039   */\n      pop\n        /* \"#utility.yul\":10152:11039   */\n      jump(tag_212)\n        /* \"#utility.yul\":10182:10800   */\n    tag_213:\n        /* \"#utility.yul\":10234:10238   */\n      0x1f\n        /* \"#utility.yul\":10230:10239   */\n      not\n        /* \"#utility.yul\":10222:10228   */\n      dup5\n        /* \"#utility.yul\":10218:10240   */\n      and\n        /* \"#utility.yul\":10268:10305   */\n      tag_216\n        /* \"#utility.yul\":10300:10304   */\n      dup7\n        /* \"#utility.yul\":10268:10305   */\n      tag_76\n      jump\t// in\n    tag_216:\n        /* \"#utility.yul\":10327:10328   */\n      0x00\n        /* \"#utility.yul\":10341:10549   */\n    tag_217:\n        /* \"#utility.yul\":10355:10362   */\n      dup3\n        /* \"#utility.yul\":10352:10353   */\n      dup2\n        /* \"#utility.yul\":10349:10363   */\n      lt\n        /* \"#utility.yul\":10341:10549   */\n      iszero\n      tag_219\n      jumpi\n        /* \"#utility.yul\":10434:10443   */\n      dup5\n        /* \"#utility.yul\":10429:10432   */\n      dup10\n        /* \"#utility.yul\":10425:10444   */\n      add\n        /* \"#utility.yul\":10419:10445   */\n      mload\n        /* \"#utility.yul\":10411:10417   */\n      dup3\n        /* \"#utility.yul\":10404:10446   */\n      sstore\n        /* \"#utility.yul\":10485:10486   */\n      0x01\n        /* \"#utility.yul\":10477:10483   */\n      dup3\n        /* \"#utility.yul\":10473:10487   */\n      add\n        /* \"#utility.yul\":10463:10487   */\n      swap2\n      pop\n        /* \"#utility.yul\":10532:10534   */\n      0x20\n        /* \"#utility.yul\":10521:10530   */\n      dup6\n        /* \"#utility.yul\":10517:10535   */\n      add\n        /* \"#utility.yul\":10504:10535   */\n      swap5\n      pop\n        /* \"#utility.yul\":10378:10382   */\n      0x20\n        /* \"#utility.yul\":10375:10376   */\n      dup2\n        /* \"#utility.yul\":10371:10383   */\n      add\n        /* \"#utility.yul\":10366:10383   */\n      swap1\n      pop\n        /* \"#utility.yul\":10341:10549   */\n      jump(tag_217)\n    tag_219:\n        /* \"#utility.yul\":10577:10583   */\n      dup7\n        /* \"#utility.yul\":10568:10575   */\n      dup4\n        /* \"#utility.yul\":10565:10584   */\n      lt\n        /* \"#utility.yul\":10562:10741   */\n      iszero\n      tag_220\n      jumpi\n        /* \"#utility.yul\":10635:10644   */\n      dup5\n        /* \"#utility.yul\":10630:10633   */\n      dup10\n        /* \"#utility.yul\":10626:10645   */\n      add\n        /* \"#utility.yul\":10620:10646   */\n      mload\n        /* \"#utility.yul\":10678:10726   */\n      tag_221\n        /* \"#utility.yul\":10720:10724   */\n      0x1f\n        /* \"#utility.yul\":10712:10718   */\n      dup10\n        /* \"#utility.yul\":10708:10725   */\n      and\n        /* \"#utility.yul\":10697:10706   */\n      dup3\n        /* \"#utility.yul\":10678:10726   */\n      tag_89\n      jump\t// in\n    tag_221:\n        /* \"#utility.yul\":10670:10676   */\n      dup4\n        /* \"#utility.yul\":10663:10727   */\n      sstore\n        /* \"#utility.yul\":10585:10741   */\n      pop\n        /* \"#utility.yul\":10562:10741   */\n    tag_220:\n        /* \"#utility.yul\":10787:10788   */\n      0x01\n        /* \"#utility.yul\":10783:10784   */\n      0x02\n        /* \"#utility.yul\":10775:10781   */\n      dup9\n        /* \"#utility.yul\":10771:10785   */\n      mul\n        /* \"#utility.yul\":10767:10789   */\n      add\n        /* \"#utility.yul\":10761:10765   */\n      dup9\n        /* \"#utility.yul\":10754:10790   */\n      sstore\n        /* \"#utility.yul\":10189:10800   */\n      pop\n      pop\n      pop\n        /* \"#utility.yul\":10152:11039   */\n    tag_212:\n      pop\n        /* \"#utility.yul\":9742:11045   */\n      pop\n      pop\n      pop\n        /* \"#utility.yul\":9650:11045   */\n      pop\n      pop\n      jump\t// out\n        /* \"#utility.yul\":11051:11271   */\n    tag_91:\n        /* \"#utility.yul\":11191:11225   */\n      0x4f6e6c79206f776e65722063616e207669657720666f7274756e6520636f756e\n        /* \"#utility.yul\":11187:11188   */\n      0x00\n        /* \"#utility.yul\":11179:11185   */\n      dup3\n        /* \"#utility.yul\":11175:11189   */\n      add\n        /* \"#utility.yul\":11168:11226   */\n      mstore\n        /* \"#utility.yul\":11260:11263   */\n      0x7400000000000000000000000000000000000000000000000000000000000000\n        /* \"#utility.yul\":11255:11257   */\n      0x20\n        /* \"#utility.yul\":11247:11253   */\n      dup3\n        /* \"#utility.yul\":11243:11258   */\n      add\n        /* \"#utility.yul\":11236:11264   */\n      mstore\n        /* \"#utility.yul\":11051:11271   */\n      pop\n      jump\t// out\n        /* \"#utility.yul\":11277:11643   */\n    tag_92:\n        /* \"#utility.yul\":11419:11422   */\n      0x00\n        /* \"#utility.yul\":11440:11507   */\n      tag_224\n        /* \"#utility.yul\":11504:11506   */\n      0x21\n        /* \"#utility.yul\":11499:11502   */\n      dup4\n        /* \"#utility.yul\":11440:11507   */\n      tag_70\n      jump\t// in\n    tag_224:\n        /* \"#utility.yul\":11433:11507   */\n      swap2\n      pop\n        /* \"#utility.yul\":11516:11609   */\n      tag_225\n        /* \"#utility.yul\":11605:11608   */\n      dup3\n        /* \"#utility.yul\":11516:11609   */\n      tag_91\n      jump\t// in\n    tag_225:\n        /* \"#utility.yul\":11634:11636   */\n      0x40\n        /* \"#utility.yul\":11629:11632   */\n      dup3\n        /* \"#utility.yul\":11625:11637   */\n      add\n        /* \"#utility.yul\":11618:11637   */\n      swap1\n      pop\n        /* \"#utility.yul\":11277:11643   */\n      swap2\n      swap1\n      pop\n      jump\t// out\n        /* \"#utility.yul\":11649:12068   */\n    tag_33:\n        /* \"#utility.yul\":11815:11819   */\n      0x00\n        /* \"#utility.yul\":11853:11855   */\n      0x20\n        /* \"#utility.yul\":11842:11851   */\n      dup3\n        /* \"#utility.yul\":11838:11856   */\n      add\n        /* \"#utility.yul\":11830:11856   */\n      swap1\n      pop\n        /* \"#utility.yul\":11902:11911   */\n      dup2\n        /* \"#utility.yul\":11896:11900   */\n      dup2\n        /* \"#utility.yul\":11892:11912   */\n      sub\n        /* \"#utility.yul\":11888:11889   */\n      0x00\n        /* \"#utility.yul\":11877:11886   */\n      dup4\n        /* \"#utility.yul\":11873:11890   */\n      add\n        /* \"#utility.yul\":11866:11913   */\n      mstore\n        /* \"#utility.yul\":11930:12061   */\n      tag_227\n        /* \"#utility.yul\":12056:12060   */\n      dup2\n        /* \"#utility.yul\":11930:12061   */\n      tag_92\n      jump\t// in\n    tag_227:\n        /* \"#utility.yul\":11922:12061   */\n      swap1\n      pop\n        /* \"#utility.yul\":11649:12068   */\n      swap2\n      swap1\n      pop\n      jump\t// out\n        /* \"#utility.yul\":12074:12153   */\n    tag_93:\n        /* \"#utility.yul\":12113:12120   */\n      0x00\n        /* \"#utility.yul\":12142:12147   */\n      dup2\n        /* \"#utility.yul\":12131:12147   */\n      swap1\n      pop\n        /* \"#utility.yul\":12074:12153   */\n      swap2\n      swap1\n      pop\n      jump\t// out\n        /* \"#utility.yul\":12159:12316   */\n    tag_94:\n        /* \"#utility.yul\":12264:12309   */\n      tag_230\n        /* \"#utility.yul\":12284:12308   */\n      tag_231\n        /* \"#utility.yul\":12302:12307   */\n      dup3\n        /* \"#utility.yul\":12284:12308   */\n      tag_64\n      jump\t// in\n    tag_231:\n        /* \"#utility.yul\":12264:12309   */\n      tag_93\n      jump\t// in\n    tag_230:\n        /* \"#utility.yul\":12259:12262   */\n      dup3\n        /* \"#utility.yul\":12252:12310   */\n      mstore\n        /* \"#utility.yul\":12159:12316   */\n      pop\n      pop\n      jump\t// out\n        /* \"#utility.yul\":12322:12416   */\n    tag_95:\n        /* \"#utility.yul\":12355:12363   */\n      0x00\n        /* \"#utility.yul\":12403:12408   */\n      dup2\n        /* \"#utility.yul\":12399:12401   */\n      0x60\n        /* \"#utility.yul\":12395:12409   */\n      shl\n        /* \"#utility.yul\":12374:12409   */\n      swap1\n      pop\n        /* \"#utility.yul\":12322:12416   */\n      swap2\n      swap1\n      pop\n      jump\t// out\n        /* \"#utility.yul\":12422:12516   */\n    tag_96:\n        /* \"#utility.yul\":12461:12468   */\n      0x00\n        /* \"#utility.yul\":12490:12510   */\n      tag_234\n        /* \"#utility.yul\":12504:12509   */\n      dup3\n        /* \"#utility.yul\":12490:12510   */\n      tag_95\n      jump\t// in\n    tag_234:\n        /* \"#utility.yul\":12479:12510   */\n      swap1\n      pop\n        /* \"#utility.yul\":12422:12516   */\n      swap2\n      swap1\n      pop\n      jump\t// out\n        /* \"#utility.yul\":12522:12622   */\n    tag_97:\n        /* \"#utility.yul\":12561:12568   */\n      0x00\n        /* \"#utility.yul\":12590:12616   */\n      tag_236\n        /* \"#utility.yul\":12610:12615   */\n      dup3\n        /* \"#utility.yul\":12590:12616   */\n      tag_96\n      jump\t// in\n    tag_236:\n        /* \"#utility.yul\":12579:12616   */\n      swap1\n      pop\n        /* \"#utility.yul\":12522:12622   */\n      swap2\n      swap1\n      pop\n      jump\t// out\n        /* \"#utility.yul\":12628:12785   */\n    tag_98:\n        /* \"#utility.yul\":12733:12778   */\n      tag_238\n        /* \"#utility.yul\":12753:12777   */\n      tag_239\n        /* \"#utility.yul\":12771:12776   */\n      dup3\n        /* \"#utility.yul\":12753:12777   */\n      tag_67\n      jump\t// in\n    tag_239:\n        /* \"#utility.yul\":12733:12778   */\n      tag_97\n      jump\t// in\n    tag_238:\n        /* \"#utility.yul\":12728:12731   */\n      dup3\n        /* \"#utility.yul\":12721:12779   */\n      mstore\n        /* \"#utility.yul\":12628:12785   */\n      pop\n      pop\n      jump\t// out\n        /* \"#utility.yul\":12791:13329   */\n    tag_36:\n        /* \"#utility.yul\":12959:12962   */\n      0x00\n        /* \"#utility.yul\":12974:13049   */\n      tag_241\n        /* \"#utility.yul\":13045:13048   */\n      dup3\n        /* \"#utility.yul\":13036:13042   */\n      dup7\n        /* \"#utility.yul\":12974:13049   */\n      tag_94\n      jump\t// in\n    tag_241:\n        /* \"#utility.yul\":13074:13076   */\n      0x20\n        /* \"#utility.yul\":13069:13072   */\n      dup3\n        /* \"#utility.yul\":13065:13077   */\n      add\n        /* \"#utility.yul\":13058:13077   */\n      swap2\n      pop\n        /* \"#utility.yul\":13087:13162   */\n      tag_242\n        /* \"#utility.yul\":13158:13161   */\n      dup3\n        /* \"#utility.yul\":13149:13155   */\n      dup6\n        /* \"#utility.yul\":13087:13162   */\n      tag_98\n      jump\t// in\n    tag_242:\n        /* \"#utility.yul\":13187:13189   */\n      0x14\n        /* \"#utility.yul\":13182:13185   */\n      dup3\n        /* \"#utility.yul\":13178:13190   */\n      add\n        /* \"#utility.yul\":13171:13190   */\n      swap2\n      pop\n        /* \"#utility.yul\":13200:13275   */\n      tag_243\n        /* \"#utility.yul\":13271:13274   */\n      dup3\n        /* \"#utility.yul\":13262:13268   */\n      dup5\n        /* \"#utility.yul\":13200:13275   */\n      tag_94\n      jump\t// in\n    tag_243:\n        /* \"#utility.yul\":13300:13302   */\n      0x20\n        /* \"#utility.yul\":13295:13298   */\n      dup3\n        /* \"#utility.yul\":13291:13303   */\n      add\n        /* \"#utility.yul\":13284:13303   */\n      swap2\n      pop\n        /* \"#utility.yul\":13320:13323   */\n      dup2\n        /* \"#utility.yul\":13313:13323   */\n      swap1\n      pop\n        /* \"#utility.yul\":12791:13329   */\n      swap5\n      swap4\n      pop\n      pop\n      pop\n      pop\n      jump\t// out\n        /* \"#utility.yul\":13335:13515   */\n    tag_99:\n        /* \"#utility.yul\":13383:13460   */\n      0x4e487b7100000000000000000000000000000000000000000000000000000000\n        /* \"#utility.yul\":13380:13381   */\n      0x00\n        /* \"#utility.yul\":13373:13461   */\n      mstore\n        /* \"#utility.yul\":13480:13484   */\n      0x12\n        /* \"#utility.yul\":13477:13478   */\n      0x04\n        /* \"#utility.yul\":13470:13485   */\n      mstore\n        /* \"#utility.yul\":13504:13508   */\n      0x24\n        /* \"#utility.yul\":13501:13502   */\n      0x00\n        /* \"#utility.yul\":13494:13509   */\n      revert\n        /* \"#utility.yul\":13521:13697   */\n    tag_38:\n        /* \"#utility.yul\":13553:13554   */\n      0x00\n        /* \"#utility.yul\":13570:13590   */\n      tag_246\n        /* \"#utility.yul\":13588:13589   */\n      dup3\n        /* \"#utility.yul\":13570:13590   */\n      tag_64\n      jump\t// in\n    tag_246:\n        /* \"#utility.yul\":13565:13590   */\n      swap2\n      pop\n        /* \"#utility.yul\":13604:13624   */\n      tag_247\n        /* \"#utility.yul\":13622:13623   */\n      dup4\n        /* \"#utility.yul\":13604:13624   */\n      tag_64\n      jump\t// in\n    tag_247:\n        /* \"#utility.yul\":13599:13624   */\n      swap3\n      pop\n        /* \"#utility.yul\":13643:13644   */\n      dup3\n        /* \"#utility.yul\":13633:13668   */\n      tag_248\n      jumpi\n        /* \"#utility.yul\":13648:13666   */\n      tag_249\n      tag_99\n      jump\t// in\n    tag_249:\n        /* \"#utility.yul\":13633:13668   */\n    tag_248:\n        /* \"#utility.yul\":13689:13690   */\n      dup3\n        /* \"#utility.yul\":13686:13687   */\n      dup3\n        /* \"#utility.yul\":13682:13691   */\n      mod\n        /* \"#utility.yul\":13677:13691   */\n      swap1\n      pop\n        /* \"#utility.yul\":13521:13697   */\n      swap3\n      swap2\n      pop\n      pop\n      jump\t// out\n        /* \"#utility.yul\":13703:13883   */\n    tag_41:\n        /* \"#utility.yul\":13751:13828   */\n      0x4e487b7100000000000000000000000000000000000000000000000000000000\n        /* \"#utility.yul\":13748:13749   */\n      0x00\n        /* \"#utility.yul\":13741:13829   */\n      mstore\n        /* \"#utility.yul\":13848:13852   */\n      0x32\n        /* \"#utility.yul\":13845:13846   */\n      0x04\n        /* \"#utility.yul\":13838:13853   */\n      mstore\n        /* \"#utility.yul\":13872:13876   */\n      0x24\n        /* \"#utility.yul\":13869:13870   */\n      0x00\n        /* \"#utility.yul\":13862:13877   */\n      revert\n        /* \"#utility.yul\":13889:14422   */\n    tag_50:\n        /* \"#utility.yul\":14058:14062   */\n      0x00\n        /* \"#utility.yul\":14096:14098   */\n      0x60\n        /* \"#utility.yul\":14085:14094   */\n      dup3\n        /* \"#utility.yul\":14081:14099   */\n      add\n        /* \"#utility.yul\":14073:14099   */\n      swap1\n      pop\n        /* \"#utility.yul\":14109:14180   */\n      tag_252\n        /* \"#utility.yul\":14177:14178   */\n      0x00\n        /* \"#utility.yul\":14166:14175   */\n      dup4\n        /* \"#utility.yul\":14162:14179   */\n      add\n        /* \"#utility.yul\":14153:14159   */\n      dup7\n        /* \"#utility.yul\":14109:14180   */\n      tag_68\n      jump\t// in\n    tag_252:\n        /* \"#utility.yul\":14227:14236   */\n      dup2\n        /* \"#utility.yul\":14221:14225   */\n      dup2\n        /* \"#utility.yul\":14217:14237   */\n      sub\n        /* \"#utility.yul\":14212:14214   */\n      0x20\n        /* \"#utility.yul\":14201:14210   */\n      dup4\n        /* \"#utility.yul\":14197:14215   */\n      add\n        /* \"#utility.yul\":14190:14238   */\n      mstore\n        /* \"#utility.yul\":14255:14333   */\n      tag_253\n        /* \"#utility.yul\":14328:14332   */\n      dup2\n        /* \"#utility.yul\":14319:14325   */\n      dup6\n        /* \"#utility.yul\":14255:14333   */\n      tag_72\n      jump\t// in\n    tag_253:\n        /* \"#utility.yul\":14247:14333   */\n      swap1\n      pop\n        /* \"#utility.yul\":14343:14415   */\n      tag_254\n        /* \"#utility.yul\":14411:14413   */\n      0x40\n        /* \"#utility.yul\":14400:14409   */\n      dup4\n        /* \"#utility.yul\":14396:14414   */\n      add\n        /* \"#utility.yul\":14387:14393   */\n      dup5\n        /* \"#utility.yul\":14343:14415   */\n      tag_65\n      jump\t// in\n    tag_254:\n        /* \"#utility.yul\":13889:14422   */\n      swap5\n      swap4\n      pop\n      pop\n      pop\n      pop\n      jump\t// out\n\n    auxdata: 0xa26469706673582212203acfbf2ad9576670f73b1381269504f7857717c0ba56640680fc01e0dcf826e264736f6c634300081a0033\n}\n",
				"bytecode": {
					"linkReferences": {},
					"object": "608060405234801561000f575f80fd5b503360015f6101000a81548173ffffffffffffffffffffffffffffffffffffffff021916908373ffffffffffffffffffffffffffffffffffffffff1602179055505f8060018154018082558091505060019003905f5260205f20015f604051806080016040528060448152602001611e716044913990919091509081610095919061103b565b505f8060018154018082558091505060019003905f5260205f20015f60405180608001604052806042815260200161244360429139909190915090816100db919061103b565b505f8060018154018082558091505060019003905f5260205f20015f604051806060016040528060378152602001611d636037913990919091509081610121919061103b565b505f8060018154018082558091505060019003905f5260205f20015f604051806060016040528060328152602001611f246032913990919091509081610167919061103b565b505f8060018154018082558091505060019003905f5260205f20015f6040518060600160405280603281526020016125c060329139909190915090816101ad919061103b565b505f8060018154018082558091505060019003905f5260205f20015f604051806060016040528060288152602001611fcb60289139909190915090816101f3919061103b565b505f8060018154018082558091505060019003905f5260205f20015f6040518060600160405280602e815260200161235e602e913990919091509081610239919061103b565b505f8060018154018082558091505060019003905f5260205f20015f6040518060600160405280603b8152602001612077603b91399091909150908161027f919061103b565b505f8060018154018082558091505060019003905f5260205f20015f60405180606001604052806033815260200161210d60339139909190915090816102c5919061103b565b505f8060018154018082558091505060019003905f5260205f20015f6040518060600160405280602381526020016124de602391399091909150908161030b919061103b565b505f8060018154018082558091505060019003905f5260205f20015f604051806080016040528060568152602001611d9a6056913990919091509081610351919061103b565b505f8060018154018082558091505060019003905f5260205f20015f6040518060600160405280603881526020016126256038913990919091509081610397919061103b565b505f8060018154018082558091505060019003905f5260205f20015f60405180608001604052806052815260200161225460529139909190915090816103dd919061103b565b505f8060018154018082558091505060019003905f5260205f20015f604051806060016040528060338152602001611e166033913990919091509081610423919061103b565b505f8060018154018082558091505060019003905f5260205f20015f6040518060600160405280602a81526020016124b4602a913990919091509081610469919061103b565b505f8060018154018082558091505060019003905f5260205f20015f6040518060600160405280603d81526020016122f0603d9139909190915090816104af919061103b565b505f8060018154018082558091505060019003905f5260205f20015f6040518060800160405280604781526020016121d860479139909190915090816104f5919061103b565b505f8060018154018082558091505060019003905f5260205f20015f604051806060016040528060238152602001611ca3602391399091909150908161053b919061103b565b505f8060018154018082558091505060019003905f5260205f20015f6040518060600160405280602481526020016122a66024913990919091509081610581919061103b565b505f8060018154018082558091505060019003905f5260205f20015f6040518060600160405280603d8152602001611ee7603d9139909190915090816105c7919061103b565b505f8060018154018082558091505060019003905f5260205f20015f60405180606001604052806039815260200161203e603991399091909150908161060d919061103b565b505f8060018154018082558091505060019003905f5260205f20015f6040518060600160405280603c8152602001611d27603c913990919091509081610653919061103b565b505f8060018154018082558091505060019003905f5260205f20015f6040518060600160405280602481526020016120b26024913990919091509081610699919061103b565b505f8060018154018082558091505060019003905f5260205f20015f6040518060600160405280602d81526020016123bf602d9139909190915090816106df919061103b565b505f8060018154018082558091505060019003905f5260205f20015f6040518060600160405280602f8152602001612485602f913990919091509081610725919061103b565b505f8060018154018082558091505060019003905f5260205f20015f6040518060600160405280602e81526020016123ec602e91399091909150908161076b919061103b565b505f8060018154018082558091505060019003905f5260205f20015f60405180606001604052806039815260200161214060399139909190915090816107b1919061103b565b505f8060018154018082558091505060019003905f5260205f20015f60405180606001604052806031815260200161232d60319139909190915090816107f7919061103b565b505f8060018154018082558091505060019003905f5260205f20015f60405180606001604052806029815260200161241a602991399091909150908161083d919061103b565b505f8060018154018082558091505060019003905f5260205f20015f6040518060600160405280603781526020016120d66037913990919091509081610883919061103b565b505f8060018154018082558091505060019003905f5260205f20015f60405180606001604052806032815260200161258e60329139909190915090816108c9919061103b565b505f8060018154018082558091505060019003905f5260205f20015f6040518060600160405280602681526020016122ca602691399091909150908161090f919061103b565b505f8060018154018082558091505060019003905f5260205f20015f604051806080016040528060418152602001611f566041913990919091509081610955919061103b565b505f8060018154018082558091505060019003905f5260205f20015f604051806060016040528060268152602001611df0602691399091909150908161099b919061103b565b505f8060018154018082558091505060019003905f5260205f20015f604051806060016040528060368152602001611cc660369139909190915090816109e1919061103b565b505f8060018154018082558091505060019003905f5260205f20015f604051806060016040528060348152602001611f976034913990919091509081610a27919061103b565b505f8060018154018082558091505060019003905f5260205f20015f6040518060600160405280602b8152602001612501602b913990919091509081610a6d919061103b565b505f8060018154018082558091505060019003905f5260205f20015f6040518060600160405280603881526020016121a06038913990919091509081610ab3919061103b565b505f8060018154018082558091505060019003905f5260205f20015f604051806060016040528060228152602001611ff36022913990919091509081610af9919061103b565b505f8060018154018082558091505060019003905f5260205f20015f6040518060600160405280602981526020016120156029913990919091509081610b3f919061103b565b505f8060018154018082558091505060019003905f5260205f20015f6040518060600160405280603381526020016125f26033913990919091509081610b85919061103b565b505f8060018154018082558091505060019003905f5260205f20015f60405180606001604052806035815260200161221f6035913990919091509081610bcb919061103b565b505f8060018154018082558091505060019003905f5260205f20015f604051806060016040528060328152602001611eb56032913990919091509081610c11919061103b565b505f8060018154018082558091505060019003905f5260205f20015f6040518060600160405280602b8152602001611cfc602b913990919091509081610c57919061103b565b505f8060018154018082558091505060019003905f5260205f20015f60405180606001604052806033815260200161238c6033913990919091509081610c9d919061103b565b505f8060018154018082558091505060019003905f5260205f20015f6040518060600160405280602f815260200161255f602f913990919091509081610ce3919061103b565b505f8060018154018082558091505060019003905f5260205f20015f6040518060600160405280602781526020016121796027913990919091509081610d29919061103b565b505f8060018154018082558091505060019003905f5260205f20015f60405180606001604052806033815260200161252c6033913990919091509081610d6f919061103b565b505f8060018154018082558091505060019003905f5260205f20015f604051806060016040528060248152602001611c7f6024913990919091509081610db5919061103b565b505f8060018154018082558091505060019003905f5260205f20015f604051806060016040528060288152602001611e496028913990919091509081610dfb919061103b565b5061110a565b5f81519050919050565b7f4e487b71000000000000000000000000000000000000000000000000000000005f52604160045260245ffd5b7f4e487b71000000000000000000000000000000000000000000000000000000005f52602260045260245ffd5b5f6002820490506001821680610e7c57607f821691505b602082108103610e8f57610e8e610e38565b5b50919050565b5f819050815f5260205f209050919050565b5f6020601f8301049050919050565b5f82821b905092915050565b5f60088302610ef17fffffffffffffffffffffffffffffffffffffffffffffffffffffffffffffffff82610eb6565b610efb8683610eb6565b95508019841693508086168417925050509392505050565b5f819050919050565b5f819050919050565b5f610f3f610f3a610f3584610f13565b610f1c565b610f13565b9050919050565b5f819050919050565b610f5883610f25565b610f6c610f6482610f46565b848454610ec2565b825550505050565b5f90565b610f80610f74565b610f8b818484610f4f565b505050565b5b81811015610fae57610fa35f82610f78565b600181019050610f91565b5050565b601f821115610ff357610fc481610e95565b610fcd84610ea7565b81016020851015610fdc578190505b610ff0610fe885610ea7565b830182610f90565b50505b505050565b5f82821c905092915050565b5f6110135f1984600802610ff8565b1980831691505092915050565b5f61102b8383611004565b9150826002028217905092915050565b61104482610e01565b67ffffffffffffffff81111561105d5761105c610e0b565b5b6110678254610e65565b611072828285610fb2565b5f60209050601f8311600181146110a3575f8415611091578287015190505b61109b8582611020565b865550611102565b601f1984166110b186610e95565b5f5b828110156110d8578489015182556001820191506020850194506020810190506110b3565b868310156110f557848901516110f1601f891682611004565b8355505b6001600288020188555050505b505050505050565b610b68806111175f395ff3fe608060405234801561000f575f80fd5b506004361061004a575f3560e01c80634cf373e61461004e5780635b8b65821461006a5780638da5cb5b1461008857806393ce6c1c146100a6575b5f80fd5b610068600480360381019061006391906104bc565b6100c4565b005b610072610187565b60405161007f919061051b565b60405180910390f35b610090610221565b60405161009d9190610573565b60405180910390f35b6100ae610246565b6040516100bb91906105ec565b60405180910390f35b60015f9054906101000a900473ffffffffffffffffffffffffffffffffffffffff1673ffffffffffffffffffffffffffffffffffffffff163373ffffffffffffffffffffffffffffffffffffffff1614610153576040517f08c379a000000000000000000000000000000000000000000000000000000000815260040161014a90610656565b60405180910390fd5b5f81908060018154018082558091505060019003905f5260205f20015f909190919091509081610183919061086e565b5050565b5f60015f9054906101000a900473ffffffffffffffffffffffffffffffffffffffff1673ffffffffffffffffffffffffffffffffffffffff163373ffffffffffffffffffffffffffffffffffffffff1614610217576040517f08c379a000000000000000000000000000000000000000000000000000000000815260040161020e906109ad565b60405180910390fd5b5f80549050905090565b60015f9054906101000a900473ffffffffffffffffffffffffffffffffffffffff1681565b60605f808054905042334460405160200161026393929190610a30565b604051602081830303815290604052805190602001205f1c6102859190610a99565b90505f80828154811061029b5761029a610ac9565b5b905f5260205f200180546102ae906106a1565b80601f01602080910402602001604051908101604052809291908181526020018280546102da906106a1565b80156103255780601f106102fc57610100808354040283529160200191610325565b820191905f5260205f20905b81548152906001019060200180831161030857829003601f168201915b505050505090507f066298f218a95834dd8d57814339953fabfe8c9bf89dcd37697610dec82a7f6f33824260405161035f93929190610af6565b60405180910390a1809250505090565b5f604051905090565b5f80fd5b5f80fd5b5f80fd5b5f80fd5b5f601f19601f8301169050919050565b7f4e487b71000000000000000000000000000000000000000000000000000000005f52604160045260245ffd5b6103ce82610388565b810181811067ffffffffffffffff821117156103ed576103ec610398565b5b80604052505050565b5f6103ff61036f565b905061040b82826103c5565b919050565b5f67ffffffffffffffff82111561042a57610429610398565b5b61043382610388565b9050602081019050919050565b828183375f83830152505050565b5f61046061045b84610410565b6103f6565b90508281526020810184848401111561047c5761047b610384565b5b610487848285610440565b509392505050565b5f82601f8301126104a3576104a2610380565b5b81356104b384826020860161044e565b91505092915050565b5f602082840312156104d1576104d0610378565b5b5f82013567ffffffffffffffff8111156104ee576104ed61037c565b5b6104fa8482850161048f565b91505092915050565b5f819050919050565b61051581610503565b82525050565b5f60208201905061052e5f83018461050c565b92915050565b5f73ffffffffffffffffffffffffffffffffffffffff82169050919050565b5f61055d82610534565b9050919050565b61056d81610553565b82525050565b5f6020820190506105865f830184610564565b92915050565b5f81519050919050565b5f82825260208201905092915050565b8281835e5f83830152505050565b5f6105be8261058c565b6105c88185610596565b93506105d88185602086016105a6565b6105e181610388565b840191505092915050565b5f6020820190508181035f83015261060481846105b4565b905092915050565b7f4f6e6c79206f776e65722063616e2061646420666f7274756e657300000000005f82015250565b5f610640601b83610596565b915061064b8261060c565b602082019050919050565b5f6020820190508181035f83015261066d81610634565b9050919050565b7f4e487b71000000000000000000000000000000000000000000000000000000005f52602260045260245ffd5b5f60028204905060018216806106b857607f821691505b6020821081036106cb576106ca610674565b5b50919050565b5f819050815f5260205f209050919050565b5f6020601f8301049050919050565b5f82821b905092915050565b5f6008830261072d7fffffffffffffffffffffffffffffffffffffffffffffffffffffffffffffffff826106f2565b61073786836106f2565b95508019841693508086168417925050509392505050565b5f819050919050565b5f61077261076d61076884610503565b61074f565b610503565b9050919050565b5f819050919050565b61078b83610758565b61079f61079782610779565b8484546106fe565b825550505050565b5f90565b6107b36107a7565b6107be818484610782565b505050565b5b818110156107e1576107d65f826107ab565b6001810190506107c4565b5050565b601f821115610826576107f7816106d1565b610800846106e3565b8101602085101561080f578190505b61082361081b856106e3565b8301826107c3565b50505b505050565b5f82821c905092915050565b5f6108465f198460080261082b565b1980831691505092915050565b5f61085e8383610837565b9150826002028217905092915050565b6108778261058c565b67ffffffffffffffff8111156108905761088f610398565b5b61089a82546106a1565b6108a58282856107e5565b5f60209050601f8311600181146108d6575f84156108c4578287015190505b6108ce8582610853565b865550610935565b601f1984166108e4866106d1565b5f5b8281101561090b578489015182556001820191506020850194506020810190506108e6565b868310156109285784890151610924601f891682610837565b8355505b6001600288020188555050505b505050505050565b7f4f6e6c79206f776e65722063616e207669657720666f7274756e6520636f756e5f8201527f7400000000000000000000000000000000000000000000000000000000000000602082015250565b5f610997602183610596565b91506109a28261093d565b604082019050919050565b5f6020820190508181035f8301526109c48161098b565b9050919050565b5f819050919050565b6109e56109e082610503565b6109cb565b82525050565b5f8160601b9050919050565b5f610a01826109eb565b9050919050565b5f610a12826109f7565b9050919050565b610a2a610a2582610553565b610a08565b82525050565b5f610a3b82866109d4565b602082019150610a4b8285610a19565b601482019150610a5b82846109d4565b602082019150819050949350505050565b7f4e487b71000000000000000000000000000000000000000000000000000000005f52601260045260245ffd5b5f610aa382610503565b9150610aae83610503565b925082610abe57610abd610a6c565b5b828206905092915050565b7f4e487b71000000000000000000000000000000000000000000000000000000005f52603260045260245ffd5b5f606082019050610b095f830186610564565b8181036020830152610b1b81856105b4565b9050610b2a604083018461050c565b94935050505056fea26469706673582212203acfbf2ad9576670f73b1381269504f7857717c0ba56640680fc01e0dcf826e264736f6c634300081a0033476f6f64207468696e677320636f6d6520746f2074686f73652077686f207374616b652e41206c69666574696d65206f662068617070696e6573732061776169747320796f752e4120736f667420666f726b20696e20796f757220706174682077696c6c206c65616420746f20626574746572206f7574636f6d65732e596f7572206c6564676572206f6620676f6f642064656564732077696c6c2062652072657761726465642e54686520736d617274206d6f766520796f75206d616b6520746f6461792077696c6c206c65616420746f207375636365737320746f6d6f72726f772e4e6577206f70706f7274756e697469657320617761697420796f75206f6e20796f757220626c6f636b636861696e206a6f75726e65792e53756363657373206973206e6f742066696e616c2c206661696c757265206973206e6f7420666174616c3a2069742069732074686520636f757261676520746f20636f6e74696e7565207468617420636f756e74732e546865206f7261636c65207361797320796f757220667574757265206973206272696768742e536f6d656f6e652066726f6d20796f757220706173742077696c6c20736f6f6e207265656e74657220796f7572206c6966652e596f7572206d696e696e67206566666f72747320776f6e277420676f20756e72657761726465642e412062656175746966756c2c20736d6172742c20616e64206c6f76696e6720706572736f6e2077696c6c20626520636f6d696e6720696e746f20796f7572206c6966652e5468652070726f6f66206f6620796f757220776f726b206973206265636f6d696e672065766964656e7420746f20616c6c2e596f7572206162696c69747920746f20616461707420746f206368616c6c656e6765732077696c6c206272696e6720677265617420737563636573732e54686520736d61727420636f6e747261637420796f75207365656b20697320616c72656164792077697468696e20796f752e50617469656e63652069732061207669727475652c20657370656369616c6c79207768696c652077616974696e6720666f7220636f6e6669726d6174696f6e732e596f7572207075626c696320616464726573732077696c6c206174747261637420706f73697469766520617474656e74696f6e2e596f7572206e657874204e46542077696c6c206272696e6720756e6578706563746564206a6f792e5665726966792c207468656e20747275737420796f757220696e7374696e6374732e596f7572207369676e617475726520697320756e69717565202d2075736520697420776973656c792e41206a6f75726e6579206f6620612074686f7573616e64206d696c657320626567696e73207769746820612073696e676c6520626c6f636b2e4120736d616c6c20696e766573746d656e7420746f6461792077696c6c207969656c642067726561742072657475726e7320746f6d6f72726f772e596f757220646563656e7472616c697a656420667574757265206973206272696768742e596f757220706572736f6e616c20626c6f636b636861696e20697320616464696e6720626c6f636b73206f662068617070696e6573732e596f75722077616c6c65742077696c6c20736f6f6e207265636569766520612073757270726973696e672061697264726f702e5468652068617368206f6620796f7572206566666f7274732077696c6c20726573756c7420696e2076616c7561626c6520726577617264732e596f757220746f6b656e6f6d6963732061726520706572666563746c792062616c616e6365642e596f7572206469737472696275746564206566666f7274732077696c6c207969656c642063656e7472616c697a656420737563636573732e596f7572206861726420776f726b2069732061626f757420746f20706179206f66662e2052656d656d62657220746f2063656c65627261746520796f757220737563636573732e5768656e20696e20646f7562742c20636f6d6d697420746f20746865206d61696e20636861696e206f6620796f7572206c6966652e416e206578636974696e67206f70706f7274756e6974792077696c6c2070726573656e7420697473656c6620696620796f752072656d61696e206f70656e20746f206e657720657870657269656e6365732e546865206772656174657374207269736b206973206e6f742074616b696e67206f6e652e5374616b6520796f757220636c61696d20696e2077686174206d617474657273206d6f73742e41206368616e6365206d656574696e672077696c6c206c65616420746f20696d706f7274616e74206368616e67657320696e20796f7572206c6966652e596f7572207472616e73616374696f6e2077696c6c20636f6e6669726d20696e20756e657870656374656420776179732e54686520746f6b656e20796f75277665206265656e2069676e6f72696e672077696c6c20736f6f6e206d6f6f6e2e536f6d6574696d65732074686520626573742076616c696461746f7220697320796f7572206f776e20696e74756974696f6e2e54727573742074686520696d6d757461626c65206e6174757265206f6620796f7572206465636973696f6e732e436f6e73656e7375732077696c6c206265207265616368656420696e20796f7572206661766f7220746f6461792e446f6e2774207761697420666f7220676173206665657320746f2064726f702e20416374206e6f772e596f757220637265617469766974792077696c6c206d616b6520796f75207375636365737366756c20696e20616e20756e65787065637465642076656e747572652e412070726976617465206b6579206973206c696b65206120736563726574202d2067756172642069742077656c6c2e54686520776973646f6d20796f75207365656b20697320616c72656164792077697468696e20796f752e5468652062756720696e20796f757220636f6465206973206f6e206c696e652034322e546865206e65787420626c6f636b2077696c6c206272696e6720796f7520676f6f6420666f7274756e652e546865206e657874206861726420666f726b20696e20796f7572206c6966652077696c6c2062652062656e6566696369616c2e4120636f6e73656e737573206973206275696c64696e672061726f756e6420796f7572206c6561646572736869702e546f6461792773206d657267652077696c6c207265736f6c766520796f757220636f6e666c696374696e672070617468732e466f7274756e65206661766f72732074686520626f6c642e2054616b652074686174206c65617020696e746f20446546692e412067656e65736973206f66206e65772069646561732077696c6c207472616e73666f726d20796f75722070726f6a6563742e596f757220677265617465737420737472656e67746820697320796f75722070657273697374656e742064657465726d696e6174696f6e2e",
					"opcodes": "PUSH1 0x80 PUSH1 0x40 MSTORE CALLVALUE DUP1 ISZERO PUSH2 0xF JUMPI PUSH0 DUP1 REVERT JUMPDEST POP CALLER PUSH1 0x1 PUSH0 PUSH2 0x100 EXP DUP2 SLOAD DUP2 PUSH20 0xFFFFFFFFFFFFFFFFFFFFFFFFFFFFFFFFFFFFFFFF MUL NOT AND SWAP1 DUP4 PUSH20 0xFFFFFFFFFFFFFFFFFFFFFFFFFFFFFFFFFFFFFFFF AND MUL OR SWAP1 SSTORE POP PUSH0 DUP1 PUSH1 0x1 DUP2 SLOAD ADD DUP1 DUP3 SSTORE DUP1 SWAP2 POP POP PUSH1 0x1 SWAP1 SUB SWAP1 PUSH0 MSTORE PUSH1 0x20 PUSH0 KECCAK256 ADD PUSH0 PUSH1 0x40 MLOAD DUP1 PUSH1 0x80 ADD PUSH1 0x40 MSTORE DUP1 PUSH1 0x44 DUP2 MSTORE PUSH1 0x20 ADD PUSH2 0x1E71 PUSH1 0x44 SWAP2 CODECOPY SWAP1 SWAP2 SWAP1 SWAP2 POP SWAP1 DUP2 PUSH2 0x95 SWAP2 SWAP1 PUSH2 0x103B JUMP JUMPDEST POP PUSH0 DUP1 PUSH1 0x1 DUP2 SLOAD ADD DUP1 DUP3 SSTORE DUP1 SWAP2 POP POP PUSH1 0x1 SWAP1 SUB SWAP1 PUSH0 MSTORE PUSH1 0x20 PUSH0 KECCAK256 ADD PUSH0 PUSH1 0x40 MLOAD DUP1 PUSH1 0x80 ADD PUSH1 0x40 MSTORE DUP1 PUSH1 0x42 DUP2 MSTORE PUSH1 0x20 ADD PUSH2 0x2443 PUSH1 0x42 SWAP2 CODECOPY SWAP1 SWAP2 SWAP1 SWAP2 POP SWAP1 DUP2 PUSH2 0xDB SWAP2 SWAP1 PUSH2 0x103B JUMP JUMPDEST POP PUSH0 DUP1 PUSH1 0x1 DUP2 SLOAD ADD DUP1 DUP3 SSTORE DUP1 SWAP2 POP POP PUSH1 0x1 SWAP1 SUB SWAP1 PUSH0 MSTORE PUSH1 0x20 PUSH0 KECCAK256 ADD PUSH0 PUSH1 0x40 MLOAD DUP1 PUSH1 0x60 ADD PUSH1 0x40 MSTORE DUP1 PUSH1 0x37 DUP2 MSTORE PUSH1 0x20 ADD PUSH2 0x1D63 PUSH1 0x37 SWAP2 CODECOPY SWAP1 SWAP2 SWAP1 SWAP2 POP SWAP1 DUP2 PUSH2 0x121 SWAP2 SWAP1 PUSH2 0x103B JUMP JUMPDEST POP PUSH0 DUP1 PUSH1 0x1 DUP2 SLOAD ADD DUP1 DUP3 SSTORE DUP1 SWAP2 POP POP PUSH1 0x1 SWAP1 SUB SWAP1 PUSH0 MSTORE PUSH1 0x20 PUSH0 KECCAK256 ADD PUSH0 PUSH1 0x40 MLOAD DUP1 PUSH1 0x60 ADD PUSH1 0x40 MSTORE DUP1 PUSH1 0x32 DUP2 MSTORE PUSH1 0x20 ADD PUSH2 0x1F24 PUSH1 0x32 SWAP2 CODECOPY SWAP1 SWAP2 SWAP1 SWAP2 POP SWAP1 DUP2 PUSH2 0x167 SWAP2 SWAP1 PUSH2 0x103B JUMP JUMPDEST POP PUSH0 DUP1 PUSH1 0x1 DUP2 SLOAD ADD DUP1 DUP3 SSTORE DUP1 SWAP2 POP POP PUSH1 0x1 SWAP1 SUB SWAP1 PUSH0 MSTORE PUSH1 0x20 PUSH0 KECCAK256 ADD PUSH0 PUSH1 0x40 MLOAD DUP1 PUSH1 0x60 ADD PUSH1 0x40 MSTORE DUP1 PUSH1 0x32 DUP2 MSTORE PUSH1 0x20 ADD PUSH2 0x25C0 PUSH1 0x32 SWAP2 CODECOPY SWAP1 SWAP2 SWAP1 SWAP2 POP SWAP1 DUP2 PUSH2 0x1AD SWAP2 SWAP1 PUSH2 0x103B JUMP JUMPDEST POP PUSH0 DUP1 PUSH1 0x1 DUP2 SLOAD ADD DUP1 DUP3 SSTORE DUP1 SWAP2 POP POP PUSH1 0x1 SWAP1 SUB SWAP1 PUSH0 MSTORE PUSH1 0x20 PUSH0 KECCAK256 ADD PUSH0 PUSH1 0x40 MLOAD DUP1 PUSH1 0x60 ADD PUSH1 0x40 MSTORE DUP1 PUSH1 0x28 DUP2 MSTORE PUSH1 0x20 ADD PUSH2 0x1FCB PUSH1 0x28 SWAP2 CODECOPY SWAP1 SWAP2 SWAP1 SWAP2 POP SWAP1 DUP2 PUSH2 0x1F3 SWAP2 SWAP1 PUSH2 0x103B JUMP JUMPDEST POP PUSH0 DUP1 PUSH1 0x1 DUP2 SLOAD ADD DUP1 DUP3 SSTORE DUP1 SWAP2 POP POP PUSH1 0x1 SWAP1 SUB SWAP1 PUSH0 MSTORE PUSH1 0x20 PUSH0 KECCAK256 ADD PUSH0 PUSH1 0x40 MLOAD DUP1 PUSH1 0x60 ADD PUSH1 0x40 MSTORE DUP1 PUSH1 0x2E DUP2 MSTORE PUSH1 0x20 ADD PUSH2 0x235E PUSH1 0x2E SWAP2 CODECOPY SWAP1 SWAP2 SWAP1 SWAP2 POP SWAP1 DUP2 PUSH2 0x239 SWAP2 SWAP1 PUSH2 0x103B JUMP JUMPDEST POP PUSH0 DUP1 PUSH1 0x1 DUP2 SLOAD ADD DUP1 DUP3 SSTORE DUP1 SWAP2 POP POP PUSH1 0x1 SWAP1 SUB SWAP1 PUSH0 MSTORE PUSH1 0x20 PUSH0 KECCAK256 ADD PUSH0 PUSH1 0x40 MLOAD DUP1 PUSH1 0x60 ADD PUSH1 0x40 MSTORE DUP1 PUSH1 0x3B DUP2 MSTORE PUSH1 0x20 ADD PUSH2 0x2077 PUSH1 0x3B SWAP2 CODECOPY SWAP1 SWAP2 SWAP1 SWAP2 POP SWAP1 DUP2 PUSH2 0x27F SWAP2 SWAP1 PUSH2 0x103B JUMP JUMPDEST POP PUSH0 DUP1 PUSH1 0x1 DUP2 SLOAD ADD DUP1 DUP3 SSTORE DUP1 SWAP2 POP POP PUSH1 0x1 SWAP1 SUB SWAP1 PUSH0 MSTORE PUSH1 0x20 PUSH0 KECCAK256 ADD PUSH0 PUSH1 0x40 MLOAD DUP1 PUSH1 0x60 ADD PUSH1 0x40 MSTORE DUP1 PUSH1 0x33 DUP2 MSTORE PUSH1 0x20 ADD PUSH2 0x210D PUSH1 0x33 SWAP2 CODECOPY SWAP1 SWAP2 SWAP1 SWAP2 POP SWAP1 DUP2 PUSH2 0x2C5 SWAP2 SWAP1 PUSH2 0x103B JUMP JUMPDEST POP PUSH0 DUP1 PUSH1 0x1 DUP2 SLOAD ADD DUP1 DUP3 SSTORE DUP1 SWAP2 POP POP PUSH1 0x1 SWAP1 SUB SWAP1 PUSH0 MSTORE PUSH1 0x20 PUSH0 KECCAK256 ADD PUSH0 PUSH1 0x40 MLOAD DUP1 PUSH1 0x60 ADD PUSH1 0x40 MSTORE DUP1 PUSH1 0x23 DUP2 MSTORE PUSH1 0x20 ADD PUSH2 0x24DE PUSH1 0x23 SWAP2 CODECOPY SWAP1 SWAP2 SWAP1 SWAP2 POP SWAP1 DUP2 PUSH2 0x30B SWAP2 SWAP1 PUSH2 0x103B JUMP JUMPDEST POP PUSH0 DUP1 PUSH1 0x1 DUP2 SLOAD ADD DUP1 DUP3 SSTORE DUP1 SWAP2 POP POP PUSH1 0x1 SWAP1 SUB SWAP1 PUSH0 MSTORE PUSH1 0x20 PUSH0 KECCAK256 ADD PUSH0 PUSH1 0x40 MLOAD DUP1 PUSH1 0x80 ADD PUSH1 0x40 MSTORE DUP1 PUSH1 0x56 DUP2 MSTORE PUSH1 0x20 ADD PUSH2 0x1D9A PUSH1 0x56 SWAP2 CODECOPY SWAP1 SWAP2 SWAP1 SWAP2 POP SWAP1 DUP2 PUSH2 0x351 SWAP2 SWAP1 PUSH2 0x103B JUMP JUMPDEST POP PUSH0 DUP1 PUSH1 0x1 DUP2 SLOAD ADD DUP1 DUP3 SSTORE DUP1 SWAP2 POP POP PUSH1 0x1 SWAP1 SUB SWAP1 PUSH0 MSTORE PUSH1 0x20 PUSH0 KECCAK256 ADD PUSH0 PUSH1 0x40 MLOAD DUP1 PUSH1 0x60 ADD PUSH1 0x40 MSTORE DUP1 PUSH1 0x38 DUP2 MSTORE PUSH1 0x20 ADD PUSH2 0x2625 PUSH1 0x38 SWAP2 CODECOPY SWAP1 SWAP2 SWAP1 SWAP2 POP SWAP1 DUP2 PUSH2 0x397 SWAP2 SWAP1 PUSH2 0x103B JUMP JUMPDEST POP PUSH0 DUP1 PUSH1 0x1 DUP2 SLOAD ADD DUP1 DUP3 SSTORE DUP1 SWAP2 POP POP PUSH1 0x1 SWAP1 SUB SWAP1 PUSH0 MSTORE PUSH1 0x20 PUSH0 KECCAK256 ADD PUSH0 PUSH1 0x40 MLOAD DUP1 PUSH1 0x80 ADD PUSH1 0x40 MSTORE DUP1 PUSH1 0x52 DUP2 MSTORE PUSH1 0x20 ADD PUSH2 0x2254 PUSH1 0x52 SWAP2 CODECOPY SWAP1 SWAP2 SWAP1 SWAP2 POP SWAP1 DUP2 PUSH2 0x3DD SWAP2 SWAP1 PUSH2 0x103B JUMP JUMPDEST POP PUSH0 DUP1 PUSH1 0x1 DUP2 SLOAD ADD DUP1 DUP3 SSTORE DUP1 SWAP2 POP POP PUSH1 0x1 SWAP1 SUB SWAP1 PUSH0 MSTORE PUSH1 0x20 PUSH0 KECCAK256 ADD PUSH0 PUSH1 0x40 MLOAD DUP1 PUSH1 0x60 ADD PUSH1 0x40 MSTORE DUP1 PUSH1 0x33 DUP2 MSTORE PUSH1 0x20 ADD PUSH2 0x1E16 PUSH1 0x33 SWAP2 CODECOPY SWAP1 SWAP2 SWAP1 SWAP2 POP SWAP1 DUP2 PUSH2 0x423 SWAP2 SWAP1 PUSH2 0x103B JUMP JUMPDEST POP PUSH0 DUP1 PUSH1 0x1 DUP2 SLOAD ADD DUP1 DUP3 SSTORE DUP1 SWAP2 POP POP PUSH1 0x1 SWAP1 SUB SWAP1 PUSH0 MSTORE PUSH1 0x20 PUSH0 KECCAK256 ADD PUSH0 PUSH1 0x40 MLOAD DUP1 PUSH1 0x60 ADD PUSH1 0x40 MSTORE DUP1 PUSH1 0x2A DUP2 MSTORE PUSH1 0x20 ADD PUSH2 0x24B4 PUSH1 0x2A SWAP2 CODECOPY SWAP1 SWAP2 SWAP1 SWAP2 POP SWAP1 DUP2 PUSH2 0x469 SWAP2 SWAP1 PUSH2 0x103B JUMP JUMPDEST POP PUSH0 DUP1 PUSH1 0x1 DUP2 SLOAD ADD DUP1 DUP3 SSTORE DUP1 SWAP2 POP POP PUSH1 0x1 SWAP1 SUB SWAP1 PUSH0 MSTORE PUSH1 0x20 PUSH0 KECCAK256 ADD PUSH0 PUSH1 0x40 MLOAD DUP1 PUSH1 0x60 ADD PUSH1 0x40 MSTORE DUP1 PUSH1 0x3D DUP2 MSTORE PUSH1 0x20 ADD PUSH2 0x22F0 PUSH1 0x3D SWAP2 CODECOPY SWAP1 SWAP2 SWAP1 SWAP2 POP SWAP1 DUP2 PUSH2 0x4AF SWAP2 SWAP1 PUSH2 0x103B JUMP JUMPDEST POP PUSH0 DUP1 PUSH1 0x1 DUP2 SLOAD ADD DUP1 DUP3 SSTORE DUP1 SWAP2 POP POP PUSH1 0x1 SWAP1 SUB SWAP1 PUSH0 MSTORE PUSH1 0x20 PUSH0 KECCAK256 ADD PUSH0 PUSH1 0x40 MLOAD DUP1 PUSH1 0x80 ADD PUSH1 0x40 MSTORE DUP1 PUSH1 0x47 DUP2 MSTORE PUSH1 0x20 ADD PUSH2 0x21D8 PUSH1 0x47 SWAP2 CODECOPY SWAP1 SWAP2 SWAP1 SWAP2 POP SWAP1 DUP2 PUSH2 0x4F5 SWAP2 SWAP1 PUSH2 0x103B JUMP JUMPDEST POP PUSH0 DUP1 PUSH1 0x1 DUP2 SLOAD ADD DUP1 DUP3 SSTORE DUP1 SWAP2 POP POP PUSH1 0x1 SWAP1 SUB SWAP1 PUSH0 MSTORE PUSH1 0x20 PUSH0 KECCAK256 ADD PUSH0 PUSH1 0x40 MLOAD DUP1 PUSH1 0x60 ADD PUSH1 0x40 MSTORE DUP1 PUSH1 0x23 DUP2 MSTORE PUSH1 0x20 ADD PUSH2 0x1CA3 PUSH1 0x23 SWAP2 CODECOPY SWAP1 SWAP2 SWAP1 SWAP2 POP SWAP1 DUP2 PUSH2 0x53B SWAP2 SWAP1 PUSH2 0x103B JUMP JUMPDEST POP PUSH0 DUP1 PUSH1 0x1 DUP2 SLOAD ADD DUP1 DUP3 SSTORE DUP1 SWAP2 POP POP PUSH1 0x1 SWAP1 SUB SWAP1 PUSH0 MSTORE PUSH1 0x20 PUSH0 KECCAK256 ADD PUSH0 PUSH1 0x40 MLOAD DUP1 PUSH1 0x60 ADD PUSH1 0x40 MSTORE DUP1 PUSH1 0x24 DUP2 MSTORE PUSH1 0x20 ADD PUSH2 0x22A6 PUSH1 0x24 SWAP2 CODECOPY SWAP1 SWAP2 SWAP1 SWAP2 POP SWAP1 DUP2 PUSH2 0x581 SWAP2 SWAP1 PUSH2 0x103B JUMP JUMPDEST POP PUSH0 DUP1 PUSH1 0x1 DUP2 SLOAD ADD DUP1 DUP3 SSTORE DUP1 SWAP2 POP POP PUSH1 0x1 SWAP1 SUB SWAP1 PUSH0 MSTORE PUSH1 0x20 PUSH0 KECCAK256 ADD PUSH0 PUSH1 0x40 MLOAD DUP1 PUSH1 0x60 ADD PUSH1 0x40 MSTORE DUP1 PUSH1 0x3D DUP2 MSTORE PUSH1 0x20 ADD PUSH2 0x1EE7 PUSH1 0x3D SWAP2 CODECOPY SWAP1 SWAP2 SWAP1 SWAP2 POP SWAP1 DUP2 PUSH2 0x5C7 SWAP2 SWAP1 PUSH2 0x103B JUMP JUMPDEST POP PUSH0 DUP1 PUSH1 0x1 DUP2 SLOAD ADD DUP1 DUP3 SSTORE DUP1 SWAP2 POP POP PUSH1 0x1 SWAP1 SUB SWAP1 PUSH0 MSTORE PUSH1 0x20 PUSH0 KECCAK256 ADD PUSH0 PUSH1 0x40 MLOAD DUP1 PUSH1 0x60 ADD PUSH1 0x40 MSTORE DUP1 PUSH1 0x39 DUP2 MSTORE PUSH1 0x20 ADD PUSH2 0x203E PUSH1 0x39 SWAP2 CODECOPY SWAP1 SWAP2 SWAP1 SWAP2 POP SWAP1 DUP2 PUSH2 0x60D SWAP2 SWAP1 PUSH2 0x103B JUMP JUMPDEST POP PUSH0 DUP1 PUSH1 0x1 DUP2 SLOAD ADD DUP1 DUP3 SSTORE DUP1 SWAP2 POP POP PUSH1 0x1 SWAP1 SUB SWAP1 PUSH0 MSTORE PUSH1 0x20 PUSH0 KECCAK256 ADD PUSH0 PUSH1 0x40 MLOAD DUP1 PUSH1 0x60 ADD PUSH1 0x40 MSTORE DUP1 PUSH1 0x3C DUP2 MSTORE PUSH1 0x20 ADD PUSH2 0x1D27 PUSH1 0x3C SWAP2 CODECOPY SWAP1 SWAP2 SWAP1 SWAP2 POP SWAP1 DUP2 PUSH2 0x653 SWAP2 SWAP1 PUSH2 0x103B JUMP JUMPDEST POP PUSH0 DUP1 PUSH1 0x1 DUP2 SLOAD ADD DUP1 DUP3 SSTORE DUP1 SWAP2 POP POP PUSH1 0x1 SWAP1 SUB SWAP1 PUSH0 MSTORE PUSH1 0x20 PUSH0 KECCAK256 ADD PUSH0 PUSH1 0x40 MLOAD DUP1 PUSH1 0x60 ADD PUSH1 0x40 MSTORE DUP1 PUSH1 0x24 DUP2 MSTORE PUSH1 0x20 ADD PUSH2 0x20B2 PUSH1 0x24 SWAP2 CODECOPY SWAP1 SWAP2 SWAP1 SWAP2 POP SWAP1 DUP2 PUSH2 0x699 SWAP2 SWAP1 PUSH2 0x103B JUMP JUMPDEST POP PUSH0 DUP1 PUSH1 0x1 DUP2 SLOAD ADD DUP1 DUP3 SSTORE DUP1 SWAP2 POP POP PUSH1 0x1 SWAP1 SUB SWAP1 PUSH0 MSTORE PUSH1 0x20 PUSH0 KECCAK256 ADD PUSH0 PUSH1 0x40 MLOAD DUP1 PUSH1 0x60 ADD PUSH1 0x40 MSTORE DUP1 PUSH1 0x2D DUP2 MSTORE PUSH1 0x20 ADD PUSH2 0x23BF PUSH1 0x2D SWAP2 CODECOPY SWAP1 SWAP2 SWAP1 SWAP2 POP SWAP1 DUP2 PUSH2 0x6DF SWAP2 SWAP1 PUSH2 0x103B JUMP JUMPDEST POP PUSH0 DUP1 PUSH1 0x1 DUP2 SLOAD ADD DUP1 DUP3 SSTORE DUP1 SWAP2 POP POP PUSH1 0x1 SWAP1 SUB SWAP1 PUSH0 MSTORE PUSH1 0x20 PUSH0 KECCAK256 ADD PUSH0 PUSH1 0x40 MLOAD DUP1 PUSH1 0x60 ADD PUSH1 0x40 MSTORE DUP1 PUSH1 0x2F DUP2 MSTORE PUSH1 0x20 ADD PUSH2 0x2485 PUSH1 0x2F SWAP2 CODECOPY SWAP1 SWAP2 SWAP1 SWAP2 POP SWAP1 DUP2 PUSH2 0x725 SWAP2 SWAP1 PUSH2 0x103B JUMP JUMPDEST POP PUSH0 DUP1 PUSH1 0x1 DUP2 SLOAD ADD DUP1 DUP3 SSTORE DUP1 SWAP2 POP POP PUSH1 0x1 SWAP1 SUB SWAP1 PUSH0 MSTORE PUSH1 0x20 PUSH0 KECCAK256 ADD PUSH0 PUSH1 0x40 MLOAD DUP1 PUSH1 0x60 ADD PUSH1 0x40 MSTORE DUP1 PUSH1 0x2E DUP2 MSTORE PUSH1 0x20 ADD PUSH2 0x23EC PUSH1 0x2E SWAP2 CODECOPY SWAP1 SWAP2 SWAP1 SWAP2 POP SWAP1 DUP2 PUSH2 0x76B SWAP2 SWAP1 PUSH2 0x103B JUMP JUMPDEST POP PUSH0 DUP1 PUSH1 0x1 DUP2 SLOAD ADD DUP1 DUP3 SSTORE DUP1 SWAP2 POP POP PUSH1 0x1 SWAP1 SUB SWAP1 PUSH0 MSTORE PUSH1 0x20 PUSH0 KECCAK256 ADD PUSH0 PUSH1 0x40 MLOAD DUP1 PUSH1 0x60 ADD PUSH1 0x40 MSTORE DUP1 PUSH1 0x39 DUP2 MSTORE PUSH1 0x20 ADD PUSH2 0x2140 PUSH1 0x39 SWAP2 CODECOPY SWAP1 SWAP2 SWAP1 SWAP2 POP SWAP1 DUP2 PUSH2 0x7B1 SWAP2 SWAP1 PUSH2 0x103B JUMP JUMPDEST POP PUSH0 DUP1 PUSH1 0x1 DUP2 SLOAD ADD DUP1 DUP3 SSTORE DUP1 SWAP2 POP POP PUSH1 0x1 SWAP1 SUB SWAP1 PUSH0 MSTORE PUSH1 0x20 PUSH0 KECCAK256 ADD PUSH0 PUSH1 0x40 MLOAD DUP1 PUSH1 0x60 ADD PUSH1 0x40 MSTORE DUP1 PUSH1 0x31 DUP2 MSTORE PUSH1 0x20 ADD PUSH2 0x232D PUSH1 0x31 SWAP2 CODECOPY SWAP1 SWAP2 SWAP1 SWAP2 POP SWAP1 DUP2 PUSH2 0x7F7 SWAP2 SWAP1 PUSH2 0x103B JUMP JUMPDEST POP PUSH0 DUP1 PUSH1 0x1 DUP2 SLOAD ADD DUP1 DUP3 SSTORE DUP1 SWAP2 POP POP PUSH1 0x1 SWAP1 SUB SWAP1 PUSH0 MSTORE PUSH1 0x20 PUSH0 KECCAK256 ADD PUSH0 PUSH1 0x40 MLOAD DUP1 PUSH1 0x60 ADD PUSH1 0x40 MSTORE DUP1 PUSH1 0x29 DUP2 MSTORE PUSH1 0x20 ADD PUSH2 0x241A PUSH1 0x29 SWAP2 CODECOPY SWAP1 SWAP2 SWAP1 SWAP2 POP SWAP1 DUP2 PUSH2 0x83D SWAP2 SWAP1 PUSH2 0x103B JUMP JUMPDEST POP PUSH0 DUP1 PUSH1 0x1 DUP2 SLOAD ADD DUP1 DUP3 SSTORE DUP1 SWAP2 POP POP PUSH1 0x1 SWAP1 SUB SWAP1 PUSH0 MSTORE PUSH1 0x20 PUSH0 KECCAK256 ADD PUSH0 PUSH1 0x40 MLOAD DUP1 PUSH1 0x60 ADD PUSH1 0x40 MSTORE DUP1 PUSH1 0x37 DUP2 MSTORE PUSH1 0x20 ADD PUSH2 0x20D6 PUSH1 0x37 SWAP2 CODECOPY SWAP1 SWAP2 SWAP1 SWAP2 POP SWAP1 DUP2 PUSH2 0x883 SWAP2 SWAP1 PUSH2 0x103B JUMP JUMPDEST POP PUSH0 DUP1 PUSH1 0x1 DUP2 SLOAD ADD DUP1 DUP3 SSTORE DUP1 SWAP2 POP POP PUSH1 0x1 SWAP1 SUB SWAP1 PUSH0 MSTORE PUSH1 0x20 PUSH0 KECCAK256 ADD PUSH0 PUSH1 0x40 MLOAD DUP1 PUSH1 0x60 ADD PUSH1 0x40 MSTORE DUP1 PUSH1 0x32 DUP2 MSTORE PUSH1 0x20 ADD PUSH2 0x258E PUSH1 0x32 SWAP2 CODECOPY SWAP1 SWAP2 SWAP1 SWAP2 POP SWAP1 DUP2 PUSH2 0x8C9 SWAP2 SWAP1 PUSH2 0x103B JUMP JUMPDEST POP PUSH0 DUP1 PUSH1 0x1 DUP2 SLOAD ADD DUP1 DUP3 SSTORE DUP1 SWAP2 POP POP PUSH1 0x1 SWAP1 SUB SWAP1 PUSH0 MSTORE PUSH1 0x20 PUSH0 KECCAK256 ADD PUSH0 PUSH1 0x40 MLOAD DUP1 PUSH1 0x60 ADD PUSH1 0x40 MSTORE DUP1 PUSH1 0x26 DUP2 MSTORE PUSH1 0x20 ADD PUSH2 0x22CA PUSH1 0x26 SWAP2 CODECOPY SWAP1 SWAP2 SWAP1 SWAP2 POP SWAP1 DUP2 PUSH2 0x90F SWAP2 SWAP1 PUSH2 0x103B JUMP JUMPDEST POP PUSH0 DUP1 PUSH1 0x1 DUP2 SLOAD ADD DUP1 DUP3 SSTORE DUP1 SWAP2 POP POP PUSH1 0x1 SWAP1 SUB SWAP1 PUSH0 MSTORE PUSH1 0x20 PUSH0 KECCAK256 ADD PUSH0 PUSH1 0x40 MLOAD DUP1 PUSH1 0x80 ADD PUSH1 0x40 MSTORE DUP1 PUSH1 0x41 DUP2 MSTORE PUSH1 0x20 ADD PUSH2 0x1F56 PUSH1 0x41 SWAP2 CODECOPY SWAP1 SWAP2 SWAP1 SWAP2 POP SWAP1 DUP2 PUSH2 0x955 SWAP2 SWAP1 PUSH2 0x103B JUMP JUMPDEST POP PUSH0 DUP1 PUSH1 0x1 DUP2 SLOAD ADD DUP1 DUP3 SSTORE DUP1 SWAP2 POP POP PUSH1 0x1 SWAP1 SUB SWAP1 PUSH0 MSTORE PUSH1 0x20 PUSH0 KECCAK256 ADD PUSH0 PUSH1 0x40 MLOAD DUP1 PUSH1 0x60 ADD PUSH1 0x40 MSTORE DUP1 PUSH1 0x26 DUP2 MSTORE PUSH1 0x20 ADD PUSH2 0x1DF0 PUSH1 0x26 SWAP2 CODECOPY SWAP1 SWAP2 SWAP1 SWAP2 POP SWAP1 DUP2 PUSH2 0x99B SWAP2 SWAP1 PUSH2 0x103B JUMP JUMPDEST POP PUSH0 DUP1 PUSH1 0x1 DUP2 SLOAD ADD DUP1 DUP3 SSTORE DUP1 SWAP2 POP POP PUSH1 0x1 SWAP1 SUB SWAP1 PUSH0 MSTORE PUSH1 0x20 PUSH0 KECCAK256 ADD PUSH0 PUSH1 0x40 MLOAD DUP1 PUSH1 0x60 ADD PUSH1 0x40 MSTORE DUP1 PUSH1 0x36 DUP2 MSTORE PUSH1 0x20 ADD PUSH2 0x1CC6 PUSH1 0x36 SWAP2 CODECOPY SWAP1 SWAP2 SWAP1 SWAP2 POP SWAP1 DUP2 PUSH2 0x9E1 SWAP2 SWAP1 PUSH2 0x103B JUMP JUMPDEST POP PUSH0 DUP1 PUSH1 0x1 DUP2 SLOAD ADD DUP1 DUP3 SSTORE DUP1 SWAP2 POP POP PUSH1 0x1 SWAP1 SUB SWAP1 PUSH0 MSTORE PUSH1 0x20 PUSH0 KECCAK256 ADD PUSH0 PUSH1 0x40 MLOAD DUP1 PUSH1 0x60 ADD PUSH1 0x40 MSTORE DUP1 PUSH1 0x34 DUP2 MSTORE PUSH1 0x20 ADD PUSH2 0x1F97 PUSH1 0x34 SWAP2 CODECOPY SWAP1 SWAP2 SWAP1 SWAP2 POP SWAP1 DUP2 PUSH2 0xA27 SWAP2 SWAP1 PUSH2 0x103B JUMP JUMPDEST POP PUSH0 DUP1 PUSH1 0x1 DUP2 SLOAD ADD DUP1 DUP3 SSTORE DUP1 SWAP2 POP POP PUSH1 0x1 SWAP1 SUB SWAP1 PUSH0 MSTORE PUSH1 0x20 PUSH0 KECCAK256 ADD PUSH0 PUSH1 0x40 MLOAD DUP1 PUSH1 0x60 ADD PUSH1 0x40 MSTORE DUP1 PUSH1 0x2B DUP2 MSTORE PUSH1 0x20 ADD PUSH2 0x2501 PUSH1 0x2B SWAP2 CODECOPY SWAP1 SWAP2 SWAP1 SWAP2 POP SWAP1 DUP2 PUSH2 0xA6D SWAP2 SWAP1 PUSH2 0x103B JUMP JUMPDEST POP PUSH0 DUP1 PUSH1 0x1 DUP2 SLOAD ADD DUP1 DUP3 SSTORE DUP1 SWAP2 POP POP PUSH1 0x1 SWAP1 SUB SWAP1 PUSH0 MSTORE PUSH1 0x20 PUSH0 KECCAK256 ADD PUSH0 PUSH1 0x40 MLOAD DUP1 PUSH1 0x60 ADD PUSH1 0x40 MSTORE DUP1 PUSH1 0x38 DUP2 MSTORE PUSH1 0x20 ADD PUSH2 0x21A0 PUSH1 0x38 SWAP2 CODECOPY SWAP1 SWAP2 SWAP1 SWAP2 POP SWAP1 DUP2 PUSH2 0xAB3 SWAP2 SWAP1 PUSH2 0x103B JUMP JUMPDEST POP PUSH0 DUP1 PUSH1 0x1 DUP2 SLOAD ADD DUP1 DUP3 SSTORE DUP1 SWAP2 POP POP PUSH1 0x1 SWAP1 SUB SWAP1 PUSH0 MSTORE PUSH1 0x20 PUSH0 KECCAK256 ADD PUSH0 PUSH1 0x40 MLOAD DUP1 PUSH1 0x60 ADD PUSH1 0x40 MSTORE DUP1 PUSH1 0x22 DUP2 MSTORE PUSH1 0x20 ADD PUSH2 0x1FF3 PUSH1 0x22 SWAP2 CODECOPY SWAP1 SWAP2 SWAP1 SWAP2 POP SWAP1 DUP2 PUSH2 0xAF9 SWAP2 SWAP1 PUSH2 0x103B JUMP JUMPDEST POP PUSH0 DUP1 PUSH1 0x1 DUP2 SLOAD ADD DUP1 DUP3 SSTORE DUP1 SWAP2 POP POP PUSH1 0x1 SWAP1 SUB SWAP1 PUSH0 MSTORE PUSH1 0x20 PUSH0 KECCAK256 ADD PUSH0 PUSH1 0x40 MLOAD DUP1 PUSH1 0x60 ADD PUSH1 0x40 MSTORE DUP1 PUSH1 0x29 DUP2 MSTORE PUSH1 0x20 ADD PUSH2 0x2015 PUSH1 0x29 SWAP2 CODECOPY SWAP1 SWAP2 SWAP1 SWAP2 POP SWAP1 DUP2 PUSH2 0xB3F SWAP2 SWAP1 PUSH2 0x103B JUMP JUMPDEST POP PUSH0 DUP1 PUSH1 0x1 DUP2 SLOAD ADD DUP1 DUP3 SSTORE DUP1 SWAP2 POP POP PUSH1 0x1 SWAP1 SUB SWAP1 PUSH0 MSTORE PUSH1 0x20 PUSH0 KECCAK256 ADD PUSH0 PUSH1 0x40 MLOAD DUP1 PUSH1 0x60 ADD PUSH1 0x40 MSTORE DUP1 PUSH1 0x33 DUP2 MSTORE PUSH1 0x20 ADD PUSH2 0x25F2 PUSH1 0x33 SWAP2 CODECOPY SWAP1 SWAP2 SWAP1 SWAP2 POP SWAP1 DUP2 PUSH2 0xB85 SWAP2 SWAP1 PUSH2 0x103B JUMP JUMPDEST POP PUSH0 DUP1 PUSH1 0x1 DUP2 SLOAD ADD DUP1 DUP3 SSTORE DUP1 SWAP2 POP POP PUSH1 0x1 SWAP1 SUB SWAP1 PUSH0 MSTORE PUSH1 0x20 PUSH0 KECCAK256 ADD PUSH0 PUSH1 0x40 MLOAD DUP1 PUSH1 0x60 ADD PUSH1 0x40 MSTORE DUP1 PUSH1 0x35 DUP2 MSTORE PUSH1 0x20 ADD PUSH2 0x221F PUSH1 0x35 SWAP2 CODECOPY SWAP1 SWAP2 SWAP1 SWAP2 POP SWAP1 DUP2 PUSH2 0xBCB SWAP2 SWAP1 PUSH2 0x103B JUMP JUMPDEST POP PUSH0 DUP1 PUSH1 0x1 DUP2 SLOAD ADD DUP1 DUP3 SSTORE DUP1 SWAP2 POP POP PUSH1 0x1 SWAP1 SUB SWAP1 PUSH0 MSTORE PUSH1 0x20 PUSH0 KECCAK256 ADD PUSH0 PUSH1 0x40 MLOAD DUP1 PUSH1 0x60 ADD PUSH1 0x40 MSTORE DUP1 PUSH1 0x32 DUP2 MSTORE PUSH1 0x20 ADD PUSH2 0x1EB5 PUSH1 0x32 SWAP2 CODECOPY SWAP1 SWAP2 SWAP1 SWAP2 POP SWAP1 DUP2 PUSH2 0xC11 SWAP2 SWAP1 PUSH2 0x103B JUMP JUMPDEST POP PUSH0 DUP1 PUSH1 0x1 DUP2 SLOAD ADD DUP1 DUP3 SSTORE DUP1 SWAP2 POP POP PUSH1 0x1 SWAP1 SUB SWAP1 PUSH0 MSTORE PUSH1 0x20 PUSH0 KECCAK256 ADD PUSH0 PUSH1 0x40 MLOAD DUP1 PUSH1 0x60 ADD PUSH1 0x40 MSTORE DUP1 PUSH1 0x2B DUP2 MSTORE PUSH1 0x20 ADD PUSH2 0x1CFC PUSH1 0x2B SWAP2 CODECOPY SWAP1 SWAP2 SWAP1 SWAP2 POP SWAP1 DUP2 PUSH2 0xC57 SWAP2 SWAP1 PUSH2 0x103B JUMP JUMPDEST POP PUSH0 DUP1 PUSH1 0x1 DUP2 SLOAD ADD DUP1 DUP3 SSTORE DUP1 SWAP2 POP POP PUSH1 0x1 SWAP1 SUB SWAP1 PUSH0 MSTORE PUSH1 0x20 PUSH0 KECCAK256 ADD PUSH0 PUSH1 0x40 MLOAD DUP1 PUSH1 0x60 ADD PUSH1 0x40 MSTORE DUP1 PUSH1 0x33 DUP2 MSTORE PUSH1 0x20 ADD PUSH2 0x238C PUSH1 0x33 SWAP2 CODECOPY SWAP1 SWAP2 SWAP1 SWAP2 POP SWAP1 DUP2 PUSH2 0xC9D SWAP2 SWAP1 PUSH2 0x103B JUMP JUMPDEST POP PUSH0 DUP1 PUSH1 0x1 DUP2 SLOAD ADD DUP1 DUP3 SSTORE DUP1 SWAP2 POP POP PUSH1 0x1 SWAP1 SUB SWAP1 PUSH0 MSTORE PUSH1 0x20 PUSH0 KECCAK256 ADD PUSH0 PUSH1 0x40 MLOAD DUP1 PUSH1 0x60 ADD PUSH1 0x40 MSTORE DUP1 PUSH1 0x2F DUP2 MSTORE PUSH1 0x20 ADD PUSH2 0x255F PUSH1 0x2F SWAP2 CODECOPY SWAP1 SWAP2 SWAP1 SWAP2 POP SWAP1 DUP2 PUSH2 0xCE3 SWAP2 SWAP1 PUSH2 0x103B JUMP JUMPDEST POP PUSH0 DUP1 PUSH1 0x1 DUP2 SLOAD ADD DUP1 DUP3 SSTORE DUP1 SWAP2 POP POP PUSH1 0x1 SWAP1 SUB SWAP1 PUSH0 MSTORE PUSH1 0x20 PUSH0 KECCAK256 ADD PUSH0 PUSH1 0x40 MLOAD DUP1 PUSH1 0x60 ADD PUSH1 0x40 MSTORE DUP1 PUSH1 0x27 DUP2 MSTORE PUSH1 0x20 ADD PUSH2 0x2179 PUSH1 0x27 SWAP2 CODECOPY SWAP1 SWAP2 SWAP1 SWAP2 POP SWAP1 DUP2 PUSH2 0xD29 SWAP2 SWAP1 PUSH2 0x103B JUMP JUMPDEST POP PUSH0 DUP1 PUSH1 0x1 DUP2 SLOAD ADD DUP1 DUP3 SSTORE DUP1 SWAP2 POP POP PUSH1 0x1 SWAP1 SUB SWAP1 PUSH0 MSTORE PUSH1 0x20 PUSH0 KECCAK256 ADD PUSH0 PUSH1 0x40 MLOAD DUP1 PUSH1 0x60 ADD PUSH1 0x40 MSTORE DUP1 PUSH1 0x33 DUP2 MSTORE PUSH1 0x20 ADD PUSH2 0x252C PUSH1 0x33 SWAP2 CODECOPY SWAP1 SWAP2 SWAP1 SWAP2 POP SWAP1 DUP2 PUSH2 0xD6F SWAP2 SWAP1 PUSH2 0x103B JUMP JUMPDEST POP PUSH0 DUP1 PUSH1 0x1 DUP2 SLOAD ADD DUP1 DUP3 SSTORE DUP1 SWAP2 POP POP PUSH1 0x1 SWAP1 SUB SWAP1 PUSH0 MSTORE PUSH1 0x20 PUSH0 KECCAK256 ADD PUSH0 PUSH1 0x40 MLOAD DUP1 PUSH1 0x60 ADD PUSH1 0x40 MSTORE DUP1 PUSH1 0x24 DUP2 MSTORE PUSH1 0x20 ADD PUSH2 0x1C7F PUSH1 0x24 SWAP2 CODECOPY SWAP1 SWAP2 SWAP1 SWAP2 POP SWAP1 DUP2 PUSH2 0xDB5 SWAP2 SWAP1 PUSH2 0x103B JUMP JUMPDEST POP PUSH0 DUP1 PUSH1 0x1 DUP2 SLOAD ADD DUP1 DUP3 SSTORE DUP1 SWAP2 POP POP PUSH1 0x1 SWAP1 SUB SWAP1 PUSH0 MSTORE PUSH1 0x20 PUSH0 KECCAK256 ADD PUSH0 PUSH1 0x40 MLOAD DUP1 PUSH1 0x60 ADD PUSH1 0x40 MSTORE DUP1 PUSH1 0x28 DUP2 MSTORE PUSH1 0x20 ADD PUSH2 0x1E49 PUSH1 0x28 SWAP2 CODECOPY SWAP1 SWAP2 SWAP1 SWAP2 POP SWAP1 DUP2 PUSH2 0xDFB SWAP2 SWAP1 PUSH2 0x103B JUMP JUMPDEST POP PUSH2 0x110A JUMP JUMPDEST PUSH0 DUP2 MLOAD SWAP1 POP SWAP2 SWAP1 POP JUMP JUMPDEST PUSH32 0x4E487B7100000000000000000000000000000000000000000000000000000000 PUSH0 MSTORE PUSH1 0x41 PUSH1 0x4 MSTORE PUSH1 0x24 PUSH0 REVERT JUMPDEST PUSH32 0x4E487B7100000000000000000000000000000000000000000000000000000000 PUSH0 MSTORE PUSH1 0x22 PUSH1 0x4 MSTORE PUSH1 0x24 PUSH0 REVERT JUMPDEST PUSH0 PUSH1 0x2 DUP3 DIV SWAP1 POP PUSH1 0x1 DUP3 AND DUP1 PUSH2 0xE7C JUMPI PUSH1 0x7F DUP3 AND SWAP2 POP JUMPDEST PUSH1 0x20 DUP3 LT DUP2 SUB PUSH2 0xE8F JUMPI PUSH2 0xE8E PUSH2 0xE38 JUMP JUMPDEST JUMPDEST POP SWAP2 SWAP1 POP JUMP JUMPDEST PUSH0 DUP2 SWAP1 POP DUP2 PUSH0 MSTORE PUSH1 0x20 PUSH0 KECCAK256 SWAP1 POP SWAP2 SWAP1 POP JUMP JUMPDEST PUSH0 PUSH1 0x20 PUSH1 0x1F DUP4 ADD DIV SWAP1 POP SWAP2 SWAP1 POP JUMP JUMPDEST PUSH0 DUP3 DUP3 SHL SWAP1 POP SWAP3 SWAP2 POP POP JUMP JUMPDEST PUSH0 PUSH1 0x8 DUP4 MUL PUSH2 0xEF1 PUSH32 0xFFFFFFFFFFFFFFFFFFFFFFFFFFFFFFFFFFFFFFFFFFFFFFFFFFFFFFFFFFFFFFFF DUP3 PUSH2 0xEB6 JUMP JUMPDEST PUSH2 0xEFB DUP7 DUP4 PUSH2 0xEB6 JUMP JUMPDEST SWAP6 POP DUP1 NOT DUP5 AND SWAP4 POP DUP1 DUP7 AND DUP5 OR SWAP3 POP POP POP SWAP4 SWAP3 POP POP POP JUMP JUMPDEST PUSH0 DUP2 SWAP1 POP SWAP2 SWAP1 POP JUMP JUMPDEST PUSH0 DUP2 SWAP1 POP SWAP2 SWAP1 POP JUMP JUMPDEST PUSH0 PUSH2 0xF3F PUSH2 0xF3A PUSH2 0xF35 DUP5 PUSH2 0xF13 JUMP JUMPDEST PUSH2 0xF1C JUMP JUMPDEST PUSH2 0xF13 JUMP JUMPDEST SWAP1 POP SWAP2 SWAP1 POP JUMP JUMPDEST PUSH0 DUP2 SWAP1 POP SWAP2 SWAP1 POP JUMP JUMPDEST PUSH2 0xF58 DUP4 PUSH2 0xF25 JUMP JUMPDEST PUSH2 0xF6C PUSH2 0xF64 DUP3 PUSH2 0xF46 JUMP JUMPDEST DUP5 DUP5 SLOAD PUSH2 0xEC2 JUMP JUMPDEST DUP3 SSTORE POP POP POP POP JUMP JUMPDEST PUSH0 SWAP1 JUMP JUMPDEST PUSH2 0xF80 PUSH2 0xF74 JUMP JUMPDEST PUSH2 0xF8B DUP2 DUP5 DUP5 PUSH2 0xF4F JUMP JUMPDEST POP POP POP JUMP JUMPDEST JUMPDEST DUP2 DUP2 LT ISZERO PUSH2 0xFAE JUMPI PUSH2 0xFA3 PUSH0 DUP3 PUSH2 0xF78 JUMP JUMPDEST PUSH1 0x1 DUP2 ADD SWAP1 POP PUSH2 0xF91 JUMP JUMPDEST POP POP JUMP JUMPDEST PUSH1 0x1F DUP3 GT ISZERO PUSH2 0xFF3 JUMPI PUSH2 0xFC4 DUP2 PUSH2 0xE95 JUMP JUMPDEST PUSH2 0xFCD DUP5 PUSH2 0xEA7 JUMP JUMPDEST DUP2 ADD PUSH1 0x20 DUP6 LT ISZERO PUSH2 0xFDC JUMPI DUP2 SWAP1 POP JUMPDEST PUSH2 0xFF0 PUSH2 0xFE8 DUP6 PUSH2 0xEA7 JUMP JUMPDEST DUP4 ADD DUP3 PUSH2 0xF90 JUMP JUMPDEST POP POP JUMPDEST POP POP POP JUMP JUMPDEST PUSH0 DUP3 DUP3 SHR SWAP1 POP SWAP3 SWAP2 POP POP JUMP JUMPDEST PUSH0 PUSH2 0x1013 PUSH0 NOT DUP5 PUSH1 0x8 MUL PUSH2 0xFF8 JUMP JUMPDEST NOT DUP1 DUP4 AND SWAP2 POP POP SWAP3 SWAP2 POP POP JUMP JUMPDEST PUSH0 PUSH2 0x102B DUP4 DUP4 PUSH2 0x1004 JUMP JUMPDEST SWAP2 POP DUP3 PUSH1 0x2 MUL DUP3 OR SWAP1 POP SWAP3 SWAP2 POP POP JUMP JUMPDEST PUSH2 0x1044 DUP3 PUSH2 0xE01 JUMP JUMPDEST PUSH8 0xFFFFFFFFFFFFFFFF DUP2 GT ISZERO PUSH2 0x105D JUMPI PUSH2 0x105C PUSH2 0xE0B JUMP JUMPDEST JUMPDEST PUSH2 0x1067 DUP3 SLOAD PUSH2 0xE65 JUMP JUMPDEST PUSH2 0x1072 DUP3 DUP3 DUP6 PUSH2 0xFB2 JUMP JUMPDEST PUSH0 PUSH1 0x20 SWAP1 POP PUSH1 0x1F DUP4 GT PUSH1 0x1 DUP2 EQ PUSH2 0x10A3 JUMPI PUSH0 DUP5 ISZERO PUSH2 0x1091 JUMPI DUP3 DUP8 ADD MLOAD SWAP1 POP JUMPDEST PUSH2 0x109B DUP6 DUP3 PUSH2 0x1020 JUMP JUMPDEST DUP7 SSTORE POP PUSH2 0x1102 JUMP JUMPDEST PUSH1 0x1F NOT DUP5 AND PUSH2 0x10B1 DUP7 PUSH2 0xE95 JUMP JUMPDEST PUSH0 JUMPDEST DUP3 DUP2 LT ISZERO PUSH2 0x10D8 JUMPI DUP5 DUP10 ADD MLOAD DUP3 SSTORE PUSH1 0x1 DUP3 ADD SWAP2 POP PUSH1 0x20 DUP6 ADD SWAP5 POP PUSH1 0x20 DUP2 ADD SWAP1 POP PUSH2 0x10B3 JUMP JUMPDEST DUP7 DUP4 LT ISZERO PUSH2 0x10F5 JUMPI DUP5 DUP10 ADD MLOAD PUSH2 0x10F1 PUSH1 0x1F DUP10 AND DUP3 PUSH2 0x1004 JUMP JUMPDEST DUP4 SSTORE POP JUMPDEST PUSH1 0x1 PUSH1 0x2 DUP9 MUL ADD DUP9 SSTORE POP POP POP JUMPDEST POP POP POP POP POP POP JUMP JUMPDEST PUSH2 0xB68 DUP1 PUSH2 0x1117 PUSH0 CODECOPY PUSH0 RETURN INVALID PUSH1 0x80 PUSH1 0x40 MSTORE CALLVALUE DUP1 ISZERO PUSH2 0xF JUMPI PUSH0 DUP1 REVERT JUMPDEST POP PUSH1 0x4 CALLDATASIZE LT PUSH2 0x4A JUMPI PUSH0 CALLDATALOAD PUSH1 0xE0 SHR DUP1 PUSH4 0x4CF373E6 EQ PUSH2 0x4E JUMPI DUP1 PUSH4 0x5B8B6582 EQ PUSH2 0x6A JUMPI DUP1 PUSH4 0x8DA5CB5B EQ PUSH2 0x88 JUMPI DUP1 PUSH4 0x93CE6C1C EQ PUSH2 0xA6 JUMPI JUMPDEST PUSH0 DUP1 REVERT JUMPDEST PUSH2 0x68 PUSH1 0x4 DUP1 CALLDATASIZE SUB DUP2 ADD SWAP1 PUSH2 0x63 SWAP2 SWAP1 PUSH2 0x4BC JUMP JUMPDEST PUSH2 0xC4 JUMP JUMPDEST STOP JUMPDEST PUSH2 0x72 PUSH2 0x187 JUMP JUMPDEST PUSH1 0x40 MLOAD PUSH2 0x7F SWAP2 SWAP1 PUSH2 0x51B JUMP JUMPDEST PUSH1 0x40 MLOAD DUP1 SWAP2 SUB SWAP1 RETURN JUMPDEST PUSH2 0x90 PUSH2 0x221 JUMP JUMPDEST PUSH1 0x40 MLOAD PUSH2 0x9D SWAP2 SWAP1 PUSH2 0x573 JUMP JUMPDEST PUSH1 0x40 MLOAD DUP1 SWAP2 SUB SWAP1 RETURN JUMPDEST PUSH2 0xAE PUSH2 0x246 JUMP JUMPDEST PUSH1 0x40 MLOAD PUSH2 0xBB SWAP2 SWAP1 PUSH2 0x5EC JUMP JUMPDEST PUSH1 0x40 MLOAD DUP1 SWAP2 SUB SWAP1 RETURN JUMPDEST PUSH1 0x1 PUSH0 SWAP1 SLOAD SWAP1 PUSH2 0x100 EXP SWAP1 DIV PUSH20 0xFFFFFFFFFFFFFFFFFFFFFFFFFFFFFFFFFFFFFFFF AND PUSH20 0xFFFFFFFFFFFFFFFFFFFFFFFFFFFFFFFFFFFFFFFF AND CALLER PUSH20 0xFFFFFFFFFFFFFFFFFFFFFFFFFFFFFFFFFFFFFFFF AND EQ PUSH2 0x153 JUMPI PUSH1 0x40 MLOAD PUSH32 0x8C379A000000000000000000000000000000000000000000000000000000000 DUP2 MSTORE PUSH1 0x4 ADD PUSH2 0x14A SWAP1 PUSH2 0x656 JUMP JUMPDEST PUSH1 0x40 MLOAD DUP1 SWAP2 SUB SWAP1 REVERT JUMPDEST PUSH0 DUP2 SWAP1 DUP1 PUSH1 0x1 DUP2 SLOAD ADD DUP1 DUP3 SSTORE DUP1 SWAP2 POP POP PUSH1 0x1 SWAP1 SUB SWAP1 PUSH0 MSTORE PUSH1 0x20 PUSH0 KECCAK256 ADD PUSH0 SWAP1 SWAP2 SWAP1 SWAP2 SWAP1 SWAP2 POP SWAP1 DUP2 PUSH2 0x183 SWAP2 SWAP1 PUSH2 0x86E JUMP JUMPDEST POP POP JUMP JUMPDEST PUSH0 PUSH1 0x1 PUSH0 SWAP1 SLOAD SWAP1 PUSH2 0x100 EXP SWAP1 DIV PUSH20 0xFFFFFFFFFFFFFFFFFFFFFFFFFFFFFFFFFFFFFFFF AND PUSH20 0xFFFFFFFFFFFFFFFFFFFFFFFFFFFFFFFFFFFFFFFF AND CALLER PUSH20 0xFFFFFFFFFFFFFFFFFFFFFFFFFFFFFFFFFFFFFFFF AND EQ PUSH2 0x217 JUMPI PUSH1 0x40 MLOAD PUSH32 0x8C379A000000000000000000000000000000000000000000000000000000000 DUP2 MSTORE PUSH1 0x4 ADD PUSH2 0x20E SWAP1 PUSH2 0x9AD JUMP JUMPDEST PUSH1 0x40 MLOAD DUP1 SWAP2 SUB SWAP1 REVERT JUMPDEST PUSH0 DUP1 SLOAD SWAP1 POP SWAP1 POP SWAP1 JUMP JUMPDEST PUSH1 0x1 PUSH0 SWAP1 SLOAD SWAP1 PUSH2 0x100 EXP SWAP1 DIV PUSH20 0xFFFFFFFFFFFFFFFFFFFFFFFFFFFFFFFFFFFFFFFF AND DUP2 JUMP JUMPDEST PUSH1 0x60 PUSH0 DUP1 DUP1 SLOAD SWAP1 POP TIMESTAMP CALLER PREVRANDAO PUSH1 0x40 MLOAD PUSH1 0x20 ADD PUSH2 0x263 SWAP4 SWAP3 SWAP2 SWAP1 PUSH2 0xA30 JUMP JUMPDEST PUSH1 0x40 MLOAD PUSH1 0x20 DUP2 DUP4 SUB SUB DUP2 MSTORE SWAP1 PUSH1 0x40 MSTORE DUP1 MLOAD SWAP1 PUSH1 0x20 ADD KECCAK256 PUSH0 SHR PUSH2 0x285 SWAP2 SWAP1 PUSH2 0xA99 JUMP JUMPDEST SWAP1 POP PUSH0 DUP1 DUP3 DUP2 SLOAD DUP2 LT PUSH2 0x29B JUMPI PUSH2 0x29A PUSH2 0xAC9 JUMP JUMPDEST JUMPDEST SWAP1 PUSH0 MSTORE PUSH1 0x20 PUSH0 KECCAK256 ADD DUP1 SLOAD PUSH2 0x2AE SWAP1 PUSH2 0x6A1 JUMP JUMPDEST DUP1 PUSH1 0x1F ADD PUSH1 0x20 DUP1 SWAP2 DIV MUL PUSH1 0x20 ADD PUSH1 0x40 MLOAD SWAP1 DUP2 ADD PUSH1 0x40 MSTORE DUP1 SWAP3 SWAP2 SWAP1 DUP2 DUP2 MSTORE PUSH1 0x20 ADD DUP3 DUP1 SLOAD PUSH2 0x2DA SWAP1 PUSH2 0x6A1 JUMP JUMPDEST DUP1 ISZERO PUSH2 0x325 JUMPI DUP1 PUSH1 0x1F LT PUSH2 0x2FC JUMPI PUSH2 0x100 DUP1 DUP4 SLOAD DIV MUL DUP4 MSTORE SWAP2 PUSH1 0x20 ADD SWAP2 PUSH2 0x325 JUMP JUMPDEST DUP3 ADD SWAP2 SWAP1 PUSH0 MSTORE PUSH1 0x20 PUSH0 KECCAK256 SWAP1 JUMPDEST DUP2 SLOAD DUP2 MSTORE SWAP1 PUSH1 0x1 ADD SWAP1 PUSH1 0x20 ADD DUP1 DUP4 GT PUSH2 0x308 JUMPI DUP3 SWAP1 SUB PUSH1 0x1F AND DUP3 ADD SWAP2 JUMPDEST POP POP POP POP POP SWAP1 POP PUSH32 0x66298F218A95834DD8D57814339953FABFE8C9BF89DCD37697610DEC82A7F6F CALLER DUP3 TIMESTAMP PUSH1 0x40 MLOAD PUSH2 0x35F SWAP4 SWAP3 SWAP2 SWAP1 PUSH2 0xAF6 JUMP JUMPDEST PUSH1 0x40 MLOAD DUP1 SWAP2 SUB SWAP1 LOG1 DUP1 SWAP3 POP POP POP SWAP1 JUMP JUMPDEST PUSH0 PUSH1 0x40 MLOAD SWAP1 POP SWAP1 JUMP JUMPDEST PUSH0 DUP1 REVERT JUMPDEST PUSH0 DUP1 REVERT JUMPDEST PUSH0 DUP1 REVERT JUMPDEST PUSH0 DUP1 REVERT JUMPDEST PUSH0 PUSH1 0x1F NOT PUSH1 0x1F DUP4 ADD AND SWAP1 POP SWAP2 SWAP1 POP JUMP JUMPDEST PUSH32 0x4E487B7100000000000000000000000000000000000000000000000000000000 PUSH0 MSTORE PUSH1 0x41 PUSH1 0x4 MSTORE PUSH1 0x24 PUSH0 REVERT JUMPDEST PUSH2 0x3CE DUP3 PUSH2 0x388 JUMP JUMPDEST DUP2 ADD DUP2 DUP2 LT PUSH8 0xFFFFFFFFFFFFFFFF DUP3 GT OR ISZERO PUSH2 0x3ED JUMPI PUSH2 0x3EC PUSH2 0x398 JUMP JUMPDEST JUMPDEST DUP1 PUSH1 0x40 MSTORE POP POP POP JUMP JUMPDEST PUSH0 PUSH2 0x3FF PUSH2 0x36F JUMP JUMPDEST SWAP1 POP PUSH2 0x40B DUP3 DUP3 PUSH2 0x3C5 JUMP JUMPDEST SWAP2 SWAP1 POP JUMP JUMPDEST PUSH0 PUSH8 0xFFFFFFFFFFFFFFFF DUP3 GT ISZERO PUSH2 0x42A JUMPI PUSH2 0x429 PUSH2 0x398 JUMP JUMPDEST JUMPDEST PUSH2 0x433 DUP3 PUSH2 0x388 JUMP JUMPDEST SWAP1 POP PUSH1 0x20 DUP2 ADD SWAP1 POP SWAP2 SWAP1 POP JUMP JUMPDEST DUP3 DUP2 DUP4 CALLDATACOPY PUSH0 DUP4 DUP4 ADD MSTORE POP POP POP JUMP JUMPDEST PUSH0 PUSH2 0x460 PUSH2 0x45B DUP5 PUSH2 0x410 JUMP JUMPDEST PUSH2 0x3F6 JUMP JUMPDEST SWAP1 POP DUP3 DUP2 MSTORE PUSH1 0x20 DUP2 ADD DUP5 DUP5 DUP5 ADD GT ISZERO PUSH2 0x47C JUMPI PUSH2 0x47B PUSH2 0x384 JUMP JUMPDEST JUMPDEST PUSH2 0x487 DUP5 DUP3 DUP6 PUSH2 0x440 JUMP JUMPDEST POP SWAP4 SWAP3 POP POP POP JUMP JUMPDEST PUSH0 DUP3 PUSH1 0x1F DUP4 ADD SLT PUSH2 0x4A3 JUMPI PUSH2 0x4A2 PUSH2 0x380 JUMP JUMPDEST JUMPDEST DUP2 CALLDATALOAD PUSH2 0x4B3 DUP5 DUP3 PUSH1 0x20 DUP7 ADD PUSH2 0x44E JUMP JUMPDEST SWAP2 POP POP SWAP3 SWAP2 POP POP JUMP JUMPDEST PUSH0 PUSH1 0x20 DUP3 DUP5 SUB SLT ISZERO PUSH2 0x4D1 JUMPI PUSH2 0x4D0 PUSH2 0x378 JUMP JUMPDEST JUMPDEST PUSH0 DUP3 ADD CALLDATALOAD PUSH8 0xFFFFFFFFFFFFFFFF DUP2 GT ISZERO PUSH2 0x4EE JUMPI PUSH2 0x4ED PUSH2 0x37C JUMP JUMPDEST JUMPDEST PUSH2 0x4FA DUP5 DUP3 DUP6 ADD PUSH2 0x48F JUMP JUMPDEST SWAP2 POP POP SWAP3 SWAP2 POP POP JUMP JUMPDEST PUSH0 DUP2 SWAP1 POP SWAP2 SWAP1 POP JUMP JUMPDEST PUSH2 0x515 DUP2 PUSH2 0x503 JUMP JUMPDEST DUP3 MSTORE POP POP JUMP JUMPDEST PUSH0 PUSH1 0x20 DUP3 ADD SWAP1 POP PUSH2 0x52E PUSH0 DUP4 ADD DUP5 PUSH2 0x50C JUMP JUMPDEST SWAP3 SWAP2 POP POP JUMP JUMPDEST PUSH0 PUSH20 0xFFFFFFFFFFFFFFFFFFFFFFFFFFFFFFFFFFFFFFFF DUP3 AND SWAP1 POP SWAP2 SWAP1 POP JUMP JUMPDEST PUSH0 PUSH2 0x55D DUP3 PUSH2 0x534 JUMP JUMPDEST SWAP1 POP SWAP2 SWAP1 POP JUMP JUMPDEST PUSH2 0x56D DUP2 PUSH2 0x553 JUMP JUMPDEST DUP3 MSTORE POP POP JUMP JUMPDEST PUSH0 PUSH1 0x20 DUP3 ADD SWAP1 POP PUSH2 0x586 PUSH0 DUP4 ADD DUP5 PUSH2 0x564 JUMP JUMPDEST SWAP3 SWAP2 POP POP JUMP JUMPDEST PUSH0 DUP2 MLOAD SWAP1 POP SWAP2 SWAP1 POP JUMP JUMPDEST PUSH0 DUP3 DUP3 MSTORE PUSH1 0x20 DUP3 ADD SWAP1 POP SWAP3 SWAP2 POP POP JUMP JUMPDEST DUP3 DUP2 DUP4 MCOPY PUSH0 DUP4 DUP4 ADD MSTORE POP POP POP JUMP JUMPDEST PUSH0 PUSH2 0x5BE DUP3 PUSH2 0x58C JUMP JUMPDEST PUSH2 0x5C8 DUP2 DUP6 PUSH2 0x596 JUMP JUMPDEST SWAP4 POP PUSH2 0x5D8 DUP2 DUP6 PUSH1 0x20 DUP7 ADD PUSH2 0x5A6 JUMP JUMPDEST PUSH2 0x5E1 DUP2 PUSH2 0x388 JUMP JUMPDEST DUP5 ADD SWAP2 POP POP SWAP3 SWAP2 POP POP JUMP JUMPDEST PUSH0 PUSH1 0x20 DUP3 ADD SWAP1 POP DUP2 DUP2 SUB PUSH0 DUP4 ADD MSTORE PUSH2 0x604 DUP2 DUP5 PUSH2 0x5B4 JUMP JUMPDEST SWAP1 POP SWAP3 SWAP2 POP POP JUMP JUMPDEST PUSH32 0x4F6E6C79206F776E65722063616E2061646420666F7274756E65730000000000 PUSH0 DUP3 ADD MSTORE POP JUMP JUMPDEST PUSH0 PUSH2 0x640 PUSH1 0x1B DUP4 PUSH2 0x596 JUMP JUMPDEST SWAP2 POP PUSH2 0x64B DUP3 PUSH2 0x60C JUMP JUMPDEST PUSH1 0x20 DUP3 ADD SWAP1 POP SWAP2 SWAP1 POP JUMP JUMPDEST PUSH0 PUSH1 0x20 DUP3 ADD SWAP1 POP DUP2 DUP2 SUB PUSH0 DUP4 ADD MSTORE PUSH2 0x66D DUP2 PUSH2 0x634 JUMP JUMPDEST SWAP1 POP SWAP2 SWAP1 POP JUMP JUMPDEST PUSH32 0x4E487B7100000000000000000000000000000000000000000000000000000000 PUSH0 MSTORE PUSH1 0x22 PUSH1 0x4 MSTORE PUSH1 0x24 PUSH0 REVERT JUMPDEST PUSH0 PUSH1 0x2 DUP3 DIV SWAP1 POP PUSH1 0x1 DUP3 AND DUP1 PUSH2 0x6B8 JUMPI PUSH1 0x7F DUP3 AND SWAP2 POP JUMPDEST PUSH1 0x20 DUP3 LT DUP2 SUB PUSH2 0x6CB JUMPI PUSH2 0x6CA PUSH2 0x674 JUMP JUMPDEST JUMPDEST POP SWAP2 SWAP1 POP JUMP JUMPDEST PUSH0 DUP2 SWAP1 POP DUP2 PUSH0 MSTORE PUSH1 0x20 PUSH0 KECCAK256 SWAP1 POP SWAP2 SWAP1 POP JUMP JUMPDEST PUSH0 PUSH1 0x20 PUSH1 0x1F DUP4 ADD DIV SWAP1 POP SWAP2 SWAP1 POP JUMP JUMPDEST PUSH0 DUP3 DUP3 SHL SWAP1 POP SWAP3 SWAP2 POP POP JUMP JUMPDEST PUSH0 PUSH1 0x8 DUP4 MUL PUSH2 0x72D PUSH32 0xFFFFFFFFFFFFFFFFFFFFFFFFFFFFFFFFFFFFFFFFFFFFFFFFFFFFFFFFFFFFFFFF DUP3 PUSH2 0x6F2 JUMP JUMPDEST PUSH2 0x737 DUP7 DUP4 PUSH2 0x6F2 JUMP JUMPDEST SWAP6 POP DUP1 NOT DUP5 AND SWAP4 POP DUP1 DUP7 AND DUP5 OR SWAP3 POP POP POP SWAP4 SWAP3 POP POP POP JUMP JUMPDEST PUSH0 DUP2 SWAP1 POP SWAP2 SWAP1 POP JUMP JUMPDEST PUSH0 PUSH2 0x772 PUSH2 0x76D PUSH2 0x768 DUP5 PUSH2 0x503 JUMP JUMPDEST PUSH2 0x74F JUMP JUMPDEST PUSH2 0x503 JUMP JUMPDEST SWAP1 POP SWAP2 SWAP1 POP JUMP JUMPDEST PUSH0 DUP2 SWAP1 POP SWAP2 SWAP1 POP JUMP JUMPDEST PUSH2 0x78B DUP4 PUSH2 0x758 JUMP JUMPDEST PUSH2 0x79F PUSH2 0x797 DUP3 PUSH2 0x779 JUMP JUMPDEST DUP5 DUP5 SLOAD PUSH2 0x6FE JUMP JUMPDEST DUP3 SSTORE POP POP POP POP JUMP JUMPDEST PUSH0 SWAP1 JUMP JUMPDEST PUSH2 0x7B3 PUSH2 0x7A7 JUMP JUMPDEST PUSH2 0x7BE DUP2 DUP5 DUP5 PUSH2 0x782 JUMP JUMPDEST POP POP POP JUMP JUMPDEST JUMPDEST DUP2 DUP2 LT ISZERO PUSH2 0x7E1 JUMPI PUSH2 0x7D6 PUSH0 DUP3 PUSH2 0x7AB JUMP JUMPDEST PUSH1 0x1 DUP2 ADD SWAP1 POP PUSH2 0x7C4 JUMP JUMPDEST POP POP JUMP JUMPDEST PUSH1 0x1F DUP3 GT ISZERO PUSH2 0x826 JUMPI PUSH2 0x7F7 DUP2 PUSH2 0x6D1 JUMP JUMPDEST PUSH2 0x800 DUP5 PUSH2 0x6E3 JUMP JUMPDEST DUP2 ADD PUSH1 0x20 DUP6 LT ISZERO PUSH2 0x80F JUMPI DUP2 SWAP1 POP JUMPDEST PUSH2 0x823 PUSH2 0x81B DUP6 PUSH2 0x6E3 JUMP JUMPDEST DUP4 ADD DUP3 PUSH2 0x7C3 JUMP JUMPDEST POP POP JUMPDEST POP POP POP JUMP JUMPDEST PUSH0 DUP3 DUP3 SHR SWAP1 POP SWAP3 SWAP2 POP POP JUMP JUMPDEST PUSH0 PUSH2 0x846 PUSH0 NOT DUP5 PUSH1 0x8 MUL PUSH2 0x82B JUMP JUMPDEST NOT DUP1 DUP4 AND SWAP2 POP POP SWAP3 SWAP2 POP POP JUMP JUMPDEST PUSH0 PUSH2 0x85E DUP4 DUP4 PUSH2 0x837 JUMP JUMPDEST SWAP2 POP DUP3 PUSH1 0x2 MUL DUP3 OR SWAP1 POP SWAP3 SWAP2 POP POP JUMP JUMPDEST PUSH2 0x877 DUP3 PUSH2 0x58C JUMP JUMPDEST PUSH8 0xFFFFFFFFFFFFFFFF DUP2 GT ISZERO PUSH2 0x890 JUMPI PUSH2 0x88F PUSH2 0x398 JUMP JUMPDEST JUMPDEST PUSH2 0x89A DUP3 SLOAD PUSH2 0x6A1 JUMP JUMPDEST PUSH2 0x8A5 DUP3 DUP3 DUP6 PUSH2 0x7E5 JUMP JUMPDEST PUSH0 PUSH1 0x20 SWAP1 POP PUSH1 0x1F DUP4 GT PUSH1 0x1 DUP2 EQ PUSH2 0x8D6 JUMPI PUSH0 DUP5 ISZERO PUSH2 0x8C4 JUMPI DUP3 DUP8 ADD MLOAD SWAP1 POP JUMPDEST PUSH2 0x8CE DUP6 DUP3 PUSH2 0x853 JUMP JUMPDEST DUP7 SSTORE POP PUSH2 0x935 JUMP JUMPDEST PUSH1 0x1F NOT DUP5 AND PUSH2 0x8E4 DUP7 PUSH2 0x6D1 JUMP JUMPDEST PUSH0 JUMPDEST DUP3 DUP2 LT ISZERO PUSH2 0x90B JUMPI DUP5 DUP10 ADD MLOAD DUP3 SSTORE PUSH1 0x1 DUP3 ADD SWAP2 POP PUSH1 0x20 DUP6 ADD SWAP5 POP PUSH1 0x20 DUP2 ADD SWAP1 POP PUSH2 0x8E6 JUMP JUMPDEST DUP7 DUP4 LT ISZERO PUSH2 0x928 JUMPI DUP5 DUP10 ADD MLOAD PUSH2 0x924 PUSH1 0x1F DUP10 AND DUP3 PUSH2 0x837 JUMP JUMPDEST DUP4 SSTORE POP JUMPDEST PUSH1 0x1 PUSH1 0x2 DUP9 MUL ADD DUP9 SSTORE POP POP POP JUMPDEST POP POP POP POP POP POP JUMP JUMPDEST PUSH32 0x4F6E6C79206F776E65722063616E207669657720666F7274756E6520636F756E PUSH0 DUP3 ADD MSTORE PUSH32 0x7400000000000000000000000000000000000000000000000000000000000000 PUSH1 0x20 DUP3 ADD MSTORE POP JUMP JUMPDEST PUSH0 PUSH2 0x997 PUSH1 0x21 DUP4 PUSH2 0x596 JUMP JUMPDEST SWAP2 POP PUSH2 0x9A2 DUP3 PUSH2 0x93D JUMP JUMPDEST PUSH1 0x40 DUP3 ADD SWAP1 POP SWAP2 SWAP1 POP JUMP JUMPDEST PUSH0 PUSH1 0x20 DUP3 ADD SWAP1 POP DUP2 DUP2 SUB PUSH0 DUP4 ADD MSTORE PUSH2 0x9C4 DUP2 PUSH2 0x98B JUMP JUMPDEST SWAP1 POP SWAP2 SWAP1 POP JUMP JUMPDEST PUSH0 DUP2 SWAP1 POP SWAP2 SWAP1 POP JUMP JUMPDEST PUSH2 0x9E5 PUSH2 0x9E0 DUP3 PUSH2 0x503 JUMP JUMPDEST PUSH2 0x9CB JUMP JUMPDEST DUP3 MSTORE POP POP JUMP JUMPDEST PUSH0 DUP2 PUSH1 0x60 SHL SWAP1 POP SWAP2 SWAP1 POP JUMP JUMPDEST PUSH0 PUSH2 0xA01 DUP3 PUSH2 0x9EB JUMP JUMPDEST SWAP1 POP SWAP2 SWAP1 POP JUMP JUMPDEST PUSH0 PUSH2 0xA12 DUP3 PUSH2 0x9F7 JUMP JUMPDEST SWAP1 POP SWAP2 SWAP1 POP JUMP JUMPDEST PUSH2 0xA2A PUSH2 0xA25 DUP3 PUSH2 0x553 JUMP JUMPDEST PUSH2 0xA08 JUMP JUMPDEST DUP3 MSTORE POP POP JUMP JUMPDEST PUSH0 PUSH2 0xA3B DUP3 DUP7 PUSH2 0x9D4 JUMP JUMPDEST PUSH1 0x20 DUP3 ADD SWAP2 POP PUSH2 0xA4B DUP3 DUP6 PUSH2 0xA19 JUMP JUMPDEST PUSH1 0x14 DUP3 ADD SWAP2 POP PUSH2 0xA5B DUP3 DUP5 PUSH2 0x9D4 JUMP JUMPDEST PUSH1 0x20 DUP3 ADD SWAP2 POP DUP2 SWAP1 POP SWAP5 SWAP4 POP POP POP POP JUMP JUMPDEST PUSH32 0x4E487B7100000000000000000000000000000000000000000000000000000000 PUSH0 MSTORE PUSH1 0x12 PUSH1 0x4 MSTORE PUSH1 0x24 PUSH0 REVERT JUMPDEST PUSH0 PUSH2 0xAA3 DUP3 PUSH2 0x503 JUMP JUMPDEST SWAP2 POP PUSH2 0xAAE DUP4 PUSH2 0x503 JUMP JUMPDEST SWAP3 POP DUP3 PUSH2 0xABE JUMPI PUSH2 0xABD PUSH2 0xA6C JUMP JUMPDEST JUMPDEST DUP3 DUP3 MOD SWAP1 POP SWAP3 SWAP2 POP POP JUMP JUMPDEST PUSH32 0x4E487B7100000000000000000000000000000000000000000000000000000000 PUSH0 MSTORE PUSH1 0x32 PUSH1 0x4 MSTORE PUSH1 0x24 PUSH0 REVERT JUMPDEST PUSH0 PUSH1 0x60 DUP3 ADD SWAP1 POP PUSH2 0xB09 PUSH0 DUP4 ADD DUP7 PUSH2 0x564 JUMP JUMPDEST DUP2 DUP2 SUB PUSH1 0x20 DUP4 ADD MSTORE PUSH2 0xB1B DUP2 DUP6 PUSH2 0x5B4 JUMP JUMPDEST SWAP1 POP PUSH2 0xB2A PUSH1 0x40 DUP4 ADD DUP5 PUSH2 0x50C JUMP JUMPDEST SWAP5 SWAP4 POP POP POP POP JUMP INVALID LOG2 PUSH5 0x6970667358 0x22 SLT KECCAK256 GASPRICE 0xCF 0xBF 0x2A 0xD9 JUMPI PUSH7 0x70F73B13812695 DIV 0xF7 DUP6 PUSH24 0x17C0BA56640680FC01E0DCF826E264736F6C634300081A00 CALLER SELFBALANCE PUSH16 0x6F64207468696E677320636F6D652074 PUSH16 0x2074686F73652077686F207374616B65 0x2E COINBASE KECCAK256 PUSH13 0x69666574696D65206F66206861 PUSH17 0x70696E6573732061776169747320796F75 0x2E COINBASE KECCAK256 PUSH20 0x6F667420666F726B20696E20796F757220706174 PUSH9 0x2077696C6C206C6561 PUSH5 0x20746F2062 PUSH6 0x74746572206F PUSH22 0x74636F6D65732E596F7572206C6564676572206F6620 PUSH8 0x6F6F642064656564 PUSH20 0x2077696C6C2062652072657761726465642E5468 PUSH6 0x20736D617274 KECCAK256 PUSH14 0x6F766520796F75206D616B652074 PUSH16 0x6461792077696C6C206C65616420746F KECCAK256 PUSH20 0x75636365737320746F6D6F72726F772E4E657720 PUSH16 0x70706F7274756E697469657320617761 PUSH10 0x7420796F75206F6E2079 PUSH16 0x757220626C6F636B636861696E206A6F PUSH22 0x726E65792E53756363657373206973206E6F74206669 PUSH15 0x616C2C206661696C75726520697320 PUSH15 0x6F7420666174616C3A206974206973 KECCAK256 PUSH21 0x686520636F757261676520746F20636F6E74696E75 PUSH6 0x207468617420 PUSH4 0x6F756E74 PUSH20 0x2E546865206F7261636C65207361797320796F75 PUSH19 0x20667574757265206973206272696768742E53 PUSH16 0x6D656F6E652066726F6D20796F757220 PUSH17 0x6173742077696C6C20736F6F6E20726565 PUSH15 0x74657220796F7572206C6966652E59 PUSH16 0x7572206D696E696E67206566666F7274 PUSH20 0x20776F6E277420676F20756E7265776172646564 0x2E COINBASE KECCAK256 PUSH3 0x656175 PUSH21 0x6966756C2C20736D6172742C20616E64206C6F7669 PUSH15 0x6720706572736F6E2077696C6C2062 PUSH6 0x20636F6D696E PUSH8 0x20696E746F20796F PUSH22 0x72206C6966652E5468652070726F6F66206F6620796F PUSH22 0x7220776F726B206973206265636F6D696E6720657669 PUSH5 0x656E742074 PUSH16 0x20616C6C2E596F7572206162696C6974 PUSH26 0x20746F20616461707420746F206368616C6C656E676573207769 PUSH13 0x6C206272696E67206772656174 KECCAK256 PUSH20 0x7563636573732E54686520736D61727420636F6E PUSH21 0x7261637420796F75207365656B20697320616C7265 PUSH2 0x6479 KECCAK256 PUSH24 0x697468696E20796F752E50617469656E6365206973206120 PUSH23 0x69727475652C20657370656369616C6C79207768696C65 KECCAK256 PUSH24 0x616974696E6720666F7220636F6E6669726D6174696F6E73 0x2E MSIZE PUSH16 0x7572207075626C696320616464726573 PUSH20 0x2077696C6C206174747261637420706F73697469 PUSH23 0x6520617474656E74696F6E2E596F7572206E657874204E CHAINID SLOAD KECCAK256 PUSH24 0x696C6C206272696E6720756E6578706563746564206A6F79 0x2E JUMP PUSH6 0x726966792C20 PUSH21 0x68656E20747275737420796F757220696E7374696E PUSH4 0x74732E59 PUSH16 0x7572207369676E617475726520697320 PUSH22 0x6E69717565202D2075736520697420776973656C792E COINBASE KECCAK256 PUSH11 0x6F75726E6579206F662061 KECCAK256 PUSH21 0x686F7573616E64206D696C657320626567696E7320 PUSH24 0x69746820612073696E676C6520626C6F636B2E4120736D61 PUSH13 0x6C20696E766573746D656E7420 PUSH21 0x6F6461792077696C6C207969656C64206772656174 KECCAK256 PUSH19 0x657475726E7320746F6D6F72726F772E596F75 PUSH19 0x20646563656E7472616C697A65642066757475 PUSH19 0x65206973206272696768742E596F7572207065 PUSH19 0x736F6E616C20626C6F636B636861696E206973 KECCAK256 PUSH2 0x6464 PUSH10 0x6E6720626C6F636B7320 PUSH16 0x662068617070696E6573732E596F7572 KECCAK256 PUSH24 0x616C6C65742077696C6C20736F6F6E207265636569766520 PUSH2 0x2073 PUSH22 0x7270726973696E672061697264726F702E5468652068 PUSH2 0x7368 KECCAK256 PUSH16 0x6620796F7572206566666F7274732077 PUSH10 0x6C6C20726573756C7420 PUSH10 0x6E2076616C7561626C65 KECCAK256 PUSH19 0x6577617264732E596F757220746F6B656E6F6D PUSH10 0x63732061726520706572 PUSH7 0x6563746C792062 PUSH2 0x6C61 PUSH15 0x6365642E596F757220646973747269 PUSH3 0x757465 PUSH5 0x206566666F PUSH19 0x74732077696C6C207969656C642063656E7472 PUSH2 0x6C69 PUSH27 0x656420737563636573732E596F7572206861726420776F726B2069 PUSH20 0x2061626F757420746F20706179206F66662E2052 PUSH6 0x6D656D626572 KECCAK256 PUSH21 0x6F2063656C65627261746520796F75722073756363 PUSH6 0x73732E576865 PUSH15 0x20696E20646F7562742C20636F6D6D PUSH10 0x7420746F20746865206D PUSH2 0x696E KECCAK256 PUSH4 0x6861696E KECCAK256 PUSH16 0x6620796F7572206C6966652E416E2065 PUSH25 0x636974696E67206F70706F7274756E6974792077696C6C2070 PUSH19 0x6573656E7420697473656C6620696620796F75 KECCAK256 PUSH19 0x656D61696E206F70656E20746F206E65772065 PUSH25 0x70657269656E6365732E546865206772656174657374207269 PUSH20 0x6B206973206E6F742074616B696E67206F6E652E MSTORE8 PUSH21 0x616B6520796F757220636C61696D20696E20776861 PUSH21 0x206D617474657273206D6F73742E41206368616E63 PUSH6 0x206D65657469 PUSH15 0x672077696C6C206C65616420746F20 PUSH10 0x6D706F7274616E742063 PUSH9 0x616E67657320696E20 PUSH26 0x6F7572206C6966652E596F7572207472616E73616374696F6E20 PUSH24 0x696C6C20636F6E6669726D20696E20756E65787065637465 PUSH5 0x2077617973 0x2E SLOAD PUSH9 0x6520746F6B656E2079 PUSH16 0x75277665206265656E2069676E6F7269 PUSH15 0x672077696C6C20736F6F6E206D6F6F PUSH15 0x2E536F6D6574696D65732074686520 PUSH3 0x657374 KECCAK256 PUSH23 0x616C696461746F7220697320796F7572206F776E20696E PUSH21 0x756974696F6E2E54727573742074686520696D6D75 PUSH21 0x61626C65206E6174757265206F6620796F75722064 PUSH6 0x636973696F6E PUSH20 0x2E436F6E73656E7375732077696C6C2062652072 PUSH6 0x616368656420 PUSH10 0x6E20796F757220666176 PUSH16 0x7220746F6461792E446F6E2774207761 PUSH10 0x7420666F722067617320 PUSH7 0x65657320746F20 PUSH5 0x726F702E20 COINBASE PUSH4 0x74206E6F PUSH24 0x2E596F757220637265617469766974792077696C6C206D61 PUSH12 0x6520796F7520737563636573 PUSH20 0x66756C20696E20616E20756E6578706563746564 KECCAK256 PUSH23 0x656E747572652E412070726976617465206B6579206973 KECCAK256 PUSH13 0x696B6520612073656372657420 0x2D KECCAK256 PUSH8 0x7561726420697420 PUSH24 0x656C6C2E54686520776973646F6D20796F75207365656B20 PUSH10 0x7320616C726561647920 PUSH24 0x697468696E20796F752E5468652062756720696E20796F75 PUSH19 0x20636F6465206973206F6E206C696E65203432 0x2E SLOAD PUSH9 0x65206E65787420626C PUSH16 0x636B2077696C6C206272696E6720796F PUSH22 0x20676F6F6420666F7274756E652E546865206E657874 KECCAK256 PUSH9 0x61726420666F726B20 PUSH10 0x6E20796F7572206C6966 PUSH6 0x2077696C6C20 PUSH3 0x652062 PUSH6 0x6E6566696369 PUSH2 0x6C2E COINBASE KECCAK256 PUSH4 0x6F6E7365 PUSH15 0x737573206973206275696C64696E67 KECCAK256 PUSH2 0x726F PUSH22 0x6E6420796F7572206C6561646572736869702E546F64 PUSH2 0x7927 PUSH20 0x206D657267652077696C6C207265736F6C766520 PUSH26 0x6F757220636F6E666C696374696E672070617468732E466F7274 PUSH22 0x6E65206661766F72732074686520626F6C642E205461 PUSH12 0x652074686174206C65617020 PUSH10 0x6E746F20446546692E41 KECCAK256 PUSH8 0x656E65736973206F PUSH7 0x206E6577206964 PUSH6 0x61732077696C PUSH13 0x207472616E73666F726D20796F PUSH22 0x722070726F6A6563742E596F75722067726561746573 PUSH21 0x20737472656E67746820697320796F757220706572 PUSH20 0x697374656E742064657465726D696E6174696F6E 0x2E "
				},
				"gasEstimates": {
					"creation": {
						"codeDepositCost": "584000",
						"executionCost": "infinite",
						"totalCost": "infinite"
					},
					"external": {
						"addFortune(string)": "infinite",
						"getFortuneCount()": "4608",
						"getRandomFortune()": "infinite",
						"owner()": "2530"
					}
				},
				"methodIdentifiers": {
					"addFortune(string)": "4cf373e6",
					"getFortuneCount()": "5b8b6582",
					"getRandomFortune()": "93ce6c1c",
					"owner()": "8da5cb5b"
				}
			},
			"storageLayout": {
				"storage": [
					{
						"astId": 4,
						"contract": "FortuneCookie.sol:FortuneCookie",
						"label": "fortunes",
						"offset": 0,
						"slot": "0",
						"type": "t_array(t_string_storage)dyn_storage"
					},
					{
						"astId": 6,
						"contract": "FortuneCookie.sol:FortuneCookie",
						"label": "owner",
						"offset": 0,
						"slot": "1",
						"type": "t_address"
					}
				],
				"types": {
					"t_address": {
						"encoding": "inplace",
						"label": "address",
						"numberOfBytes": "20"
					},
					"t_array(t_string_storage)dyn_storage": {
						"base": "t_string_storage",
						"encoding": "dynamic_array",
						"label": "string[]",
						"numberOfBytes": "32"
					},
					"t_string_storage": {
						"encoding": "bytes",
						"label": "string",
						"numberOfBytes": "32"
					}
				}
			},
			"userdoc": {
				"kind": "user",
				"methods": {},
				"version": 1
			}
		}
	}
}