{
	"data": {
		"bytecode": {
			"linkReferences": {},
			"object": "608060405234801561000f575f80fd5b503360015f6101000a81548173ffffffffffffffffffffffffffffffffffffffff021916908373ffffffffffffffffffffffffffffffffffffffff1602179055505f8060018154018082558091505060019003905f5260205f20015f604051806080016040528060448152602001611e716044913990919091509081610095919061103b565b505f8060018154018082558091505060019003905f5260205f20015f60405180608001604052806042815260200161244360429139909190915090816100db919061103b565b505f8060018154018082558091505060019003905f5260205f20015f604051806060016040528060378152602001611d636037913990919091509081610121919061103b565b505f8060018154018082558091505060019003905f5260205f20015f604051806060016040528060328152602001611f246032913990919091509081610167919061103b565b505f8060018154018082558091505060019003905f5260205f20015f6040518060600160405280603281526020016125c060329139909190915090816101ad919061103b565b505f8060018154018082558091505060019003905f5260205f20015f604051806060016040528060288152602001611fcb60289139909190915090816101f3919061103b565b505f8060018154018082558091505060019003905f5260205f20015f6040518060600160405280602e815260200161235e602e913990919091509081610239919061103b565b505f8060018154018082558091505060019003905f5260205f20015f6040518060600160405280603b8152602001612077603b91399091909150908161027f919061103b565b505f8060018154018082558091505060019003905f5260205f20015f60405180606001604052806033815260200161210d60339139909190915090816102c5919061103b565b505f8060018154018082558091505060019003905f5260205f20015f6040518060600160405280602381526020016124de602391399091909150908161030b919061103b565b505f8060018154018082558091505060019003905f5260205f20015f604051806080016040528060568152602001611d9a6056913990919091509081610351919061103b565b505f8060018154018082558091505060019003905f5260205f20015f6040518060600160405280603881526020016126256038913990919091509081610397919061103b565b505f8060018154018082558091505060019003905f5260205f20015f60405180608001604052806052815260200161225460529139909190915090816103dd919061103b565b505f8060018154018082558091505060019003905f5260205f20015f604051806060016040528060338152602001611e166033913990919091509081610423919061103b565b505f8060018154018082558091505060019003905f5260205f20015f6040518060600160405280602a81526020016124b4602a913990919091509081610469919061103b565b505f8060018154018082558091505060019003905f5260205f20015f6040518060600160405280603d81526020016122f0603d9139909190915090816104af919061103b565b505f8060018154018082558091505060019003905f5260205f20015f6040518060800160405280604781526020016121d860479139909190915090816104f5919061103b565b505f8060018154018082558091505060019003905f5260205f20015f604051806060016040528060238152602001611ca3602391399091909150908161053b919061103b565b505f8060018154018082558091505060019003905f5260205f20015f6040518060600160405280602481526020016122a66024913990919091509081610581919061103b565b505f8060018154018082558091505060019003905f5260205f20015f6040518060600160405280603d8152602001611ee7603d9139909190915090816105c7919061103b565b505f8060018154018082558091505060019003905f5260205f20015f60405180606001604052806039815260200161203e603991399091909150908161060d919061103b565b505f8060018154018082558091505060019003905f5260205f20015f6040518060600160405280603c8152602001611d27603c913990919091509081610653919061103b565b505f8060018154018082558091505060019003905f5260205f20015f6040518060600160405280602481526020016120b26024913990919091509081610699919061103b565b505f8060018154018082558091505060019003905f5260205f20015f6040518060600160405280602d81526020016123bf602d9139909190915090816106df919061103b565b505f8060018154018082558091505060019003905f5260205f20015f6040518060600160405280602f8152602001612485602f913990919091509081610725919061103b565b505f8060018154018082558091505060019003905f5260205f20015f6040518060600160405280602e81526020016123ec602e91399091909150908161076b919061103b565b505f8060018154018082558091505060019003905f5260205f20015f60405180606001604052806039815260200161214060399139909190915090816107b1919061103b565b505f8060018154018082558091505060019003905f5260205f20015f60405180606001604052806031815260200161232d60319139909190915090816107f7919061103b565b505f8060018154018082558091505060019003905f5260205f20015f60405180606001604052806029815260200161241a602991399091909150908161083d919061103b565b505f8060018154018082558091505060019003905f5260205f20015f6040518060600160405280603781526020016120d66037913990919091509081610883919061103b565b505f8060018154018082558091505060019003905f5260205f20015f60405180606001604052806032815260200161258e60329139909190915090816108c9919061103b565b505f8060018154018082558091505060019003905f5260205f20015f6040518060600160405280602681526020016122ca602691399091909150908161090f919061103b565b505f8060018154018082558091505060019003905f5260205f20015f604051806080016040528060418152602001611f566041913990919091509081610955919061103b565b505f8060018154018082558091505060019003905f5260205f20015f604051806060016040528060268152602001611df0602691399091909150908161099b919061103b565b505f8060018154018082558091505060019003905f5260205f20015f604051806060016040528060368152602001611cc660369139909190915090816109e1919061103b565b505f8060018154018082558091505060019003905f5260205f20015f604051806060016040528060348152602001611f976034913990919091509081610a27919061103b565b505f8060018154018082558091505060019003905f5260205f20015f6040518060600160405280602b8152602001612501602b913990919091509081610a6d919061103b565b505f8060018154018082558091505060019003905f5260205f20015f6040518060600160405280603881526020016121a06038913990919091509081610ab3919061103b565b505f8060018154018082558091505060019003905f5260205f20015f604051806060016040528060228152602001611ff36022913990919091509081610af9919061103b565b505f8060018154018082558091505060019003905f5260205f20015f6040518060600160405280602981526020016120156029913990919091509081610b3f919061103b565b505f8060018154018082558091505060019003905f5260205f20015f6040518060600160405280603381526020016125f26033913990919091509081610b85919061103b565b505f8060018154018082558091505060019003905f5260205f20015f60405180606001604052806035815260200161221f6035913990919091509081610bcb919061103b565b505f8060018154018082558091505060019003905f5260205f20015f604051806060016040528060328152602001611eb56032913990919091509081610c11919061103b565b505f8060018154018082558091505060019003905f5260205f20015f6040518060600160405280602b8152602001611cfc602b913990919091509081610c57919061103b565b505f8060018154018082558091505060019003905f5260205f20015f60405180606001604052806033815260200161238c6033913990919091509081610c9d919061103b565b505f8060018154018082558091505060019003905f5260205f20015f6040518060600160405280602f815260200161255f602f913990919091509081610ce3919061103b565b505f8060018154018082558091505060019003905f5260205f20015f6040518060600160405280602781526020016121796027913990919091509081610d29919061103b565b505f8060018154018082558091505060019003905f5260205f20015f60405180606001604052806033815260200161252c6033913990919091509081610d6f919061103b565b505f8060018154018082558091505060019003905f5260205f20015f604051806060016040528060248152602001611c7f6024913990919091509081610db5919061103b565b505f8060018154018082558091505060019003905f5260205f20015f604051806060016040528060288152602001611e496028913990919091509081610dfb919061103b565b5061110a565b5f81519050919050565b7f4e487b71000000000000000000000000000000000000000000000000000000005f52604160045260245ffd5b7f4e487b71000000000000000000000000000000000000000000000000000000005f52602260045260245ffd5b5f6002820490506001821680610e7c57607f821691505b602082108103610e8f57610e8e610e38565b5b50919050565b5f819050815f5260205f209050919050565b5f6020601f8301049050919050565b5f82821b905092915050565b5f60088302610ef17fffffffffffffffffffffffffffffffffffffffffffffffffffffffffffffffff82610eb6565b610efb8683610eb6565b95508019841693508086168417925050509392505050565b5f819050919050565b5f819050919050565b5f610f3f610f3a610f3584610f13565b610f1c565b610f13565b9050919050565b5f819050919050565b610f5883610f25565b610f6c610f6482610f46565b848454610ec2565b825550505050565b5f90565b610f80610f74565b610f8b818484610f4f565b505050565b5b81811015610fae57610fa35f82610f78565b600181019050610f91565b5050565b601f821115610ff357610fc481610e95565b610fcd84610ea7565b81016020851015610fdc578190505b610ff0610fe885610ea7565b830182610f90565b50505b505050565b5f82821c905092915050565b5f6110135f1984600802610ff8565b1980831691505092915050565b5f61102b8383611004565b9150826002028217905092915050565b61104482610e01565b67ffffffffffffffff81111561105d5761105c610e0b565b5b6110678254610e65565b611072828285610fb2565b5f60209050601f8311600181146110a3575f8415611091578287015190505b61109b8582611020565b865550611102565b601f1984166110b186610e95565b5f5b828110156110d8578489015182556001820191506020850194506020810190506110b3565b868310156110f557848901516110f1601f891682611004565b8355505b6001600288020188555050505b505050505050565b610b68806111175f395ff3fe608060405234801561000f575f80fd5b506004361061004a575f3560e01c80634cf373e61461004e5780635b8b65821461006a5780638da5cb5b1461008857806393ce6c1c146100a6575b5f80fd5b610068600480360381019061006391906104bc565b6100c4565b005b610072610187565b60405161007f919061051b565b60405180910390f35b610090610221565b60405161009d9190610573565b60405180910390f35b6100ae610246565b6040516100bb91906105ec565b60405180910390f35b60015f9054906101000a900473ffffffffffffffffffffffffffffffffffffffff1673ffffffffffffffffffffffffffffffffffffffff163373ffffffffffffffffffffffffffffffffffffffff1614610153576040517f08c379a000000000000000000000000000000000000000000000000000000000815260040161014a90610656565b60405180910390fd5b5f81908060018154018082558091505060019003905f5260205f20015f909190919091509081610183919061086e565b5050565b5f60015f9054906101000a900473ffffffffffffffffffffffffffffffffffffffff1673ffffffffffffffffffffffffffffffffffffffff163373ffffffffffffffffffffffffffffffffffffffff1614610217576040517f08c379a000000000000000000000000000000000000000000000000000000000815260040161020e906109ad565b60405180910390fd5b5f80549050905090565b60015f9054906101000a900473ffffffffffffffffffffffffffffffffffffffff1681565b60605f808054905042334460405160200161026393929190610a30565b604051602081830303815290604052805190602001205f1c6102859190610a99565b90505f80828154811061029b5761029a610ac9565b5b905f5260205f200180546102ae906106a1565b80601f01602080910402602001604051908101604052809291908181526020018280546102da906106a1565b80156103255780601f106102fc57610100808354040283529160200191610325565b820191905f5260205f20905b81548152906001019060200180831161030857829003601f168201915b505050505090507f066298f218a95834dd8d57814339953fabfe8c9bf89dcd37697610dec82a7f6f33824260405161035f93929190610af6565b60405180910390a1809250505090565b5f604051905090565b5f80fd5b5f80fd5b5f80fd5b5f80fd5b5f601f19601f8301169050919050565b7f4e487b71000000000000000000000000000000000000000000000000000000005f52604160045260245ffd5b6103ce82610388565b810181811067ffffffffffffffff821117156103ed576103ec610398565b5b80604052505050565b5f6103ff61036f565b905061040b82826103c5565b919050565b5f67ffffffffffffffff82111561042a57610429610398565b5b61043382610388565b9050602081019050919050565b828183375f83830152505050565b5f61046061045b84610410565b6103f6565b90508281526020810184848401111561047c5761047b610384565b5b610487848285610440565b509392505050565b5f82601f8301126104a3576104a2610380565b5b81356104b384826020860161044e565b91505092915050565b5f602082840312156104d1576104d0610378565b5b5f82013567ffffffffffffffff8111156104ee576104ed61037c565b5b6104fa8482850161048f565b91505092915050565b5f819050919050565b61051581610503565b82525050565b5f60208201905061052e5f83018461050c565b92915050565b5f73ffffffffffffffffffffffffffffffffffffffff82169050919050565b5f61055d82610534565b9050919050565b61056d81610553565b82525050565b5f6020820190506105865f830184610564565b92915050565b5f81519050919050565b5f82825260208201905092915050565b8281835e5f83830152505050565b5f6105be8261058c565b6105c88185610596565b93506105d88185602086016105a6565b6105e181610388565b840191505092915050565b5f6020820190508181035f83015261060481846105b4565b905092915050565b7f4f6e6c79206f776e65722063616e2061646420666f7274756e657300000000005f82015250565b5f610640601b83610596565b915061064b8261060c565b602082019050919050565b5f6020820190508181035f83015261066d81610634565b9050919050565b7f4e487b71000000000000000000000000000000000000000000000000000000005f52602260045260245ffd5b5f60028204905060018216806106b857607f821691505b6020821081036106cb576106ca610674565b5b50919050565b5f819050815f5260205f209050919050565b5f6020601f8301049050919050565b5f82821b905092915050565b5f6008830261072d7fffffffffffffffffffffffffffffffffffffffffffffffffffffffffffffffff826106f2565b61073786836106f2565b95508019841693508086168417925050509392505050565b5f819050919050565b5f61077261076d61076884610503565b61074f565b610503565b9050919050565b5f819050919050565b61078b83610758565b61079f61079782610779565b8484546106fe565b825550505050565b5f90565b6107b36107a7565b6107be818484610782565b505050565b5b818110156107e1576107d65f826107ab565b6001810190506107c4565b5050565b601f821115610826576107f7816106d1565b610800846106e3565b8101602085101561080f578190505b61082361081b856106e3565b8301826107c3565b50505b505050565b5f82821c905092915050565b5f6108465f198460080261082b565b1980831691505092915050565b5f61085e8383610837565b9150826002028217905092915050565b6108778261058c565b67ffffffffffffffff8111156108905761088f610398565b5b61089a82546106a1565b6108a58282856107e5565b5f60209050601f8311600181146108d6575f84156108c4578287015190505b6108ce8582610853565b865550610935565b601f1984166108e4866106d1565b5f5b8281101561090b578489015182556001820191506020850194506020810190506108e6565b868310156109285784890151610924601f891682610837565b8355505b6001600288020188555050505b505050505050565b7f4f6e6c79206f776e65722063616e207669657720666f7274756e6520636f756e5f8201527f7400000000000000000000000000000000000000000000000000000000000000602082015250565b5f610997602183610596565b91506109a28261093d565b604082019050919050565b5f6020820190508181035f8301526109c48161098b565b9050919050565b5f819050919050565b6109e56109e082610503565b6109cb565b82525050565b5f8160601b9050919050565b5f610a01826109eb565b9050919050565b5f610a12826109f7565b9050919050565b610a2a610a2582610553565b610a08565b82525050565b5f610a3b82866109d4565b602082019150610a4b8285610a19565b601482019150610a5b82846109d4565b602082019150819050949350505050565b7f4e487b71000000000000000000000000000000000000000000000000000000005f52601260045260245ffd5b5f610aa382610503565b9150610aae83610503565b925082610abe57610abd610a6c565b5b828206905092915050565b7f4e487b71000000000000000000000000000000000000000000000000000000005f52603260045260245ffd5b5f606082019050610b095f830186610564565b8181036020830152610b1b81856105b4565b9050610b2a604083018461050c565b94935050505056fea26469706673582212203acfbf2ad9576670f73b1381269504f7857717c0ba56640680fc01e0dcf826e264736f6c634300081a0033476f6f64207468696e677320636f6d6520746f2074686f73652077686f207374616b652e41206c69666574696d65206f662068617070696e6573732061776169747320796f752e4120736f667420666f726b20696e20796f757220706174682077696c6c206c65616420746f20626574746572206f7574636f6d65732e596f7572206c6564676572206f6620676f6f642064656564732077696c6c2062652072657761726465642e54686520736d617274206d6f766520796f75206d616b6520746f6461792077696c6c206c65616420746f207375636365737320746f6d6f72726f772e4e6577206f70706f7274756e697469657320617761697420796f75206f6e20796f757220626c6f636b636861696e206a6f75726e65792e53756363657373206973206e6f742066696e616c2c206661696c757265206973206e6f7420666174616c3a2069742069732074686520636f757261676520746f20636f6e74696e7565207468617420636f756e74732e546865206f7261636c65207361797320796f757220667574757265206973206272696768742e536f6d656f6e652066726f6d20796f757220706173742077696c6c20736f6f6e207265656e74657220796f7572206c6966652e596f7572206d696e696e67206566666f72747320776f6e277420676f20756e72657761726465642e412062656175746966756c2c20736d6172742c20616e64206c6f76696e6720706572736f6e2077696c6c20626520636f6d696e6720696e746f20796f7572206c6966652e5468652070726f6f66206f6620796f757220776f726b206973206265636f6d696e672065766964656e7420746f20616c6c2e596f7572206162696c69747920746f20616461707420746f206368616c6c656e6765732077696c6c206272696e6720677265617420737563636573732e54686520736d61727420636f6e747261637420796f75207365656b20697320616c72656164792077697468696e20796f752e50617469656e63652069732061207669727475652c20657370656369616c6c79207768696c652077616974696e6720666f7220636f6e6669726d6174696f6e732e596f7572207075626c696320616464726573732077696c6c206174747261637420706f73697469766520617474656e74696f6e2e596f7572206e657874204e46542077696c6c206272696e6720756e6578706563746564206a6f792e5665726966792c207468656e20747275737420796f757220696e7374696e6374732e596f7572207369676e617475726520697320756e69717565202d2075736520697420776973656c792e41206a6f75726e6579206f6620612074686f7573616e64206d696c657320626567696e73207769746820612073696e676c6520626c6f636b2e4120736d616c6c20696e766573746d656e7420746f6461792077696c6c207969656c642067726561742072657475726e7320746f6d6f72726f772e596f757220646563656e7472616c697a656420667574757265206973206272696768742e596f757220706572736f6e616c20626c6f636b636861696e20697320616464696e6720626c6f636b73206f662068617070696e6573732e596f75722077616c6c65742077696c6c20736f6f6e207265636569766520612073757270726973696e672061697264726f702e5468652068617368206f6620796f7572206566666f7274732077696c6c20726573756c7420696e2076616c7561626c6520726577617264732e596f757220746f6b656e6f6d6963732061726520706572666563746c792062616c616e6365642e596f7572206469737472696275746564206566666f7274732077696c6c207969656c642063656e7472616c697a656420737563636573732e596f7572206861726420776f726b2069732061626f757420746f20706179206f66662e2052656d656d62657220746f2063656c65627261746520796f757220737563636573732e5768656e20696e20646f7562742c20636f6d6d697420746f20746865206d61696e20636861696e206f6620796f7572206c6966652e416e206578636974696e67206f70706f7274756e6974792077696c6c2070726573656e7420697473656c6620696620796f752072656d61696e206f70656e20746f206e657720657870657269656e6365732e546865206772656174657374207269736b206973206e6f742074616b696e67206f6e652e5374616b6520796f757220636c61696d20696e2077686174206d617474657273206d6f73742e41206368616e6365206d656574696e672077696c6c206c65616420746f20696d706f7274616e74206368616e67657320696e20796f7572206c6966652e596f7572207472616e73616374696f6e2077696c6c20636f6e6669726d20696e20756e657870656374656420776179732e54686520746f6b656e20796f75277665206265656e2069676e6f72696e672077696c6c20736f6f6e206d6f6f6e2e536f6d6574696d65732074686520626573742076616c696461746f7220697320796f7572206f776e20696e74756974696f6e2e54727573742074686520696d6d757461626c65206e6174757265206f6620796f7572206465636973696f6e732e436f6e73656e7375732077696c6c206265207265616368656420696e20796f7572206661766f7220746f6461792e446f6e2774207761697420666f7220676173206665657320746f2064726f702e20416374206e6f772e596f757220637265617469766974792077696c6c206d616b6520796f75207375636365737366756c20696e20616e20756e65787065637465642076656e747572652e412070726976617465206b6579206973206c696b65206120736563726574202d2067756172642069742077656c6c2e54686520776973646f6d20796f75207365656b20697320616c72656164792077697468696e20796f752e5468652062756720696e20796f757220636f6465206973206f6e206c696e652034322e546865206e65787420626c6f636b2077696c6c206272696e6720796f7520676f6f6420666f7274756e652e546865206e657874206861726420666f726b20696e20796f7572206c6966652077696c6c2062652062656e6566696369616c2e4120636f6e73656e737573206973206275696c64696e672061726f756e6420796f7572206c6561646572736869702e546f6461792773206d657267652077696c6c207265736f6c766520796f757220636f6e666c696374696e672070617468732e466f7274756e65206661766f72732074686520626f6c642e2054616b652074686174206c65617020696e746f20446546692e412067656e65736973206f66206e65772069646561732077696c6c207472616e73666f726d20796f75722070726f6a6563742e596f757220677265617465737420737472656e67746820697320796f75722070657273697374656e742064657465726d696e6174696f6e2e",
			"opcodes": "PUSH1 0x80 PUSH1 0x40 MSTORE CALLVALUE DUP1 ISZERO PUSH2 0xF JUMPI PUSH0 DUP1 REVERT JUMPDEST POP CALLER PUSH1 0x1 PUSH0 PUSH2 0x100 EXP DUP2 SLOAD DUP2 PUSH20 0xFFFFFFFFFFFFFFFFFFFFFFFFFFFFFFFFFFFFFFFF MUL NOT AND SWAP1 DUP4 PUSH20 0xFFFFFFFFFFFFFFFFFFFFFFFFFFFFFFFFFFFFFFFF AND MUL OR SWAP1 SSTORE POP PUSH0 DUP1 PUSH1 0x1 DUP2 SLOAD ADD DUP1 DUP3 SSTORE DUP1 SWAP2 POP POP PUSH1 0x1 SWAP1 SUB SWAP1 PUSH0 MSTORE PUSH1 0x20 PUSH0 KECCAK256 ADD PUSH0 PUSH1 0x40 MLOAD DUP1 PUSH1 0x80 ADD PUSH1 0x40 MSTORE DUP1 PUSH1 0x44 DUP2 MSTORE PUSH1 0x20 ADD PUSH2 0x1E71 PUSH1 0x44 SWAP2 CODECOPY SWAP1 SWAP2 SWAP1 SWAP2 POP SWAP1 DUP2 PUSH2 0x95 SWAP2 SWAP1 PUSH2 0x103B JUMP JUMPDEST POP PUSH0 DUP1 PUSH1 0x1 DUP2 SLOAD ADD DUP1 DUP3 SSTORE DUP1 SWAP2 POP POP PUSH1 0x1 SWAP1 SUB SWAP1 PUSH0 MSTORE PUSH1 0x20 PUSH0 KECCAK256 ADD PUSH0 PUSH1 0x40 MLOAD DUP1 PUSH1 0x80 ADD PUSH1 0x40 MSTORE DUP1 PUSH1 0x42 DUP2 MSTORE PUSH1 0x20 ADD PUSH2 0x2443 PUSH1 0x42 SWAP2 CODECOPY SWAP1 SWAP2 SWAP1 SWAP2 POP SWAP1 DUP2 PUSH2 0xDB SWAP2 SWAP1 PUSH2 0x103B JUMP JUMPDEST POP PUSH0 DUP1 PUSH1 0x1 DUP2 SLOAD ADD DUP1 DUP3 SSTORE DUP1 SWAP2 POP POP PUSH1 0x1 SWAP1 SUB SWAP1 PUSH0 MSTORE PUSH1 0x20 PUSH0 KECCAK256 ADD PUSH0 PUSH1 0x40 MLOAD DUP1 PUSH1 0x60 ADD PUSH1 0x40 MSTORE DUP1 PUSH1 0x37 DUP2 MSTORE PUSH1 0x20 ADD PUSH2 0x1D63 PUSH1 0x37 SWAP2 CODECOPY SWAP1 SWAP2 SWAP1 SWAP2 POP SWAP1 DUP2 PUSH2 0x121 SWAP2 SWAP1 PUSH2 0x103B JUMP JUMPDEST POP PUSH0 DUP1 PUSH1 0x1 DUP2 SLOAD ADD DUP1 DUP3 SSTORE DUP1 SWAP2 POP POP PUSH1 0x1 SWAP1 SUB SWAP1 PUSH0 MSTORE PUSH1 0x20 PUSH0 KECCAK256 ADD PUSH0 PUSH1 0x40 MLOAD DUP1 PUSH1 0x60 ADD PUSH1 0x40 MSTORE DUP1 PUSH1 0x32 DUP2 MSTORE PUSH1 0x20 ADD PUSH2 0x1F24 PUSH1 0x32 SWAP2 CODECOPY SWAP1 SWAP2 SWAP1 SWAP2 POP SWAP1 DUP2 PUSH2 0x167 SWAP2 SWAP1 PUSH2 0x103B JUMP JUMPDEST POP PUSH0 DUP1 PUSH1 0x1 DUP2 SLOAD ADD DUP1 DUP3 SSTORE DUP1 SWAP2 POP POP PUSH1 0x1 SWAP1 SUB SWAP1 PUSH0 MSTORE PUSH1 0x20 PUSH0 KECCAK256 ADD PUSH0 PUSH1 0x40 MLOAD DUP1 PUSH1 0x60 ADD PUSH1 0x40 MSTORE DUP1 PUSH1 0x32 DUP2 MSTORE PUSH1 0x20 ADD PUSH2 0x25C0 PUSH1 0x32 SWAP2 CODECOPY SWAP1 SWAP2 SWAP1 SWAP2 POP SWAP1 DUP2 PUSH2 0x1AD SWAP2 SWAP1 PUSH2 0x103B JUMP JUMPDEST POP PUSH0 DUP1 PUSH1 0x1 DUP2 SLOAD ADD DUP1 DUP3 SSTORE DUP1 SWAP2 POP POP PUSH1 0x1 SWAP1 SUB SWAP1 PUSH0 MSTORE PUSH1 0x20 PUSH0 KECCAK256 ADD PUSH0 PUSH1 0x40 MLOAD DUP1 PUSH1 0x60 ADD PUSH1 0x40 MSTORE DUP1 PUSH1 0x28 DUP2 MSTORE PUSH1 0x20 ADD PUSH2 0x1FCB PUSH1 0x28 SWAP2 CODECOPY SWAP1 SWAP2 SWAP1 SWAP2 POP SWAP1 DUP2 PUSH2 0x1F3 SWAP2 SWAP1 PUSH2 0x103B JUMP JUMPDEST POP PUSH0 DUP1 PUSH1 0x1 DUP2 SLOAD ADD DUP1 DUP3 SSTORE DUP1 SWAP2 POP POP PUSH1 0x1 SWAP1 SUB SWAP1 PUSH0 MSTORE PUSH1 0x20 PUSH0 KECCAK256 ADD PUSH0 PUSH1 0x40 MLOAD DUP1 PUSH1 0x60 ADD PUSH1 0x40 MSTORE DUP1 PUSH1 0x2E DUP2 MSTORE PUSH1 0x20 ADD PUSH2 0x235E PUSH1 0x2E SWAP2 CODECOPY SWAP1 SWAP2 SWAP1 SWAP2 POP SWAP1 DUP2 PUSH2 0x239 SWAP2 SWAP1 PUSH2 0x103B JUMP JUMPDEST POP PUSH0 DUP1 PUSH1 0x1 DUP2 SLOAD ADD DUP1 DUP3 SSTORE DUP1 SWAP2 POP POP PUSH1 0x1 SWAP1 SUB SWAP1 PUSH0 MSTORE PUSH1 0x20 PUSH0 KECCAK256 ADD PUSH0 PUSH1 0x40 MLOAD DUP1 PUSH1 0x60 ADD PUSH1 0x40 MSTORE DUP1 PUSH1 0x3B DUP2 MSTORE PUSH1 0x20 ADD PUSH2 0x2077 PUSH1 0x3B SWAP2 CODECOPY SWAP1 SWAP2 SWAP1 SWAP2 POP SWAP1 DUP2 PUSH2 0x27F SWAP2 SWAP1 PUSH2 0x103B JUMP JUMPDEST POP PUSH0 DUP1 PUSH1 0x1 DUP2 SLOAD ADD DUP1 DUP3 SSTORE DUP1 SWAP2 POP POP PUSH1 0x1 SWAP1 SUB SWAP1 PUSH0 MSTORE PUSH1 0x20 PUSH0 KECCAK256 ADD PUSH0 PUSH1 0x40 MLOAD DUP1 PUSH1 0x60 ADD PUSH1 0x40 MSTORE DUP1 PUSH1 0x33 DUP2 MSTORE PUSH1 0x20 ADD PUSH2 0x210D PUSH1 0x33 SWAP2 CODECOPY SWAP1 SWAP2 SWAP1 SWAP2 POP SWAP1 DUP2 PUSH2 0x2C5 SWAP2 SWAP1 PUSH2 0x103B JUMP JUMPDEST POP PUSH0 DUP1 PUSH1 0x1 DUP2 SLOAD ADD DUP1 DUP3 SSTORE DUP1 SWAP2 POP POP PUSH1 0x1 SWAP1 SUB SWAP1 PUSH0 MSTORE PUSH1 0x20 PUSH0 KECCAK256 ADD PUSH0 PUSH1 0x40 MLOAD DUP1 PUSH1 0x60 ADD PUSH1 0x40 MSTORE DUP1 PUSH1 0x23 DUP2 MSTORE PUSH1 0x20 ADD PUSH2 0x24DE PUSH1 0x23 SWAP2 CODECOPY SWAP1 SWAP2 SWAP1 SWAP2 POP SWAP1 DUP2 PUSH2 0x30B SWAP2 SWAP1 PUSH2 0x103B JUMP JUMPDEST POP PUSH0 DUP1 PUSH1 0x1 DUP2 SLOAD ADD DUP1 DUP3 SSTORE DUP1 SWAP2 POP POP PUSH1 0x1 SWAP1 SUB SWAP1 PUSH0 MSTORE PUSH1 0x20 PUSH0 KECCAK256 ADD PUSH0 PUSH1 0x40 MLOAD DUP1 PUSH1 0x80 ADD PUSH1 0x40 MSTORE DUP1 PUSH1 0x56 DUP2 MSTORE PUSH1 0x20 ADD PUSH2 0x1D9A PUSH1 0x56 SWAP2 CODECOPY SWAP1 SWAP2 SWAP1 SWAP2 POP SWAP1 DUP2 PUSH2 0x351 SWAP2 SWAP1 PUSH2 0x103B JUMP JUMPDEST POP PUSH0 DUP1 PUSH1 0x1 DUP2 SLOAD ADD DUP1 DUP3 SSTORE DUP1 SWAP2 POP POP PUSH1 0x1 SWAP1 SUB SWAP1 PUSH0 MSTORE PUSH1 0x20 PUSH0 KECCAK256 ADD PUSH0 PUSH1 0x40 MLOAD DUP1 PUSH1 0x60 ADD PUSH1 0x40 MSTORE DUP1 PUSH1 0x38 DUP2 MSTORE PUSH1 0x20 ADD PUSH2 0x2625 PUSH1 0x38 SWAP2 CODECOPY SWAP1 SWAP2 SWAP1 SWAP2 POP SWAP1 DUP2 PUSH2 0x397 SWAP2 SWAP1 PUSH2 0x103B JUMP JUMPDEST POP PUSH0 DUP1 PUSH1 0x1 DUP2 SLOAD ADD DUP1 DUP3 SSTORE DUP1 SWAP2 POP POP PUSH1 0x1 SWAP1 SUB SWAP1 PUSH0 MSTORE PUSH1 0x20 PUSH0 KECCAK256 ADD PUSH0 PUSH1 0x40 MLOAD DUP1 PUSH1 0x80 ADD PUSH1 0x40 MSTORE DUP1 PUSH1 0x52 DUP2 MSTORE PUSH1 0x20 ADD PUSH2 0x2254 PUSH1 0x52 SWAP2 CODECOPY SWAP1 SWAP2 SWAP1 SWAP2 POP SWAP1 DUP2 PUSH2 0x3DD SWAP2 SWAP1 PUSH2 0x103B JUMP JUMPDEST POP PUSH0 DUP1 PUSH1 0x1 DUP2 SLOAD ADD DUP1 DUP3 SSTORE DUP1 SWAP2 POP POP PUSH1 0x1 SWAP1 SUB SWAP1 PUSH0 MSTORE PUSH1 0x20 PUSH0 KECCAK256 ADD PUSH0 PUSH1 0x40 MLOAD DUP1 PUSH1 0x60 ADD PUSH1 0x40 MSTORE DUP1 PUSH1 0x33 DUP2 MSTORE PUSH1 0x20 ADD PUSH2 0x1E16 PUSH1 0x33 SWAP2 CODECOPY SWAP1 SWAP2 SWAP1 SWAP2 POP SWAP1 DUP2 PUSH2 0x423 SWAP2 SWAP1 PUSH2 0x103B JUMP JUMPDEST POP PUSH0 DUP1 PUSH1 0x1 DUP2 SLOAD ADD DUP1 DUP3 SSTORE DUP1 SWAP2 POP POP PUSH1 0x1 SWAP1 SUB SWAP1 PUSH0 MSTORE PUSH1 0x20 PUSH0 KECCAK256 ADD PUSH0 PUSH1 0x40 MLOAD DUP1 PUSH1 0x60 ADD PUSH1 0x40 MSTORE DUP1 PUSH1 0x2A DUP2 MSTORE PUSH1 0x20 ADD PUSH2 0x24B4 PUSH1 0x2A SWAP2 CODECOPY SWAP1 SWAP2 SWAP1 SWAP2 POP SWAP1 DUP2 PUSH2 0x469 SWAP2 SWAP1 PUSH2 0x103B JUMP JUMPDEST POP PUSH0 DUP1 PUSH1 0x1 DUP2 SLOAD ADD DUP1 DUP3 SSTORE DUP1 SWAP2 POP POP PUSH1 0x1 SWAP1 SUB SWAP1 PUSH0 MSTORE PUSH1 0x20 PUSH0 KECCAK256 ADD PUSH0 PUSH1 0x40 MLOAD DUP1 PUSH1 0x60 ADD PUSH1 0x40 MSTORE DUP1 PUSH1 0x3D DUP2 MSTORE PUSH1 0x20 ADD PUSH2 0x22F0 PUSH1 0x3D SWAP2 CODECOPY SWAP1 SWAP2 SWAP1 SWAP2 POP SWAP1 DUP2 PUSH2 0x4AF SWAP2 SWAP1 PUSH2 0x103B JUMP JUMPDEST POP PUSH0 DUP1 PUSH1 0x1 DUP2 SLOAD ADD DUP1 DUP3 SSTORE DUP1 SWAP2 POP POP PUSH1 0x1 SWAP1 SUB SWAP1 PUSH0 MSTORE PUSH1 0x20 PUSH0 KECCAK256 ADD PUSH0 PUSH1 0x40 MLOAD DUP1 PUSH1 0x80 ADD PUSH1 0x40 MSTORE DUP1 PUSH1 0x47 DUP2 MSTORE PUSH1 0x20 ADD PUSH2 0x21D8 PUSH1 0x47 SWAP2 CODECOPY SWAP1 SWAP2 SWAP1 SWAP2 POP SWAP1 DUP2 PUSH2 0x4F5 SWAP2 SWAP1 PUSH2 0x103B JUMP JUMPDEST POP PUSH0 DUP1 PUSH1 0x1 DUP2 SLOAD ADD DUP1 DUP3 SSTORE DUP1 SWAP2 POP POP PUSH1 0x1 SWAP1 SUB SWAP1 PUSH0 MSTORE PUSH1 0x20 PUSH0 KECCAK256 ADD PUSH0 PUSH1 0x40 MLOAD DUP1 PUSH1 0x60 ADD PUSH1 0x40 MSTORE DUP1 PUSH1 0x23 DUP2 MSTORE PUSH1 0x20 ADD PUSH2 0x1CA3 PUSH1 0x23 SWAP2 CODECOPY SWAP1 SWAP2 SWAP1 SWAP2 POP SWAP1 DUP2 PUSH2 0x53B SWAP2 SWAP1 PUSH2 0x103B JUMP JUMPDEST POP PUSH0 DUP1 PUSH1 0x1 DUP2 SLOAD ADD DUP1 DUP3 SSTORE DUP1 SWAP2 POP POP PUSH1 0x1 SWAP1 SUB SWAP1 PUSH0 MSTORE PUSH1 0x20 PUSH0 KECCAK256 ADD PUSH0 PUSH1 0x40 MLOAD DUP1 PUSH1 0x60 ADD PUSH1 0x40 MSTORE DUP1 PUSH1 0x24 DUP2 MSTORE PUSH1 0x20 ADD PUSH2 0x22A6 PUSH1 0x24 SWAP2 CODECOPY SWAP1 SWAP2 SWAP1 SWAP2 POP SWAP1 DUP2 PUSH2 0x581 SWAP2 SWAP1 PUSH2 0x103B JUMP JUMPDEST POP PUSH0 DUP1 PUSH1 0x1 DUP2 SLOAD ADD DUP1 DUP3 SSTORE DUP1 SWAP2 POP POP PUSH1 0x1 SWAP1 SUB SWAP1 PUSH0 MSTORE PUSH1 0x20 PUSH0 KECCAK256 ADD PUSH0 PUSH1 0x40 MLOAD DUP1 PUSH1 0x60 ADD PUSH1 0x40 MSTORE DUP1 PUSH1 0x3D DUP2 MSTORE PUSH1 0x20 ADD PUSH2 0x1EE7 PUSH1 0x3D SWAP2 CODECOPY SWAP1 SWAP2 SWAP1 SWAP2 POP SWAP1 DUP2 PUSH2 0x5C7 SWAP2 SWAP1 PUSH2 0x103B JUMP JUMPDEST POP PUSH0 DUP1 PUSH1 0x1 DUP2 SLOAD ADD DUP1 DUP3 SSTORE DUP1 SWAP2 POP POP PUSH1 0x1 SWAP1 SUB SWAP1 PUSH0 MSTORE PUSH1 0x20 PUSH0 KECCAK256 ADD PUSH0 PUSH1 0x40 MLOAD DUP1 PUSH1 0x60 ADD PUSH1 0x40 MSTORE DUP1 PUSH1 0x39 DUP2 MSTORE PUSH1 0x20 ADD PUSH2 0x203E PUSH1 0x39 SWAP2 CODECOPY SWAP1 SWAP2 SWAP1 SWAP2 POP SWAP1 DUP2 PUSH2 0x60D SWAP2 SWAP1 PUSH2 0x103B JUMP JUMPDEST POP PUSH0 DUP1 PUSH1 0x1 DUP2 SLOAD ADD DUP1 DUP3 SSTORE DUP1 SWAP2 POP POP PUSH1 0x1 SWAP1 SUB SWAP1 PUSH0 MSTORE PUSH1 0x20 PUSH0 KECCAK256 ADD PUSH0 PUSH1 0x40 MLOAD DUP1 PUSH1 0x60 ADD PUSH1 0x40 MSTORE DUP1 PUSH1 0x3C DUP2 MSTORE PUSH1 0x20 ADD PUSH2 0x1D27 PUSH1 0x3C SWAP2 CODECOPY SWAP1 SWAP2 SWAP1 SWAP2 POP SWAP1 DUP2 PUSH2 0x653 SWAP2 SWAP1 PUSH2 0x103B JUMP JUMPDEST POP PUSH0 DUP1 PUSH1 0x1 DUP2 SLOAD ADD DUP1 DUP3 SSTORE DUP1 SWAP2 POP POP PUSH1 0x1 SWAP1 SUB SWAP1 PUSH0 MSTORE PUSH1 0x20 PUSH0 KECCAK256 ADD PUSH0 PUSH1 0x40 MLOAD DUP1 PUSH1 0x60 ADD PUSH1 0x40 MSTORE DUP1 PUSH1 0x24 DUP2 MSTORE PUSH1 0x20 ADD PUSH2 0x20B2 PUSH1 0x24 SWAP2 CODECOPY SWAP1 SWAP2 SWAP1 SWAP2 POP SWAP1 DUP2 PUSH2 0x699 SWAP2 SWAP1 PUSH2 0x103B JUMP JUMPDEST POP PUSH0 DUP1 PUSH1 0x1 DUP2 SLOAD ADD DUP1 DUP3 SSTORE DUP1 SWAP2 POP POP PUSH1 0x1 SWAP1 SUB SWAP1 PUSH0 MSTORE PUSH1 0x20 PUSH0 KECCAK256 ADD PUSH0 PUSH1 0x40 MLOAD DUP1 PUSH1 0x60 ADD PUSH1 0x40 MSTORE DUP1 PUSH1 0x2D DUP2 MSTORE PUSH1 0x20 ADD PUSH2 0x23BF PUSH1 0x2D SWAP2 CODECOPY SWAP1 SWAP2 SWAP1 SWAP2 POP SWAP1 DUP2 PUSH2 0x6DF SWAP2 SWAP1 PUSH2 0x103B JUMP JUMPDEST POP PUSH0 DUP1 PUSH1 0x1 DUP2 SLOAD ADD DUP1 DUP3 SSTORE DUP1 SWAP2 POP POP PUSH1 0x1 SWAP1 SUB SWAP1 PUSH0 MSTORE PUSH1 0x20 PUSH0 KECCAK256 ADD PUSH0 PUSH1 0x40 MLOAD DUP1 PUSH1 0x60 ADD PUSH1 0x40 MSTORE DUP1 PUSH1 0x2F DUP2 MSTORE PUSH1 0x20 ADD PUSH2 0x2485 PUSH1 0x2F SWAP2 CODECOPY SWAP1 SWAP2 SWAP1 SWAP2 POP SWAP1 DUP2 PUSH2 0x725 SWAP2 SWAP1 PUSH2 0x103B JUMP JUMPDEST POP PUSH0 DUP1 PUSH1 0x1 DUP2 SLOAD ADD DUP1 DUP3 SSTORE DUP1 SWAP2 POP POP PUSH1 0x1 SWAP1 SUB SWAP1 PUSH0 MSTORE PUSH1 0x20 PUSH0 KECCAK256 ADD PUSH0 PUSH1 0x40 MLOAD DUP1 PUSH1 0x60 ADD PUSH1 0x40 MSTORE DUP1 PUSH1 0x2E DUP2 MSTORE PUSH1 0x20 ADD PUSH2 0x23EC PUSH1 0x2E SWAP2 CODECOPY SWAP1 SWAP2 SWAP1 SWAP2 POP SWAP1 DUP2 PUSH2 0x76B SWAP2 SWAP1 PUSH2 0x103B JUMP JUMPDEST POP PUSH0 DUP1 PUSH1 0x1 DUP2 SLOAD ADD DUP1 DUP3 SSTORE DUP1 SWAP2 POP POP PUSH1 0x1 SWAP1 SUB SWAP1 PUSH0 MSTORE PUSH1 0x20 PUSH0 KECCAK256 ADD PUSH0 PUSH1 0x40 MLOAD DUP1 PUSH1 0x60 ADD PUSH1 0x40 MSTORE DUP1 PUSH1 0x39 DUP2 MSTORE PUSH1 0x20 ADD PUSH2 0x2140 PUSH1 0x39 SWAP2 CODECOPY SWAP1 SWAP2 SWAP1 SWAP2 POP SWAP1 DUP2 PUSH2 0x7B1 SWAP2 SWAP1 PUSH2 0x103B JUMP JUMPDEST POP PUSH0 DUP1 PUSH1 0x1 DUP2 SLOAD ADD DUP1 DUP3 SSTORE DUP1 SWAP2 POP POP PUSH1 0x1 SWAP1 SUB SWAP1 PUSH0 MSTORE PUSH1 0x20 PUSH0 KECCAK256 ADD PUSH0 PUSH1 0x40 MLOAD DUP1 PUSH1 0x60 ADD PUSH1 0x40 MSTORE DUP1 PUSH1 0x31 DUP2 MSTORE PUSH1 0x20 ADD PUSH2 0x232D PUSH1 0x31 SWAP2 CODECOPY SWAP1 SWAP2 SWAP1 SWAP2 POP SWAP1 DUP2 PUSH2 0x7F7 SWAP2 SWAP1 PUSH2 0x103B JUMP JUMPDEST POP PUSH0 DUP1 PUSH1 0x1 DUP2 SLOAD ADD DUP1 DUP3 SSTORE DUP1 SWAP2 POP POP PUSH1 0x1 SWAP1 SUB SWAP1 PUSH0 MSTORE PUSH1 0x20 PUSH0 KECCAK256 ADD PUSH0 PUSH1 0x40 MLOAD DUP1 PUSH1 0x60 ADD PUSH1 0x40 MSTORE DUP1 PUSH1 0x29 DUP2 MSTORE PUSH1 0x20 ADD PUSH2 0x241A PUSH1 0x29 SWAP2 CODECOPY SWAP1 SWAP2 SWAP1 SWAP2 POP SWAP1 DUP2 PUSH2 0x83D SWAP2 SWAP1 PUSH2 0x103B JUMP JUMPDEST POP PUSH0 DUP1 PUSH1 0x1 DUP2 SLOAD ADD DUP1 DUP3 SSTORE DUP1 SWAP2 POP POP PUSH1 0x1 SWAP1 SUB SWAP1 PUSH0 MSTORE PUSH1 0x20 PUSH0 KECCAK256 ADD PUSH0 PUSH1 0x40 MLOAD DUP1 PUSH1 0x60 ADD PUSH1 0x40 MSTORE DUP1 PUSH1 0x37 DUP2 MSTORE PUSH1 0x20 ADD PUSH2 0x20D6 PUSH1 0x37 SWAP2 CODECOPY SWAP1 SWAP2 SWAP1 SWAP2 POP SWAP1 DUP2 PUSH2 0x883 SWAP2 SWAP1 PUSH2 0x103B JUMP JUMPDEST POP PUSH0 DUP1 PUSH1 0x1 DUP2 SLOAD ADD DUP1 DUP3 SSTORE DUP1 SWAP2 POP POP PUSH1 0x1 SWAP1 SUB SWAP1 PUSH0 MSTORE PUSH1 0x20 PUSH0 KECCAK256 ADD PUSH0 PUSH1 0x40 MLOAD DUP1 PUSH1 0x60 ADD PUSH1 0x40 MSTORE DUP1 PUSH1 0x32 DUP2 MSTORE PUSH1 0x20 ADD PUSH2 0x258E PUSH1 0x32 SWAP2 CODECOPY SWAP1 SWAP2 SWAP1 SWAP2 POP SWAP1 DUP2 PUSH2 0x8C9 SWAP2 SWAP1 PUSH2 0x103B JUMP JUMPDEST POP PUSH0 DUP1 PUSH1 0x1 DUP2 SLOAD ADD DUP1 DUP3 SSTORE DUP1 SWAP2 POP POP PUSH1 0x1 SWAP1 SUB SWAP1 PUSH0 MSTORE PUSH1 0x20 PUSH0 KECCAK256 ADD PUSH0 PUSH1 0x40 MLOAD DUP1 PUSH1 0x60 ADD PUSH1 0x40 MSTORE DUP1 PUSH1 0x26 DUP2 MSTORE PUSH1 0x20 ADD PUSH2 0x22CA PUSH1 0x26 SWAP2 CODECOPY SWAP1 SWAP2 SWAP1 SWAP2 POP SWAP1 DUP2 PUSH2 0x90F SWAP2 SWAP1 PUSH2 0x103B JUMP JUMPDEST POP PUSH0 DUP1 PUSH1 0x1 DUP2 SLOAD ADD DUP1 DUP3 SSTORE DUP1 SWAP2 POP POP PUSH1 0x1 SWAP1 SUB SWAP1 PUSH0 MSTORE PUSH1 0x20 PUSH0 KECCAK256 ADD PUSH0 PUSH1 0x40 MLOAD DUP1 PUSH1 0x80 ADD PUSH1 0x40 MSTORE DUP1 PUSH1 0x41 DUP2 MSTORE PUSH1 0x20 ADD PUSH2 0x1F56 PUSH1 0x41 SWAP2 CODECOPY SWAP1 SWAP2 SWAP1 SWAP2 POP SWAP1 DUP2 PUSH2 0x955 SWAP2 SWAP1 PUSH2 0x103B JUMP JUMPDEST POP PUSH0 DUP1 PUSH1 0x1 DUP2 SLOAD ADD DUP1 DUP3 SSTORE DUP1 SWAP2 POP POP PUSH1 0x1 SWAP1 SUB SWAP1 PUSH0 MSTORE PUSH1 0x20 PUSH0 KECCAK256 ADD PUSH0 PUSH1 0x40 MLOAD DUP1 PUSH1 0x60 ADD PUSH1 0x40 MSTORE DUP1 PUSH1 0x26 DUP2 MSTORE PUSH1 0x20 ADD PUSH2 0x1DF0 PUSH1 0x26 SWAP2 CODECOPY SWAP1 SWAP2 SWAP1 SWAP2 POP SWAP1 DUP2 PUSH2 0x99B SWAP2 SWAP1 PUSH2 0x103B JUMP JUMPDEST POP PUSH0 DUP1 PUSH1 0x1 DUP2 SLOAD ADD DUP1 DUP3 SSTORE DUP1 SWAP2 POP POP PUSH1 0x1 SWAP1 SUB SWAP1 PUSH0 MSTORE PUSH1 0x20 PUSH0 KECCAK256 ADD PUSH0 PUSH1 0x40 MLOAD DUP1 PUSH1 0x60 ADD PUSH1 0x40 MSTORE DUP1 PUSH1 0x36 DUP2 MSTORE PUSH1 0x20 ADD PUSH2 0x1CC6 PUSH1 0x36 SWAP2 CODECOPY SWAP1 SWAP2 SWAP1 SWAP2 POP SWAP1 DUP2 PUSH2 0x9E1 SWAP2 SWAP1 PUSH2 0x103B JUMP JUMPDEST POP PUSH0 DUP1 PUSH1 0x1 DUP2 SLOAD ADD DUP1 DUP3 SSTORE DUP1 SWAP2 POP POP PUSH1 0x1 SWAP1 SUB SWAP1 PUSH0 MSTORE PUSH1 0x20 PUSH0 KECCAK256 ADD PUSH0 PUSH1 0x40 MLOAD DUP1 PUSH1 0x60 ADD PUSH1 0x40 MSTORE DUP1 PUSH1 0x34 DUP2 MSTORE PUSH1 0x20 ADD PUSH2 0x1F97 PUSH1 0x34 SWAP2 CODECOPY SWAP1 SWAP2 SWAP1 SWAP2 POP SWAP1 DUP2 PUSH2 0xA27 SWAP2 SWAP1 PUSH2 0x103B JUMP JUMPDEST POP PUSH0 DUP1 PUSH1 0x1 DUP2 SLOAD ADD DUP1 DUP3 SSTORE DUP1 SWAP2 POP POP PUSH1 0x1 SWAP1 SUB SWAP1 PUSH0 MSTORE PUSH1 0x20 PUSH0 KECCAK256 ADD PUSH0 PUSH1 0x40 MLOAD DUP1 PUSH1 0x60 ADD PUSH1 0x40 MSTORE DUP1 PUSH1 0x2B DUP2 MSTORE PUSH1 0x20 ADD PUSH2 0x2501 PUSH1 0x2B SWAP2 CODECOPY SWAP1 SWAP2 SWAP1 SWAP2 POP SWAP1 DUP2 PUSH2 0xA6D SWAP2 SWAP1 PUSH2 0x103B JUMP JUMPDEST POP PUSH0 DUP1 PUSH1 0x1 DUP2 SLOAD ADD DUP1 DUP3 SSTORE DUP1 SWAP2 POP POP PUSH1 0x1 SWAP1 SUB SWAP1 PUSH0 MSTORE PUSH1 0x20 PUSH0 KECCAK256 ADD PUSH0 PUSH1 0x40 MLOAD DUP1 PUSH1 0x60 ADD PUSH1 0x40 MSTORE DUP1 PUSH1 0x38 DUP2 MSTORE PUSH1 0x20 ADD PUSH2 0x21A0 PUSH1 0x38 SWAP2 CODECOPY SWAP1 SWAP2 SWAP1 SWAP2 POP SWAP1 DUP2 PUSH2 0xAB3 SWAP2 SWAP1 PUSH2 0x103B JUMP JUMPDEST POP PUSH0 DUP1 PUSH1 0x1 DUP2 SLOAD ADD DUP1 DUP3 SSTORE DUP1 SWAP2 POP POP PUSH1 0x1 SWAP1 SUB SWAP1 PUSH0 MSTORE PUSH1 0x20 PUSH0 KECCAK256 ADD PUSH0 PUSH1 0x40 MLOAD DUP1 PUSH1 0x60 ADD PUSH1 0x40 MSTORE DUP1 PUSH1 0x22 DUP2 MSTORE PUSH1 0x20 ADD PUSH2 0x1FF3 PUSH1 0x22 SWAP2 CODECOPY SWAP1 SWAP2 SWAP1 SWAP2 POP SWAP1 DUP2 PUSH2 0xAF9 SWAP2 SWAP1 PUSH2 0x103B JUMP JUMPDEST POP PUSH0 DUP1 PUSH1 0x1 DUP2 SLOAD ADD DUP1 DUP3 SSTORE DUP1 SWAP2 POP POP PUSH1 0x1 SWAP1 SUB SWAP1 PUSH0 MSTORE PUSH1 0x20 PUSH0 KECCAK256 ADD PUSH0 PUSH1 0x40 MLOAD DUP1 PUSH1 0x60 ADD PUSH1 0x40 MSTORE DUP1 PUSH1 0x29 DUP2 MSTORE PUSH1 0x20 ADD PUSH2 0x2015 PUSH1 0x29 SWAP2 CODECOPY SWAP1 SWAP2 SWAP1 SWAP2 POP SWAP1 DUP2 PUSH2 0xB3F SWAP2 SWAP1 PUSH2 0x103B JUMP JUMPDEST POP PUSH0 DUP1 PUSH1 0x1 DUP2 SLOAD ADD DUP1 DUP3 SSTORE DUP1 SWAP2 POP POP PUSH1 0x1 SWAP1 SUB SWAP1 PUSH0 MSTORE PUSH1 0x20 PUSH0 KECCAK256 ADD PUSH0 PUSH1 0x40 MLOAD DUP1 PUSH1 0x60 ADD PUSH1 0x40 MSTORE DUP1 PUSH1 0x33 DUP2 MSTORE PUSH1 0x20 ADD PUSH2 0x25F2 PUSH1 0x33 SWAP2 CODECOPY SWAP1 SWAP2 SWAP1 SWAP2 POP SWAP1 DUP2 PUSH2 0xB85 SWAP2 SWAP1 PUSH2 0x103B JUMP JUMPDEST POP PUSH0 DUP1 PUSH1 0x1 DUP2 SLOAD ADD DUP1 DUP3 SSTORE DUP1 SWAP2 POP POP PUSH1 0x1 SWAP1 SUB SWAP1 PUSH0 MSTORE PUSH1 0x20 PUSH0 KECCAK256 ADD PUSH0 PUSH1 0x40 MLOAD DUP1 PUSH1 0x60 ADD PUSH1 0x40 MSTORE DUP1 PUSH1 0x35 DUP2 MSTORE PUSH1 0x20 ADD PUSH2 0x221F PUSH1 0x35 SWAP2 CODECOPY SWAP1 SWAP2 SWAP1 SWAP2 POP SWAP1 DUP2 PUSH2 0xBCB SWAP2 SWAP1 PUSH2 0x103B JUMP JUMPDEST POP PUSH0 DUP1 PUSH1 0x1 DUP2 SLOAD ADD DUP1 DUP3 SSTORE DUP1 SWAP2 POP POP PUSH1 0x1 SWAP1 SUB SWAP1 PUSH0 MSTORE PUSH1 0x20 PUSH0 KECCAK256 ADD PUSH0 PUSH1 0x40 MLOAD DUP1 PUSH1 0x60 ADD PUSH1 0x40 MSTORE DUP1 PUSH1 0x32 DUP2 MSTORE PUSH1 0x20 ADD PUSH2 0x1EB5 PUSH1 0x32 SWAP2 CODECOPY SWAP1 SWAP2 SWAP1 SWAP2 POP SWAP1 DUP2 PUSH2 0xC11 SWAP2 SWAP1 PUSH2 0x103B JUMP JUMPDEST POP PUSH0 DUP1 PUSH1 0x1 DUP2 SLOAD ADD DUP1 DUP3 SSTORE DUP1 SWAP2 POP POP PUSH1 0x1 SWAP1 SUB SWAP1 PUSH0 MSTORE PUSH1 0x20 PUSH0 KECCAK256 ADD PUSH0 PUSH1 0x40 MLOAD DUP1 PUSH1 0x60 ADD PUSH1 0x40 MSTORE DUP1 PUSH1 0x2B DUP2 MSTORE PUSH1 0x20 ADD PUSH2 0x1CFC PUSH1 0x2B SWAP2 CODECOPY SWAP1 SWAP2 SWAP1 SWAP2 POP SWAP1 DUP2 PUSH2 0xC57 SWAP2 SWAP1 PUSH2 0x103B JUMP JUMPDEST POP PUSH0 DUP1 PUSH1 0x1 DUP2 SLOAD ADD DUP1 DUP3 SSTORE DUP1 SWAP2 POP POP PUSH1 0x1 SWAP1 SUB SWAP1 PUSH0 MSTORE PUSH1 0x20 PUSH0 KECCAK256 ADD PUSH0 PUSH1 0x40 MLOAD DUP1 PUSH1 0x60 ADD PUSH1 0x40 MSTORE DUP1 PUSH1 0x33 DUP2 MSTORE PUSH1 0x20 ADD PUSH2 0x238C PUSH1 0x33 SWAP2 CODECOPY SWAP1 SWAP2 SWAP1 SWAP2 POP SWAP1 DUP2 PUSH2 0xC9D SWAP2 SWAP1 PUSH2 0x103B JUMP JUMPDEST POP PUSH0 DUP1 PUSH1 0x1 DUP2 SLOAD ADD DUP1 DUP3 SSTORE DUP1 SWAP2 POP POP PUSH1 0x1 SWAP1 SUB SWAP1 PUSH0 MSTORE PUSH1 0x20 PUSH0 KECCAK256 ADD PUSH0 PUSH1 0x40 MLOAD DUP1 PUSH1 0x60 ADD PUSH1 0x40 MSTORE DUP1 PUSH1 0x2F DUP2 MSTORE PUSH1 0x20 ADD PUSH2 0x255F PUSH1 0x2F SWAP2 CODECOPY SWAP1 SWAP2 SWAP1 SWAP2 POP SWAP1 DUP2 PUSH2 0xCE3 SWAP2 SWAP1 PUSH2 0x103B JUMP JUMPDEST POP PUSH0 DUP1 PUSH1 0x1 DUP2 SLOAD ADD DUP1 DUP3 SSTORE DUP1 SWAP2 POP POP PUSH1 0x1 SWAP1 SUB SWAP1 PUSH0 MSTORE PUSH1 0x20 PUSH0 KECCAK256 ADD PUSH0 PUSH1 0x40 MLOAD DUP1 PUSH1 0x60 ADD PUSH1 0x40 MSTORE DUP1 PUSH1 0x27 DUP2 MSTORE PUSH1 0x20 ADD PUSH2 0x2179 PUSH1 0x27 SWAP2 CODECOPY SWAP1 SWAP2 SWAP1 SWAP2 POP SWAP1 DUP2 PUSH2 0xD29 SWAP2 SWAP1 PUSH2 0x103B JUMP JUMPDEST POP PUSH0 DUP1 PUSH1 0x1 DUP2 SLOAD ADD DUP1 DUP3 SSTORE DUP1 SWAP2 POP POP PUSH1 0x1 SWAP1 SUB SWAP1 PUSH0 MSTORE PUSH1 0x20 PUSH0 KECCAK256 ADD PUSH0 PUSH1 0x40 MLOAD DUP1 PUSH1 0x60 ADD PUSH1 0x40 MSTORE DUP1 PUSH1 0x33 DUP2 MSTORE PUSH1 0x20 ADD PUSH2 0x252C PUSH1 0x33 SWAP2 CODECOPY SWAP1 SWAP2 SWAP1 SWAP2 POP SWAP1 DUP2 PUSH2 0xD6F SWAP2 SWAP1 PUSH2 0x103B JUMP JUMPDEST POP PUSH0 DUP1 PUSH1 0x1 DUP2 SLOAD ADD DUP1 DUP3 SSTORE DUP1 SWAP2 POP POP PUSH1 0x1 SWAP1 SUB SWAP1 PUSH0 MSTORE PUSH1 0x20 PUSH0 KECCAK256 ADD PUSH0 PUSH1 0x40 MLOAD DUP1 PUSH1 0x60 ADD PUSH1 0x40 MSTORE DUP1 PUSH1 0x24 DUP2 MSTORE PUSH1 0x20 ADD PUSH2 0x1C7F PUSH1 0x24 SWAP2 CODECOPY SWAP1 SWAP2 SWAP1 SWAP2 POP SWAP1 DUP2 PUSH2 0xDB5 SWAP2 SWAP1 PUSH2 0x103B JUMP JUMPDEST POP PUSH0 DUP1 PUSH1 0x1 DUP2 SLOAD ADD DUP1 DUP3 SSTORE DUP1 SWAP2 POP POP PUSH1 0x1 SWAP1 SUB SWAP1 PUSH0 MSTORE PUSH1 0x20 PUSH0 KECCAK256 ADD PUSH0 PUSH1 0x40 MLOAD DUP1 PUSH1 0x60 ADD PUSH1 0x40 MSTORE DUP1 PUSH1 0x28 DUP2 MSTORE PUSH1 0x20 ADD PUSH2 0x1E49 PUSH1 0x28 SWAP2 CODECOPY SWAP1 SWAP2 SWAP1 SWAP2 POP SWAP1 DUP2 PUSH2 0xDFB SWAP2 SWAP1 PUSH2 0x103B JUMP JUMPDEST POP PUSH2 0x110A JUMP JUMPDEST PUSH0 DUP2 MLOAD SWAP1 POP SWAP2 SWAP1 POP JUMP JUMPDEST PUSH32 0x4E487B7100000000000000000000000000000000000000000000000000000000 PUSH0 MSTORE PUSH1 0x41 PUSH1 0x4 MSTORE PUSH1 0x24 PUSH0 REVERT JUMPDEST PUSH32 0x4E487B7100000000000000000000000000000000000000000000000000000000 PUSH0 MSTORE PUSH1 0x22 PUSH1 0x4 MSTORE PUSH1 0x24 PUSH0 REVERT JUMPDEST PUSH0 PUSH1 0x2 DUP3 DIV SWAP1 POP PUSH1 0x1 DUP3 AND DUP1 PUSH2 0xE7C JUMPI PUSH1 0x7F DUP3 AND SWAP2 POP JUMPDEST PUSH1 0x20 DUP3 LT DUP2 SUB PUSH2 0xE8F JUMPI PUSH2 0xE8E PUSH2 0xE38 JUMP JUMPDEST JUMPDEST POP SWAP2 SWAP1 POP JUMP JUMPDEST PUSH0 DUP2 SWAP1 POP DUP2 PUSH0 MSTORE PUSH1 0x20 PUSH0 KECCAK256 SWAP1 POP SWAP2 SWAP1 POP JUMP JUMPDEST PUSH0 PUSH1 0x20 PUSH1 0x1F DUP4 ADD DIV SWAP1 POP SWAP2 SWAP1 POP JUMP JUMPDEST PUSH0 DUP3 DUP3 SHL SWAP1 POP SWAP3 SWAP2 POP POP JUMP JUMPDEST PUSH0 PUSH1 0x8 DUP4 MUL PUSH2 0xEF1 PUSH32 0xFFFFFFFFFFFFFFFFFFFFFFFFFFFFFFFFFFFFFFFFFFFFFFFFFFFFFFFFFFFFFFFF DUP3 PUSH2 0xEB6 JUMP JUMPDEST PUSH2 0xEFB DUP7 DUP4 PUSH2 0xEB6 JUMP JUMPDEST SWAP6 POP DUP1 NOT DUP5 AND SWAP4 POP DUP1 DUP7 AND DUP5 OR SWAP3 POP POP POP SWAP4 SWAP3 POP POP POP JUMP JUMPDEST PUSH0 DUP2 SWAP1 POP SWAP2 SWAP1 POP JUMP JUMPDEST PUSH0 DUP2 SWAP1 POP SWAP2 SWAP1 POP JUMP JUMPDEST PUSH0 PUSH2 0xF3F PUSH2 0xF3A PUSH2 0xF35 DUP5 PUSH2 0xF13 JUMP JUMPDEST PUSH2 0xF1C JUMP JUMPDEST PUSH2 0xF13 JUMP JUMPDEST SWAP1 POP SWAP2 SWAP1 POP JUMP JUMPDEST PUSH0 DUP2 SWAP1 POP SWAP2 SWAP1 POP JUMP JUMPDEST PUSH2 0xF58 DUP4 PUSH2 0xF25 JUMP JUMPDEST PUSH2 0xF6C PUSH2 0xF64 DUP3 PUSH2 0xF46 JUMP JUMPDEST DUP5 DUP5 SLOAD PUSH2 0xEC2 JUMP JUMPDEST DUP3 SSTORE POP POP POP POP JUMP JUMPDEST PUSH0 SWAP1 JUMP JUMPDEST PUSH2 0xF80 PUSH2 0xF74 JUMP JUMPDEST PUSH2 0xF8B DUP2 DUP5 DUP5 PUSH2 0xF4F JUMP JUMPDEST POP POP POP JUMP JUMPDEST JUMPDEST DUP2 DUP2 LT ISZERO PUSH2 0xFAE JUMPI PUSH2 0xFA3 PUSH0 DUP3 PUSH2 0xF78 JUMP JUMPDEST PUSH1 0x1 DUP2 ADD SWAP1 POP PUSH2 0xF91 JUMP JUMPDEST POP POP JUMP JUMPDEST PUSH1 0x1F DUP3 GT ISZERO PUSH2 0xFF3 JUMPI PUSH2 0xFC4 DUP2 PUSH2 0xE95 JUMP JUMPDEST PUSH2 0xFCD DUP5 PUSH2 0xEA7 JUMP JUMPDEST DUP2 ADD PUSH1 0x20 DUP6 LT ISZERO PUSH2 0xFDC JUMPI DUP2 SWAP1 POP JUMPDEST PUSH2 0xFF0 PUSH2 0xFE8 DUP6 PUSH2 0xEA7 JUMP JUMPDEST DUP4 ADD DUP3 PUSH2 0xF90 JUMP JUMPDEST POP POP JUMPDEST POP POP POP JUMP JUMPDEST PUSH0 DUP3 DUP3 SHR SWAP1 POP SWAP3 SWAP2 POP POP JUMP JUMPDEST PUSH0 PUSH2 0x1013 PUSH0 NOT DUP5 PUSH1 0x8 MUL PUSH2 0xFF8 JUMP JUMPDEST NOT DUP1 DUP4 AND SWAP2 POP POP SWAP3 SWAP2 POP POP JUMP JUMPDEST PUSH0 PUSH2 0x102B DUP4 DUP4 PUSH2 0x1004 JUMP JUMPDEST SWAP2 POP DUP3 PUSH1 0x2 MUL DUP3 OR SWAP1 POP SWAP3 SWAP2 POP POP JUMP JUMPDEST PUSH2 0x1044 DUP3 PUSH2 0xE01 JUMP JUMPDEST PUSH8 0xFFFFFFFFFFFFFFFF DUP2 GT ISZERO PUSH2 0x105D JUMPI PUSH2 0x105C PUSH2 0xE0B JUMP JUMPDEST JUMPDEST PUSH2 0x1067 DUP3 SLOAD PUSH2 0xE65 JUMP JUMPDEST PUSH2 0x1072 DUP3 DUP3 DUP6 PUSH2 0xFB2 JUMP JUMPDEST PUSH0 PUSH1 0x20 SWAP1 POP PUSH1 0x1F DUP4 GT PUSH1 0x1 DUP2 EQ PUSH2 0x10A3 JUMPI PUSH0 DUP5 ISZERO PUSH2 0x1091 JUMPI DUP3 DUP8 ADD MLOAD SWAP1 POP JUMPDEST PUSH2 0x109B DUP6 DUP3 PUSH2 0x1020 JUMP JUMPDEST DUP7 SSTORE POP PUSH2 0x1102 JUMP JUMPDEST PUSH1 0x1F NOT DUP5 AND PUSH2 0x10B1 DUP7 PUSH2 0xE95 JUMP JUMPDEST PUSH0 JUMPDEST DUP3 DUP2 LT ISZERO PUSH2 0x10D8 JUMPI DUP5 DUP10 ADD MLOAD DUP3 SSTORE PUSH1 0x1 DUP3 ADD SWAP2 POP PUSH1 0x20 DUP6 ADD SWAP5 POP PUSH1 0x20 DUP2 ADD SWAP1 POP PUSH2 0x10B3 JUMP JUMPDEST DUP7 DUP4 LT ISZERO PUSH2 0x10F5 JUMPI DUP5 DUP10 ADD MLOAD PUSH2 0x10F1 PUSH1 0x1F DUP10 AND DUP3 PUSH2 0x1004 JUMP JUMPDEST DUP4 SSTORE POP JUMPDEST PUSH1 0x1 PUSH1 0x2 DUP9 MUL ADD DUP9 SSTORE POP POP POP JUMPDEST POP POP POP POP POP POP JUMP JUMPDEST PUSH2 0xB68 DUP1 PUSH2 0x1117 PUSH0 CODECOPY PUSH0 RETURN INVALID PUSH1 0x80 PUSH1 0x40 MSTORE CALLVALUE DUP1 ISZERO PUSH2 0xF JUMPI PUSH0 DUP1 REVERT JUMPDEST POP PUSH1 0x4 CALLDATASIZE LT PUSH2 0x4A JUMPI PUSH0 CALLDATALOAD PUSH1 0xE0 SHR DUP1 PUSH4 0x4CF373E6 EQ PUSH2 0x4E JUMPI DUP1 PUSH4 0x5B8B6582 EQ PUSH2 0x6A JUMPI DUP1 PUSH4 0x8DA5CB5B EQ PUSH2 0x88 JUMPI DUP1 PUSH4 0x93CE6C1C EQ PUSH2 0xA6 JUMPI JUMPDEST PUSH0 DUP1 REVERT JUMPDEST PUSH2 0x68 PUSH1 0x4 DUP1 CALLDATASIZE SUB DUP2 ADD SWAP1 PUSH2 0x63 SWAP2 SWAP1 PUSH2 0x4BC JUMP JUMPDEST PUSH2 0xC4 JUMP JUMPDEST STOP JUMPDEST PUSH2 0x72 PUSH2 0x187 JUMP JUMPDEST PUSH1 0x40 MLOAD PUSH2 0x7F SWAP2 SWAP1 PUSH2 0x51B JUMP JUMPDEST PUSH1 0x40 MLOAD DUP1 SWAP2 SUB SWAP1 RETURN JUMPDEST PUSH2 0x90 PUSH2 0x221 JUMP JUMPDEST PUSH1 0x40 MLOAD PUSH2 0x9D SWAP2 SWAP1 PUSH2 0x573 JUMP JUMPDEST PUSH1 0x40 MLOAD DUP1 SWAP2 SUB SWAP1 RETURN JUMPDEST PUSH2 0xAE PUSH2 0x246 JUMP JUMPDEST PUSH1 0x40 MLOAD PUSH2 0xBB SWAP2 SWAP1 PUSH2 0x5EC JUMP JUMPDEST PUSH1 0x40 MLOAD DUP1 SWAP2 SUB SWAP1 RETURN JUMPDEST PUSH1 0x1 PUSH0 SWAP1 SLOAD SWAP1 PUSH2 0x100 EXP SWAP1 DIV PUSH20 0xFFFFFFFFFFFFFFFFFFFFFFFFFFFFFFFFFFFFFFFF AND PUSH20 0xFFFFFFFFFFFFFFFFFFFFFFFFFFFFFFFFFFFFFFFF AND CALLER PUSH20 0xFFFFFFFFFFFFFFFFFFFFFFFFFFFFFFFFFFFFFFFF AND EQ PUSH2 0x153 JUMPI PUSH1 0x40 MLOAD PUSH32 0x8C379A000000000000000000000000000000000000000000000000000000000 DUP2 MSTORE PUSH1 0x4 ADD PUSH2 0x14A SWAP1 PUSH2 0x656 JUMP JUMPDEST PUSH1 0x40 MLOAD DUP1 SWAP2 SUB SWAP1 REVERT JUMPDEST PUSH0 DUP2 SWAP1 DUP1 PUSH1 0x1 DUP2 SLOAD ADD DUP1 DUP3 SSTORE DUP1 SWAP2 POP POP PUSH1 0x1 SWAP1 SUB SWAP1 PUSH0 MSTORE PUSH1 0x20 PUSH0 KECCAK256 ADD PUSH0 SWAP1 SWAP2 SWAP1 SWAP2 SWAP1 SWAP2 POP SWAP1 DUP2 PUSH2 0x183 SWAP2 SWAP1 PUSH2 0x86E JUMP JUMPDEST POP POP JUMP JUMPDEST PUSH0 PUSH1 0x1 PUSH0 SWAP1 SLOAD SWAP1 PUSH2 0x100 EXP SWAP1 DIV PUSH20 0xFFFFFFFFFFFFFFFFFFFFFFFFFFFFFFFFFFFFFFFF AND PUSH20 0xFFFFFFFFFFFFFFFFFFFFFFFFFFFFFFFFFFFFFFFF AND CALLER PUSH20 0xFFFFFFFFFFFFFFFFFFFFFFFFFFFFFFFFFFFFFFFF AND EQ PUSH2 0x217 JUMPI PUSH1 0x40 MLOAD PUSH32 0x8C379A000000000000000000000000000000000000000000000000000000000 DUP2 MSTORE PUSH1 0x4 ADD PUSH2 0x20E SWAP1 PUSH2 0x9AD JUMP JUMPDEST PUSH1 0x40 MLOAD DUP1 SWAP2 SUB SWAP1 REVERT JUMPDEST PUSH0 DUP1 SLOAD SWAP1 POP SWAP1 POP SWAP1 JUMP JUMPDEST PUSH1 0x1 PUSH0 SWAP1 SLOAD SWAP1 PUSH2 0x100 EXP SWAP1 DIV PUSH20 0xFFFFFFFFFFFFFFFFFFFFFFFFFFFFFFFFFFFFFFFF AND DUP2 JUMP JUMPDEST PUSH1 0x60 PUSH0 DUP1 DUP1 SLOAD SWAP1 POP TIMESTAMP CALLER PREVRANDAO PUSH1 0x40 MLOAD PUSH1 0x20 ADD PUSH2 0x263 SWAP4 SWAP3 SWAP2 SWAP1 PUSH2 0xA30 JUMP JUMPDEST PUSH1 0x40 MLOAD PUSH1 0x20 DUP2 DUP4 SUB SUB DUP2 MSTORE SWAP1 PUSH1 0x40 MSTORE DUP1 MLOAD SWAP1 PUSH1 0x20 ADD KECCAK256 PUSH0 SHR PUSH2 0x285 SWAP2 SWAP1 PUSH2 0xA99 JUMP JUMPDEST SWAP1 POP PUSH0 DUP1 DUP3 DUP2 SLOAD DUP2 LT PUSH2 0x29B JUMPI PUSH2 0x29A PUSH2 0xAC9 JUMP JUMPDEST JUMPDEST SWAP1 PUSH0 MSTORE PUSH1 0x20 PUSH0 KECCAK256 ADD DUP1 SLOAD PUSH2 0x2AE SWAP1 PUSH2 0x6A1 JUMP JUMPDEST DUP1 PUSH1 0x1F ADD PUSH1 0x20 DUP1 SWAP2 DIV MUL PUSH1 0x20 ADD PUSH1 0x40 MLOAD SWAP1 DUP2 ADD PUSH1 0x40 MSTORE DUP1 SWAP3 SWAP2 SWAP1 DUP2 DUP2 MSTORE PUSH1 0x20 ADD DUP3 DUP1 SLOAD PUSH2 0x2DA SWAP1 PUSH2 0x6A1 JUMP JUMPDEST DUP1 ISZERO PUSH2 0x325 JUMPI DUP1 PUSH1 0x1F LT PUSH2 0x2FC JUMPI PUSH2 0x100 DUP1 DUP4 SLOAD DIV MUL DUP4 MSTORE SWAP2 PUSH1 0x20 ADD SWAP2 PUSH2 0x325 JUMP JUMPDEST DUP3 ADD SWAP2 SWAP1 PUSH0 MSTORE PUSH1 0x20 PUSH0 KECCAK256 SWAP1 JUMPDEST DUP2 SLOAD DUP2 MSTORE SWAP1 PUSH1 0x1 ADD SWAP1 PUSH1 0x20 ADD DUP1 DUP4 GT PUSH2 0x308 JUMPI DUP3 SWAP1 SUB PUSH1 0x1F AND DUP3 ADD SWAP2 JUMPDEST POP POP POP POP POP SWAP1 POP PUSH32 0x66298F218A95834DD8D57814339953FABFE8C9BF89DCD37697610DEC82A7F6F CALLER DUP3 TIMESTAMP PUSH1 0x40 MLOAD PUSH2 0x35F SWAP4 SWAP3 SWAP2 SWAP1 PUSH2 0xAF6 JUMP JUMPDEST PUSH1 0x40 MLOAD DUP1 SWAP2 SUB SWAP1 LOG1 DUP1 SWAP3 POP POP POP SWAP1 JUMP JUMPDEST PUSH0 PUSH1 0x40 MLOAD SWAP1 POP SWAP1 JUMP JUMPDEST PUSH0 DUP1 REVERT JUMPDEST PUSH0 DUP1 REVERT JUMPDEST PUSH0 DUP1 REVERT JUMPDEST PUSH0 DUP1 REVERT JUMPDEST PUSH0 PUSH1 0x1F NOT PUSH1 0x1F DUP4 ADD AND SWAP1 POP SWAP2 SWAP1 POP JUMP JUMPDEST PUSH32 0x4E487B7100000000000000000000000000000000000000000000000000000000 PUSH0 MSTORE PUSH1 0x41 PUSH1 0x4 MSTORE PUSH1 0x24 PUSH0 REVERT JUMPDEST PUSH2 0x3CE DUP3 PUSH2 0x388 JUMP JUMPDEST DUP2 ADD DUP2 DUP2 LT PUSH8 0xFFFFFFFFFFFFFFFF DUP3 GT OR ISZERO PUSH2 0x3ED JUMPI PUSH2 0x3EC PUSH2 0x398 JUMP JUMPDEST JUMPDEST DUP1 PUSH1 0x40 MSTORE POP POP POP JUMP JUMPDEST PUSH0 PUSH2 0x3FF PUSH2 0x36F JUMP JUMPDEST SWAP1 POP PUSH2 0x40B DUP3 DUP3 PUSH2 0x3C5 JUMP JUMPDEST SWAP2 SWAP1 POP JUMP JUMPDEST PUSH0 PUSH8 0xFFFFFFFFFFFFFFFF DUP3 GT ISZERO PUSH2 0x42A JUMPI PUSH2 0x429 PUSH2 0x398 JUMP JUMPDEST JUMPDEST PUSH2 0x433 DUP3 PUSH2 0x388 JUMP JUMPDEST SWAP1 POP PUSH1 0x20 DUP2 ADD SWAP1 POP SWAP2 SWAP1 POP JUMP JUMPDEST DUP3 DUP2 DUP4 CALLDATACOPY PUSH0 DUP4 DUP4 ADD MSTORE POP POP POP JUMP JUMPDEST PUSH0 PUSH2 0x460 PUSH2 0x45B DUP5 PUSH2 0x410 JUMP JUMPDEST PUSH2 0x3F6 JUMP JUMPDEST SWAP1 POP DUP3 DUP2 MSTORE PUSH1 0x20 DUP2 ADD DUP5 DUP5 DUP5 ADD GT ISZERO PUSH2 0x47C JUMPI PUSH2 0x47B PUSH2 0x384 JUMP JUMPDEST JUMPDEST PUSH2 0x487 DUP5 DUP3 DUP6 PUSH2 0x440 JUMP JUMPDEST POP SWAP4 SWAP3 POP POP POP JUMP JUMPDEST PUSH0 DUP3 PUSH1 0x1F DUP4 ADD SLT PUSH2 0x4A3 JUMPI PUSH2 0x4A2 PUSH2 0x380 JUMP JUMPDEST JUMPDEST DUP2 CALLDATALOAD PUSH2 0x4B3 DUP5 DUP3 PUSH1 0x20 DUP7 ADD PUSH2 0x44E JUMP JUMPDEST SWAP2 POP POP SWAP3 SWAP2 POP POP JUMP JUMPDEST PUSH0 PUSH1 0x20 DUP3 DUP5 SUB SLT ISZERO PUSH2 0x4D1 JUMPI PUSH2 0x4D0 PUSH2 0x378 JUMP JUMPDEST JUMPDEST PUSH0 DUP3 ADD CALLDATALOAD PUSH8 0xFFFFFFFFFFFFFFFF DUP2 GT ISZERO PUSH2 0x4EE JUMPI PUSH2 0x4ED PUSH2 0x37C JUMP JUMPDEST JUMPDEST PUSH2 0x4FA DUP5 DUP3 DUP6 ADD PUSH2 0x48F JUMP JUMPDEST SWAP2 POP POP SWAP3 SWAP2 POP POP JUMP JUMPDEST PUSH0 DUP2 SWAP1 POP SWAP2 SWAP1 POP JUMP JUMPDEST PUSH2 0x515 DUP2 PUSH2 0x503 JUMP JUMPDEST DUP3 MSTORE POP POP JUMP JUMPDEST PUSH0 PUSH1 0x20 DUP3 ADD SWAP1 POP PUSH2 0x52E PUSH0 DUP4 ADD DUP5 PUSH2 0x50C JUMP JUMPDEST SWAP3 SWAP2 POP POP JUMP JUMPDEST PUSH0 PUSH20 0xFFFFFFFFFFFFFFFFFFFFFFFFFFFFFFFFFFFFFFFF DUP3 AND SWAP1 POP SWAP2 SWAP1 POP JUMP JUMPDEST PUSH0 PUSH2 0x55D DUP3 PUSH2 0x534 JUMP JUMPDEST SWAP1 POP SWAP2 SWAP1 POP JUMP JUMPDEST PUSH2 0x56D DUP2 PUSH2 0x553 JUMP JUMPDEST DUP3 MSTORE POP POP JUMP JUMPDEST PUSH0 PUSH1 0x20 DUP3 ADD SWAP1 POP PUSH2 0x586 PUSH0 DUP4 ADD DUP5 PUSH2 0x564 JUMP JUMPDEST SWAP3 SWAP2 POP POP JUMP JUMPDEST PUSH0 DUP2 MLOAD SWAP1 POP SWAP2 SWAP1 POP JUMP JUMPDEST PUSH0 DUP3 DUP3 MSTORE PUSH1 0x20 DUP3 ADD SWAP1 POP SWAP3 SWAP2 POP POP JUMP JUMPDEST DUP3 DUP2 DUP4 MCOPY PUSH0 DUP4 DUP4 ADD MSTORE POP POP POP JUMP JUMPDEST PUSH0 PUSH2 0x5BE DUP3 PUSH2 0x58C JUMP JUMPDEST PUSH2 0x5C8 DUP2 DUP6 PUSH2 0x596 JUMP JUMPDEST SWAP4 POP PUSH2 0x5D8 DUP2 DUP6 PUSH1 0x20 DUP7 ADD PUSH2 0x5A6 JUMP JUMPDEST PUSH2 0x5E1 DUP2 PUSH2 0x388 JUMP JUMPDEST DUP5 ADD SWAP2 POP POP SWAP3 SWAP2 POP POP JUMP JUMPDEST PUSH0 PUSH1 0x20 DUP3 ADD SWAP1 POP DUP2 DUP2 SUB PUSH0 DUP4 ADD MSTORE PUSH2 0x604 DUP2 DUP5 PUSH2 0x5B4 JUMP JUMPDEST SWAP1 POP SWAP3 SWAP2 POP POP JUMP JUMPDEST PUSH32 0x4F6E6C79206F776E65722063616E2061646420666F7274756E65730000000000 PUSH0 DUP3 ADD MSTORE POP JUMP JUMPDEST PUSH0 PUSH2 0x640 PUSH1 0x1B DUP4 PUSH2 0x596 JUMP JUMPDEST SWAP2 POP PUSH2 0x64B DUP3 PUSH2 0x60C JUMP JUMPDEST PUSH1 0x20 DUP3 ADD SWAP1 POP SWAP2 SWAP1 POP JUMP JUMPDEST PUSH0 PUSH1 0x20 DUP3 ADD SWAP1 POP DUP2 DUP2 SUB PUSH0 DUP4 ADD MSTORE PUSH2 0x66D DUP2 PUSH2 0x634 JUMP JUMPDEST SWAP1 POP SWAP2 SWAP1 POP JUMP JUMPDEST PUSH32 0x4E487B7100000000000000000000000000000000000000000000000000000000 PUSH0 MSTORE PUSH1 0x22 PUSH1 0x4 MSTORE PUSH1 0x24 PUSH0 REVERT JUMPDEST PUSH0 PUSH1 0x2 DUP3 DIV SWAP1 POP PUSH1 0x1 DUP3 AND DUP1 PUSH2 0x6B8 JUMPI PUSH1 0x7F DUP3 AND SWAP2 POP JUMPDEST PUSH1 0x20 DUP3 LT DUP2 SUB PUSH2 0x6CB JUMPI PUSH2 0x6CA PUSH2 0x674 JUMP JUMPDEST JUMPDEST POP SWAP2 SWAP1 POP JUMP JUMPDEST PUSH0 DUP2 SWAP1 POP DUP2 PUSH0 MSTORE PUSH1 0x20 PUSH0 KECCAK256 SWAP1 POP SWAP2 SWAP1 POP JUMP JUMPDEST PUSH0 PUSH1 0x20 PUSH1 0x1F DUP4 ADD DIV SWAP1 POP SWAP2 SWAP1 POP JUMP JUMPDEST PUSH0 DUP3 DUP3 SHL SWAP1 POP SWAP3 SWAP2 POP POP JUMP JUMPDEST PUSH0 PUSH1 0x8 DUP4 MUL PUSH2 0x72D PUSH32 0xFFFFFFFFFFFFFFFFFFFFFFFFFFFFFFFFFFFFFFFFFFFFFFFFFFFFFFFFFFFFFFFF DUP3 PUSH2 0x6F2 JUMP JUMPDEST PUSH2 0x737 DUP7 DUP4 PUSH2 0x6F2 JUMP JUMPDEST SWAP6 POP DUP1 NOT DUP5 AND SWAP4 POP DUP1 DUP7 AND DUP5 OR SWAP3 POP POP POP SWAP4 SWAP3 POP POP POP JUMP JUMPDEST PUSH0 DUP2 SWAP1 POP SWAP2 SWAP1 POP JUMP JUMPDEST PUSH0 PUSH2 0x772 PUSH2 0x76D PUSH2 0x768 DUP5 PUSH2 0x503 JUMP JUMPDEST PUSH2 0x74F JUMP JUMPDEST PUSH2 0x503 JUMP JUMPDEST SWAP1 POP SWAP2 SWAP1 POP JUMP JUMPDEST PUSH0 DUP2 SWAP1 POP SWAP2 SWAP1 POP JUMP JUMPDEST PUSH2 0x78B DUP4 PUSH2 0x758 JUMP JUMPDEST PUSH2 0x79F PUSH2 0x797 DUP3 PUSH2 0x779 JUMP JUMPDEST DUP5 DUP5 SLOAD PUSH2 0x6FE JUMP JUMPDEST DUP3 SSTORE POP POP POP POP JUMP JUMPDEST PUSH0 SWAP1 JUMP JUMPDEST PUSH2 0x7B3 PUSH2 0x7A7 JUMP JUMPDEST PUSH2 0x7BE DUP2 DUP5 DUP5 PUSH2 0x782 JUMP JUMPDEST POP POP POP JUMP JUMPDEST JUMPDEST DUP2 DUP2 LT ISZERO PUSH2 0x7E1 JUMPI PUSH2 0x7D6 PUSH0 DUP3 PUSH2 0x7AB JUMP JUMPDEST PUSH1 0x1 DUP2 ADD SWAP1 POP PUSH2 0x7C4 JUMP JUMPDEST POP POP JUMP JUMPDEST PUSH1 0x1F DUP3 GT ISZERO PUSH2 0x826 JUMPI PUSH2 0x7F7 DUP2 PUSH2 0x6D1 JUMP JUMPDEST PUSH2 0x800 DUP5 PUSH2 0x6E3 JUMP JUMPDEST DUP2 ADD PUSH1 0x20 DUP6 LT ISZERO PUSH2 0x80F JUMPI DUP2 SWAP1 POP JUMPDEST PUSH2 0x823 PUSH2 0x81B DUP6 PUSH2 0x6E3 JUMP JUMPDEST DUP4 ADD DUP3 PUSH2 0x7C3 JUMP JUMPDEST POP POP JUMPDEST POP POP POP JUMP JUMPDEST PUSH0 DUP3 DUP3 SHR SWAP1 POP SWAP3 SWAP2 POP POP JUMP JUMPDEST PUSH0 PUSH2 0x846 PUSH0 NOT DUP5 PUSH1 0x8 MUL PUSH2 0x82B JUMP JUMPDEST NOT DUP1 DUP4 AND SWAP2 POP POP SWAP3 SWAP2 POP POP JUMP JUMPDEST PUSH0 PUSH2 0x85E DUP4 DUP4 PUSH2 0x837 JUMP JUMPDEST SWAP2 POP DUP3 PUSH1 0x2 MUL DUP3 OR SWAP1 POP SWAP3 SWAP2 POP POP JUMP JUMPDEST PUSH2 0x877 DUP3 PUSH2 0x58C JUMP JUMPDEST PUSH8 0xFFFFFFFFFFFFFFFF DUP2 GT ISZERO PUSH2 0x890 JUMPI PUSH2 0x88F PUSH2 0x398 JUMP JUMPDEST JUMPDEST PUSH2 0x89A DUP3 SLOAD PUSH2 0x6A1 JUMP JUMPDEST PUSH2 0x8A5 DUP3 DUP3 DUP6 PUSH2 0x7E5 JUMP JUMPDEST PUSH0 PUSH1 0x20 SWAP1 POP PUSH1 0x1F DUP4 GT PUSH1 0x1 DUP2 EQ PUSH2 0x8D6 JUMPI PUSH0 DUP5 ISZERO PUSH2 0x8C4 JUMPI DUP3 DUP8 ADD MLOAD SWAP1 POP JUMPDEST PUSH2 0x8CE DUP6 DUP3 PUSH2 0x853 JUMP JUMPDEST DUP7 SSTORE POP PUSH2 0x935 JUMP JUMPDEST PUSH1 0x1F NOT DUP5 AND PUSH2 0x8E4 DUP7 PUSH2 0x6D1 JUMP JUMPDEST PUSH0 JUMPDEST DUP3 DUP2 LT ISZERO PUSH2 0x90B JUMPI DUP5 DUP10 ADD MLOAD DUP3 SSTORE PUSH1 0x1 DUP3 ADD SWAP2 POP PUSH1 0x20 DUP6 ADD SWAP5 POP PUSH1 0x20 DUP2 ADD SWAP1 POP PUSH2 0x8E6 JUMP JUMPDEST DUP7 DUP4 LT ISZERO PUSH2 0x928 JUMPI DUP5 DUP10 ADD MLOAD PUSH2 0x924 PUSH1 0x1F DUP10 AND DUP3 PUSH2 0x837 JUMP JUMPDEST DUP4 SSTORE POP JUMPDEST PUSH1 0x1 PUSH1 0x2 DUP9 MUL ADD DUP9 SSTORE POP POP POP JUMPDEST POP POP POP POP POP POP JUMP JUMPDEST PUSH32 0x4F6E6C79206F776E65722063616E207669657720666F7274756E6520636F756E PUSH0 DUP3 ADD MSTORE PUSH32 0x7400000000000000000000000000000000000000000000000000000000000000 PUSH1 0x20 DUP3 ADD MSTORE POP JUMP JUMPDEST PUSH0 PUSH2 0x997 PUSH1 0x21 DUP4 PUSH2 0x596 JUMP JUMPDEST SWAP2 POP PUSH2 0x9A2 DUP3 PUSH2 0x93D JUMP JUMPDEST PUSH1 0x40 DUP3 ADD SWAP1 POP SWAP2 SWAP1 POP JUMP JUMPDEST PUSH0 PUSH1 0x20 DUP3 ADD SWAP1 POP DUP2 DUP2 SUB PUSH0 DUP4 ADD MSTORE PUSH2 0x9C4 DUP2 PUSH2 0x98B JUMP JUMPDEST SWAP1 POP SWAP2 SWAP1 POP JUMP JUMPDEST PUSH0 DUP2 SWAP1 POP SWAP2 SWAP1 POP JUMP JUMPDEST PUSH2 0x9E5 PUSH2 0x9E0 DUP3 PUSH2 0x503 JUMP JUMPDEST PUSH2 0x9CB JUMP JUMPDEST DUP3 MSTORE POP POP JUMP JUMPDEST PUSH0 DUP2 PUSH1 0x60 SHL SWAP1 POP SWAP2 SWAP1 POP JUMP JUMPDEST PUSH0 PUSH2 0xA01 DUP3 PUSH2 0x9EB JUMP JUMPDEST SWAP1 POP SWAP2 SWAP1 POP JUMP JUMPDEST PUSH0 PUSH2 0xA12 DUP3 PUSH2 0x9F7 JUMP JUMPDEST SWAP1 POP SWAP2 SWAP1 POP JUMP JUMPDEST PUSH2 0xA2A PUSH2 0xA25 DUP3 PUSH2 0x553 JUMP JUMPDEST PUSH2 0xA08 JUMP JUMPDEST DUP3 MSTORE POP POP JUMP JUMPDEST PUSH0 PUSH2 0xA3B DUP3 DUP7 PUSH2 0x9D4 JUMP JUMPDEST PUSH1 0x20 DUP3 ADD SWAP2 POP PUSH2 0xA4B DUP3 DUP6 PUSH2 0xA19 JUMP JUMPDEST PUSH1 0x14 DUP3 ADD SWAP2 POP PUSH2 0xA5B DUP3 DUP5 PUSH2 0x9D4 JUMP JUMPDEST PUSH1 0x20 DUP3 ADD SWAP2 POP DUP2 SWAP1 POP SWAP5 SWAP4 POP POP POP POP JUMP JUMPDEST PUSH32 0x4E487B7100000000000000000000000000000000000000000000000000000000 PUSH0 MSTORE PUSH1 0x12 PUSH1 0x4 MSTORE PUSH1 0x24 PUSH0 REVERT JUMPDEST PUSH0 PUSH2 0xAA3 DUP3 PUSH2 0x503 JUMP JUMPDEST SWAP2 POP PUSH2 0xAAE DUP4 PUSH2 0x503 JUMP JUMPDEST SWAP3 POP DUP3 PUSH2 0xABE JUMPI PUSH2 0xABD PUSH2 0xA6C JUMP JUMPDEST JUMPDEST DUP3 DUP3 MOD SWAP1 POP SWAP3 SWAP2 POP POP JUMP JUMPDEST PUSH32 0x4E487B7100000000000000000000000000000000000000000000000000000000 PUSH0 MSTORE PUSH1 0x32 PUSH1 0x4 MSTORE PUSH1 0x24 PUSH0 REVERT JUMPDEST PUSH0 PUSH1 0x60 DUP3 ADD SWAP1 POP PUSH2 0xB09 PUSH0 DUP4 ADD DUP7 PUSH2 0x564 JUMP JUMPDEST DUP2 DUP2 SUB PUSH1 0x20 DUP4 ADD MSTORE PUSH2 0xB1B DUP2 DUP6 PUSH2 0x5B4 JUMP JUMPDEST SWAP1 POP PUSH2 0xB2A PUSH1 0x40 DUP4 ADD DUP5 PUSH2 0x50C JUMP JUMPDEST SWAP5 SWAP4 POP POP POP POP JUMP INVALID LOG2 PUSH5 0x6970667358 0x22 SLT KECCAK256 GASPRICE 0xCF 0xBF 0x2A 0xD9 JUMPI PUSH7 0x70F73B13812695 DIV 0xF7 DUP6 PUSH24 0x17C0BA56640680FC01E0DCF826E264736F6C634300081A00 CALLER SELFBALANCE PUSH16 0x6F64207468696E677320636F6D652074 PUSH16 0x2074686F73652077686F207374616B65 0x2E COINBASE KECCAK256 PUSH13 0x69666574696D65206F66206861 PUSH17 0x70696E6573732061776169747320796F75 0x2E COINBASE KECCAK256 PUSH20 0x6F667420666F726B20696E20796F757220706174 PUSH9 0x2077696C6C206C6561 PUSH5 0x20746F2062 PUSH6 0x74746572206F PUSH22 0x74636F6D65732E596F7572206C6564676572206F6620 PUSH8 0x6F6F642064656564 PUSH20 0x2077696C6C2062652072657761726465642E5468 PUSH6 0x20736D617274 KECCAK256 PUSH14 0x6F766520796F75206D616B652074 PUSH16 0x6461792077696C6C206C65616420746F KECCAK256 PUSH20 0x75636365737320746F6D6F72726F772E4E657720 PUSH16 0x70706F7274756E697469657320617761 PUSH10 0x7420796F75206F6E2079 PUSH16 0x757220626C6F636B636861696E206A6F PUSH22 0x726E65792E53756363657373206973206E6F74206669 PUSH15 0x616C2C206661696C75726520697320 PUSH15 0x6F7420666174616C3A206974206973 KECCAK256 PUSH21 0x686520636F757261676520746F20636F6E74696E75 PUSH6 0x207468617420 PUSH4 0x6F756E74 PUSH20 0x2E546865206F7261636C65207361797320796F75 PUSH19 0x20667574757265206973206272696768742E53 PUSH16 0x6D656F6E652066726F6D20796F757220 PUSH17 0x6173742077696C6C20736F6F6E20726565 PUSH15 0x74657220796F7572206C6966652E59 PUSH16 0x7572206D696E696E67206566666F7274 PUSH20 0x20776F6E277420676F20756E7265776172646564 0x2E COINBASE KECCAK256 PUSH3 0x656175 PUSH21 0x6966756C2C20736D6172742C20616E64206C6F7669 PUSH15 0x6720706572736F6E2077696C6C2062 PUSH6 0x20636F6D696E PUSH8 0x20696E746F20796F PUSH22 0x72206C6966652E5468652070726F6F66206F6620796F PUSH22 0x7220776F726B206973206265636F6D696E6720657669 PUSH5 0x656E742074 PUSH16 0x20616C6C2E596F7572206162696C6974 PUSH26 0x20746F20616461707420746F206368616C6C656E676573207769 PUSH13 0x6C206272696E67206772656174 KECCAK256 PUSH20 0x7563636573732E54686520736D61727420636F6E PUSH21 0x7261637420796F75207365656B20697320616C7265 PUSH2 0x6479 KECCAK256 PUSH24 0x697468696E20796F752E50617469656E6365206973206120 PUSH23 0x69727475652C20657370656369616C6C79207768696C65 KECCAK256 PUSH24 0x616974696E6720666F7220636F6E6669726D6174696F6E73 0x2E MSIZE PUSH16 0x7572207075626C696320616464726573 PUSH20 0x2077696C6C206174747261637420706F73697469 PUSH23 0x6520617474656E74696F6E2E596F7572206E657874204E CHAINID SLOAD KECCAK256 PUSH24 0x696C6C206272696E6720756E6578706563746564206A6F79 0x2E JUMP PUSH6 0x726966792C20 PUSH21 0x68656E20747275737420796F757220696E7374696E PUSH4 0x74732E59 PUSH16 0x7572207369676E617475726520697320 PUSH22 0x6E69717565202D2075736520697420776973656C792E COINBASE KECCAK256 PUSH11 0x6F75726E6579206F662061 KECCAK256 PUSH21 0x686F7573616E64206D696C657320626567696E7320 PUSH24 0x69746820612073696E676C6520626C6F636B2E4120736D61 PUSH13 0x6C20696E766573746D656E7420 PUSH21 0x6F6461792077696C6C207969656C64206772656174 KECCAK256 PUSH19 0x657475726E7320746F6D6F72726F772E596F75 PUSH19 0x20646563656E7472616C697A65642066757475 PUSH19 0x65206973206272696768742E596F7572207065 PUSH19 0x736F6E616C20626C6F636B636861696E206973 KECCAK256 PUSH2 0x6464 PUSH10 0x6E6720626C6F636B7320 PUSH16 0x662068617070696E6573732E596F7572 KECCAK256 PUSH24 0x616C6C65742077696C6C20736F6F6E207265636569766520 PUSH2 0x2073 PUSH22 0x7270726973696E672061697264726F702E5468652068 PUSH2 0x7368 KECCAK256 PUSH16 0x6620796F7572206566666F7274732077 PUSH10 0x6C6C20726573756C7420 PUSH10 0x6E2076616C7561626C65 KECCAK256 PUSH19 0x6577617264732E596F757220746F6B656E6F6D PUSH10 0x63732061726520706572 PUSH7 0x6563746C792062 PUSH2 0x6C61 PUSH15 0x6365642E596F757220646973747269 PUSH3 0x757465 PUSH5 0x206566666F PUSH19 0x74732077696C6C207969656C642063656E7472 PUSH2 0x6C69 PUSH27 0x656420737563636573732E596F7572206861726420776F726B2069 PUSH20 0x2061626F757420746F20706179206F66662E2052 PUSH6 0x6D656D626572 KECCAK256 PUSH21 0x6F2063656C65627261746520796F75722073756363 PUSH6 0x73732E576865 PUSH15 0x20696E20646F7562742C20636F6D6D PUSH10 0x7420746F20746865206D PUSH2 0x696E KECCAK256 PUSH4 0x6861696E KECCAK256 PUSH16 0x6620796F7572206C6966652E416E2065 PUSH25 0x636974696E67206F70706F7274756E6974792077696C6C2070 PUSH19 0x6573656E7420697473656C6620696620796F75 KECCAK256 PUSH19 0x656D61696E206F70656E20746F206E65772065 PUSH25 0x70657269656E6365732E546865206772656174657374207269 PUSH20 0x6B206973206E6F742074616B696E67206F6E652E MSTORE8 PUSH21 0x616B6520796F757220636C61696D20696E20776861 PUSH21 0x206D617474657273206D6F73742E41206368616E63 PUSH6 0x206D65657469 PUSH15 0x672077696C6C206C65616420746F20 PUSH10 0x6D706F7274616E742063 PUSH9 0x616E67657320696E20 PUSH26 0x6F7572206C6966652E596F7572207472616E73616374696F6E20 PUSH24 0x696C6C20636F6E6669726D20696E20756E65787065637465 PUSH5 0x2077617973 0x2E SLOAD PUSH9 0x6520746F6B656E2079 PUSH16 0x75277665206265656E2069676E6F7269 PUSH15 0x672077696C6C20736F6F6E206D6F6F PUSH15 0x2E536F6D6574696D65732074686520 PUSH3 0x657374 KECCAK256 PUSH23 0x616C696461746F7220697320796F7572206F776E20696E PUSH21 0x756974696F6E2E54727573742074686520696D6D75 PUSH21 0x61626C65206E6174757265206F6620796F75722064 PUSH6 0x636973696F6E PUSH20 0x2E436F6E73656E7375732077696C6C2062652072 PUSH6 0x616368656420 PUSH10 0x6E20796F757220666176 PUSH16 0x7220746F6461792E446F6E2774207761 PUSH10 0x7420666F722067617320 PUSH7 0x65657320746F20 PUSH5 0x726F702E20 COINBASE PUSH4 0x74206E6F PUSH24 0x2E596F757220637265617469766974792077696C6C206D61 PUSH12 0x6520796F7520737563636573 PUSH20 0x66756C20696E20616E20756E6578706563746564 KECCAK256 PUSH23 0x656E747572652E412070726976617465206B6579206973 KECCAK256 PUSH13 0x696B6520612073656372657420 0x2D KECCAK256 PUSH8 0x7561726420697420 PUSH24 0x656C6C2E54686520776973646F6D20796F75207365656B20 PUSH10 0x7320616C726561647920 PUSH24 0x697468696E20796F752E5468652062756720696E20796F75 PUSH19 0x20636F6465206973206F6E206C696E65203432 0x2E SLOAD PUSH9 0x65206E65787420626C PUSH16 0x636B2077696C6C206272696E6720796F PUSH22 0x20676F6F6420666F7274756E652E546865206E657874 KECCAK256 PUSH9 0x61726420666F726B20 PUSH10 0x6E20796F7572206C6966 PUSH6 0x2077696C6C20 PUSH3 0x652062 PUSH6 0x6E6566696369 PUSH2 0x6C2E COINBASE KECCAK256 PUSH4 0x6F6E7365 PUSH15 0x737573206973206275696C64696E67 KECCAK256 PUSH2 0x726F PUSH22 0x6E6420796F7572206C6561646572736869702E546F64 PUSH2 0x7927 PUSH20 0x206D657267652077696C6C207265736F6C766520 PUSH26 0x6F757220636F6E666C696374696E672070617468732E466F7274 PUSH22 0x6E65206661766F72732074686520626F6C642E205461 PUSH12 0x652074686174206C65617020 PUSH10 0x6E746F20446546692E41 KECCAK256 PUSH8 0x656E65736973206F PUSH7 0x206E6577206964 PUSH6 0x61732077696C PUSH13 0x207472616E73666F726D20796F PUSH22 0x722070726F6A6563742E596F75722067726561746573 PUSH21 0x20737472656E67746820697320796F757220706572 PUSH20 0x697374656E742064657465726D696E6174696F6E 0x2E "
		},
		"gasEstimates": {
			"creation": {
				"codeDepositCost": "584000",
				"executionCost": "infinite",
				"totalCost": "infinite"
			},
			"external": {
				"addFortune(string)": "infinite",
				"getFortuneCount()": "4608",
				"getRandomFortune()": "infinite",
				"owner()": "2530"
			}
		},
		"methodIdentifiers": {
			"addFortune(string)": "4cf373e6",
			"getFortuneCount()": "5b8b6582",
			"getRandomFortune()": "93ce6c1c",
			"owner()": "8da5cb5b"
		}
	},
	"abi": [
		{
			"inputs": [],
			"stateMutability": "nonpayable",
			"type": "constructor"
		},
		{
			"anonymous": false,
			"inputs": [
				{
					"indexed": false,
					"internalType": "address",
					"name": "user",
					"type": "address"
				},
				{
					"indexed": false,
					"internalType": "string",
					"name": "fortune",
					"type": "string"
				},
				{
					"indexed": false,
					"internalType": "uint256",
					"name": "timestamp",
					"type": "uint256"
				}
			],
			"name": "FortuneOpened",
			"type": "event"
		},
		{
			"inputs": [
				{
					"internalType": "string",
					"name": "newFortune",
					"type": "string"
				}
			],
			"name": "addFortune",
			"outputs": [],
			"stateMutability": "nonpayable",
			"type": "function"
		},
		{
			"inputs": [],
			"name": "getFortuneCount",
			"outputs": [
				{
					"internalType": "uint256",
					"name": "",
					"type": "uint256"
				}
			],
			"stateMutability": "view",
			"type": "function"
		},
		{
			"inputs": [],
			"name": "getRandomFortune",
			"outputs": [
				{
					"internalType": "string",
					"name": "",
					"type": "string"
				}
			],
			"stateMutability": "nonpayable",
			"type": "function"
		},
		{
			"inputs": [],
			"name": "owner",
			"outputs": [
				{
					"internalType": "address",
					"name": "",
					"type": "address"
				}
			],
			"stateMutability": "view",
			"type": "function"
		}
	]
}